:100000000C9476000C9495000C9495000C9495003B
:100010000C9495000C9495000C9495000C9495000C
:100020000C9495000C9495000C9495000C949700FA
:100030000C9495000C9495000C9495000C949500EC
:100040000C9495000C9495000C9495000C949500DC
:100050000C9495000C9495000C9495000C949500CC
:100060000C9495000C9495000C9495000C949500BC
:100070000C9495000C9495000C9495000C949500AC
:100080000C9495000C9495000C949500C908C9082F
:10009000C908C908C908CB08C908CD08C908CB08D0
:1000A000C908CB08C908CB08C908C908C908C908C4
:1000B000C908CB08C908CD08C908C90812093509FB
:1000C000F909F10C2F09F10C3F0B710AF2093D0AF5
:1000D000F10CF10CE109E709F10C0D09040908091B
:1000E000540A5D0A9B0B0E0CE40CE60C11241FBE97
:1000F000CFEFD0E4DEBFCDBF12E0A0E0B1E0E0E49E
:10010000F7E300E00BBF02C007900D92A031B107EA
:10011000D9F71AE3A0E1B2E001C01D92A33DB107F7
:10012000E1F70E9461010C949E1B0C9400001F9249
:100130000F920FB60F920BB60F9211242F933F938D
:100140004F935F936F937F938F939F93AF93BF93DF
:10015000EF93FF9390911E02992381F48091050102
:1001600080931E02809135028093B20081E08093DB
:10017000120280913702882311F50DC0913019F4D5
:100180008091360202C0809135028093B200915076
:1001900090931E0283C08091380290913902A09101
:1001A0003A02B0913B020196A11DB11D8093380225
:1001B00090933902A0933A02B0933B026FC0823011
:1001C00009F06CC08091C13A882399F080913C027B
:1001D00090913D02A0913E02B0913F020197A1098A
:1001E000B10980933C0290933D02A0933E02B093EC
:1001F0003F028091380290913902A0913A02B09169
:100200003B020196A11DB11D8093380290933902E3
:10021000A0933A02B0933B020E9438138823B1F4B2
:1002200080911B0290911C0227E08830920710F405
:10023000019607C08850974089F50E94201389E0F5
:1002400097E090931C0280931B0228C08091C13AD2
:100250008823E9F02091400230914102409142020E
:100260005091430280913C0290913D02A0913E0248
:10027000B0913F0282179307A407B50741F020937E
:100280003C0230933D0240933E0250933F020E9455
:10029000B50F81E080931A020E949108FF91EF91BF
:1002A000BF91AF919F918F917F916F915F914F918E
:1002B0003F912F910F900BBE0F900FBE0F901F908C
:1002C00018952F923F924F925F926F927F928F92EA
:1002D0009F92AF92BF92CF92DF92EF92FF920F93D5
:1002E0001F93DF93CF93CDB7DEB762970FB6F89425
:1002F000DEBF0FBECDBF1092831E1092821E809172
:100300001F02882381F40E94821380E090E020E1A4
:1003100037E2F9013197F1F7019641E0803994070E
:10032000C1F70E948A1380E090E020E137E2F901F2
:100330003197F1F70196A1E080399A07C1F7109241
:10034000500210924F020E947E0D809164008160E5
:100350008093640080916400846080936400809145
:100360006400806280936400809164008860809360
:1003700064008091640080688093640080E090E075
:10038000A0E0B0E080936E1090936F10A093701077
:10039000B093711080938A1E90938B1EA0938C1E35
:1003A000B0938D1E8093470290934802A093490218
:1003B000B0934A028093611090936210A0936310EF
:1003C000B093641080936A1090936B10A0936C109C
:1003D000B0936D108093661090936710A09368108F
:1003E000B093691081E08093120280931F0280E035
:1003F00090E020E137E2F9013197F1F70196B1E0A1
:1004000080399B07C1F780912002882349F50E941B
:10041000821380E090E020E137E2F9013197F1F7B3
:10042000019688329105C9F70E948A1380E090E016
:1004300020E137E2F9013197F1F701968832910511
:10044000C9F70E94821380E090E020E137E2F901D1
:100450003197F1F7019688329105C9F70E948A1306
:1004600081E08093200280911A02882309F049C517
:1004700080911202882309F42EC5809164008E7F3A
:10048000809364000E944E0E82E00E94C40E9093FE
:100490002E0280932D0281E00E94C40E90933002C0
:1004A00080932F0280E00E94C40E909332028093CA
:1004B000310287E00E94C40E3C0190934502809374
:1004C000440240904F0250905002F201EE0FFF1F85
:1004D000EE0FFF1FDF01A157B14E60912D02709109
:1004E0002E0280E090E06D937D938D939C93139703
:1004F000DF01AF5ABD4FE0902F02F090300200E0D4
:1005000010E0ED92FD920D931C931397DF01AE580E
:10051000BF4EA0903102B0903202CC24DD24AD92C7
:10052000BD92CD92DC921397E156F34D8824992425
:1005300060827182828293820E9417189B01AC01B3
:1005400060916E1070916F10809170109091711089
:100550000E94601569877A878B879C8760936E10ED
:1005600070936F108093701090937110C801B70151
:100570000E9417189B01AC0160918A1E70918B1E1E
:1005800080918C1E90918D1E0E9460156D877E87D4
:100590008F87988B60938A1E70938B1E80938C1E1E
:1005A00090938D1EC601B5010E9417189B01AC01E6
:1005B00060914702709148028091490290914A02ED
:1005C0000E9460155B016C016093470270934802C2
:1005D0008093490290934A02C401B3010E94171804
:1005E0009B01AC0160914B0270914C0280914D02D5
:1005F00090914E020E9460157B018C0160934B022A
:1006000070934C0280934D0290934E020894411CCB
:10061000511C5092500240924F02E4E84E16E3E023
:100620005E0609F04FC469857A858B859C8520E03C
:1006300030E041E654E40E94871660936E10709398
:100640006F1080937010909371106D857E858F85EB
:10065000988920E030E041E654E40E9487166093D8
:100660008A1E70938B1E80938C1E90938D1EC601E4
:10067000B50120E030E041E654E40E948716609323
:100680004702709348028093490290934A02C8013E
:10069000B70120E030E041E654E40E948716609301
:1006A0004B0270934C0280934D0290934E028FE860
:1006B0009EE198878F83A1E5B2E0BE83AD83E2E738
:1006C000F0E1FC83EB838FE99CE29A8389831A8AA9
:1006D000198AEDC0AF81B8856D917D918D919C9106
:1006E0000E94171820916E1030916F104091701079
:1006F000509171100E942F159B01AC010E948D1525
:100700000E94B7131B012C01EF81F885619371934F
:1007100081939193F887EF83AD81BE816D917D9137
:100720008D919C910E94171820918A1E30918B1EEA
:1007300040918C1E50918D1E0E942F159B01AC0183
:100740000E948D150E94B7133B014C01ED81FE8183
:100750006193719381939193FE83ED83AB81BC810F
:100760006D917D918D919C910E9417182091470267
:10077000309148024091490250914A020E942F153F
:100780009B01AC010E948D150E94B7135B016C01A7
:10079000EB81FC816193719381939193FC83EB8353
:1007A000A981BA816D917D918D919C910E941718BC
:1007B00020914B0230914C0240914D0250914E02DB
:1007C0000E942F159B01AC010E948D150E94B7134A
:1007D0007B018C01E981FA816193719381939193FB
:1007E000FA83E983C201B1010E9417189B01AC0191
:1007F000609161107091621080916310909164100B
:100800000E94601560936110709362108093631072
:1008100090936410C401B3010E9417189B01AC01AE
:1008200060916A1070916B1080916C1090916D10B6
:100830000E94601560936A1070936B1080936C1027
:1008400090936D10C601B5010E9417189B01AC0171
:100850006091661070916710809168109091691096
:100860000E94601560936610709367108093681003
:1008700090936910C801B7010E9417189B01AC0141
:100880006091851E7091861E8091871E9091881EB2
:100890000E9460156093851E7093861E8093871E4C
:1008A0009093881E89899A8901969A8B898BA98948
:1008B000BA89E3E0A438BE0708F40CCFB093500225
:1008C000A0934F026091611070916210809163104B
:1008D0009091641020E030E041E654E40E948716D5
:1008E0000E94261B7B018C01609361107093621043
:1008F000809363109093641060916A1070916B10F4
:1009000080916C1090916D1020E030E041E654E44D
:100910000E9487160E94261B60936A1070936B10CA
:1009200080936C1090936D106091661070916710B9
:10093000809168109091691020E030E041E654E425
:100940000E9487160E94261B6093661070936710A2
:1009500080936810909369106091851E7091861E37
:100960008091871E9091881E20E030E041E654E49B
:100970000E9487160E94261B6093851E7093861E18
:100980008093871E9093881EC801B70120E030E055
:1009900040E050E00E943317882311F5EE24FF2435
:1009A00000E117E20E94991380E090E0F80131978E
:1009B000F1F7019688329105C9F70E94A11380E0F2
:1009C00090E0F8013197F1F70196F1E080399F0747
:1009D000C1F70894E11CF11C25E0E216F10411F7BF
:1009E00060916A1070916B1080916C1090916D10F5
:1009F00020E030E040E050E00E943317882309F007
:100A000038C0EE24FF2400E117E20E94991380E031
:100A100090E0F8013197F1F7019688329105C9F716
:100A20000E94A11380E090E0F8013197F1F7019660
:100A300088329105C9F70E94991380E090E0F8018F
:100A40003197F1F7019688329105C9F70E94A113F9
:100A500080E090E0F8013197F1F7019641E08039AC
:100A60009407C1F70894E11CF11C85E0E816F10435
:100A700061F6609166107091671080916810909196
:100A8000691020E030E040E050E00E9433178823F6
:100A900009F04FC0EE24FF2400E117E20E949913F1
:100AA00080E090E0F8013197F1F7019688329105E6
:100AB000C9F70E94A11380E090E0F8013197F1F7A7
:100AC000019688329105C9F70E94991380E090E061
:100AD000F8013197F1F7019688329105C9F70E9424
:100AE000A11380E090E0F8013197F1F70196883288
:100AF0009105C9F70E94991380E090E0F8013197C1
:100B0000F1F7019688329105C9F70E94A11380E0A0
:100B100090E0F8013197F1F70196A1E080399A074A
:100B2000C1F70894E11CF11CB5E0EB16F10409F0E3
:100B3000B5CF80E090E020E137E2F9013197F1F79D
:100B40000196E3E080329E07C1F78091210288235D
:100B500009F043C00E94821380E090E020E137E278
:100B6000F9013197F1F7019688329105C9F70E9492
:100B70008A1380E090E020E137E2F9013197F1F744
:100B8000019688329105C9F70E94821380E090E0B7
:100B900020E137E2F9013197F1F7019688329105AA
:100BA000C9F70E948A1380E090E020E137E2F90162
:100BB0003197F1F7019688329105C9F70E948213A7
:100BC00080E090E020E137E2F9013197F1F70196FA
:100BD00088329105C9F70E948A1381E0809321022F
:100BE00080E090E020E137E2F9013197F1F70196DA
:100BF000F1E080399F07C1F7609161107091621038
:100C0000809163109091641020E030E040E450E463
:100C10000E946317181614F5EE24FF2400E117E272
:100C20000E94991380E090E0F8013197F1F7019666
:100C300088329105C9F70E94A11380E090E0F80185
:100C40003197F1F7019621E080399207C1F70894B6
:100C5000E11CF11C45E0E416F10411F760916A1003
:100C600070916B1080916C1090916D1020E030E0CD
:100C700040E450E40E94631718160CF038C0EE24CC
:100C8000FF2400E117E20E94991380E090E0F80150
:100C90003197F1F7019688329105C9F70E94A113A7
:100CA00080E090E0F8013197F1F7019688329105E4
:100CB000C9F70E94991380E090E0F8013197F1F7AD
:100CC000019688329105C9F70E94A11380E090E057
:100CD000F8013197F1F70196A1E080399A07C1F741
:100CE0000894E11CF11CB5E0EB16F10461F660918B
:100CF000661070916710809168109091691020E0E3
:100D000030E040E450E40E94631718160CF04FC026
:100D1000EE24FF2400E117E20E94991380E090E0A6
:100D2000F8013197F1F7019688329105C9F70E94D1
:100D3000A11380E090E0F8013197F1F70196883235
:100D40009105C9F70E94991380E090E0F80131976E
:100D5000F1F7019688329105C9F70E94A11380E04E
:100D600090E0F8013197F1F7019688329105C9F7C3
:100D70000E94991380E090E0F8013197F1F7019615
:100D800088329105C9F70E94A11380E090E0F80134
:100D90003197F1F70196E1E080399E07C1F7089499
:100DA000E11CF11CF5E0EF16F10409F0B5CF80E08D
:100DB00090E020E137E2F9013197F1F7019643E045
:100DC00080329407C1F70E94821380E090E020E116
:100DD00037E2F9013197F1F7019688329105C9F7A9
:100DE0000E948A1380E090E020E137E2F901319718
:100DF000F1F7019688329105C9F70E94821380E0CD
:100E000090E020E137E2F9013197F1F7019688325D
:100E10009105C9F70E948A1380E090E020E137E253
:100E2000F9013197F1F7019688329105C9F70E94CF
:100E3000821380E090E020E137E2F9013197F1F789
:100E4000019688329105C9F70E948A1380E090E0EC
:100E500020E137E2F9013197F1F7019688329105E7
:100E6000C9F70E94821380E090E020E137E2F901A7
:100E70003197F1F7019688329105C9F70E948A13DC
:100E800080E090E020E137E2F9013197F1F7019637
:100E9000A1E080399A07C1F76091851E7091861E86
:100EA0008091871E9091881E20E030E040E85FE34B
:100EB0000E94631718161CF40E94991302C00E9426
:100EC0008213FFCF0E94540E809164008160809352
:100ED0006400109212020E94A1130E948A13F894D7
:100EE00083B7817F83BF83B7816083BF85B7806607
:100EF00085BF8F7D85BF7894889583B78E7F83BFAC
:100F0000B2CA80E090E062960FB6F894DEBF0FBEE2
:100F1000CDBFCF91DF911F910F91FF90EF90DF90A8
:100F2000CF90BF90AF909F908F907F906F905F9089
:100F30004F903F902F9008959C01F999FECF1FBAD2
:100F400032BD21BD60BD0FB6F894FA9AF99A0FBE72
:100F500008952091040130E040E050E064E87EE133
:100F600080E090E00E94AE1A922F909581E02130AF
:100F7000380748F010923502832F8F5F8093050168
:100F800090933602089590933502109205018FEFE9
:100F900080933602089521E030E002C0220F331F13
:100FA0008A95E2F780913402822B8093340208956F
:100FB00021E030E002C0220F331F8A95E2F720952E
:100FC0008091340282238093340208952091340268
:100FD00030E002C0359527958A95E2F7822F81701F
:100FE000089585EC8093C93A809104018F778093AE
:100FF000CA3A85EC0E9452138091CA3A0E94521359
:1010000008952CEC2093C93A9C01220F232F221F14
:10101000330B31952F772093CA3A8F778093CB3A51
:101020008CEC0E9452138091CA3A0E945213809114
:10103000CB3A0E9452130895FF920F931F93DF93B0
:10104000CF930F92CDB7DEB7082FF42E8695806E22
:101050008093C93A69830E94521310E001701070A6
:1010600026E0000F111F2A95E1F799819F73902BBD
:101070009093CA3A892F0E945213FF0CF092CB3AF8
:101080008F2D0E9452130F90CF91DF911F910F91DE
:10109000FF900895CF92DF92EF92FF920F931F93EC
:1010A0008C017B016A01812F837080688093C93A2B
:1010B0000E945213C801969587958F778093CA3AFC
:1010C0000E945213C70144E0969587954A95E1F72F
:1010D0008F730295000F000F0074802B8093CB3A22
:1010E0000E945213C601880F892F881F990B919572
:1010F0008770EE0CEE0CEE0C98E7E9228E298093B7
:10110000CC3A0E9452138FE7C822C092CD3A8C2D60
:101110000E9452131F910F91FF90EF90DF90CF909C
:1011200008950F931F93DF93CF930F92CDB7DEB740
:1011300090912202992329F080912302981708F0B8
:1011400040C0CE0101960E9442138823D1F18091C4
:1011500022029981E82FF0E0E753F54C90838F5FEE
:1011600080932202892F829586958770853049F574
:10117000892F8F718093C23AE82FF0E0E831F105B2
:1011800078F4EA5BFF4FEE0FFF1F0590F491E02D1E
:10119000099481E003C082E001C08AE080932302C9
:1011A00081E0809322021092250210922402109274
:1011B00026028FEF9FEF909303018093020110921C
:1011C000270260912202662309F423C4809124023D
:1011D000909125020196909325028093240280919C
:1011E0002302681709F015C48091C23AE82FF0E095
:1011F000E831F10508F0F5C3E25AFF4FEE0FFF1F8B
:101200000590F491E02D099481E08093280202C0BA
:101210001092280260932602E4C310922A021092D0
:101220002902F8CF87E00E94C40E90932C0280938D
:101230002B0220EC2093C93A9C0113E036952795A8
:101240001A95E1F72093CA3A87708295807F809340
:10125000CB3A809122028093260283E0C0C383ECC4
:101260008093C93A8091060124C187E00E94C40E90
:101270009C014091B73A5091B83A4817590738F451
:1012800084E690E090932C0280932B028DC06091B5
:10129000C53A7091C63A68177907A0F4261B370B38
:1012A000461B570B84E190E0BC01269FC001279F9D
:1012B000900D369F900D1124BA010E949A1A605B1E
:1012C0007F4F19C04091BF3A5091C03A4817590713
:1012D000B8F4241B350B641B750B84E190E0AC0162
:1012E000249FC001259F900D349F900D11240E94D2
:1012F0009A1A645C7F4F70932C0260932B0254C047
:101300006091BD3A7091BE3A68177907A0F4261B28
:10131000370B461B570B84E190E0BC01269FC001B0
:10132000279F900D369F900D1124BA010E949A1AA2
:10133000685D7F4FE0CFE091B33AF091B43AE8179F
:10134000F90798F42E1B3F0B6E1B7F0B84E190E096
:10135000AC01249FC001259F900D349F900D112456
:101360000E949A1A6C5E7F4FC6CF4091C33A50914B
:10137000C43A48175907A0F4841B950B9C01B3E0AD
:10138000220F331FBA95E1F7E41BF50B880F991F65
:10139000820F931FBF010E949A1A665F7F4FABCFE7
:1013A00010922C0210922B0281EC8093C93A80910A
:1013B0002B028F778093CA3A809122028093260273
:1013C0000DC387EC8093C93A8091C13A10C0209137
:1013D000CA3A2F772093C13AF999FECF1FBA8DE10F
:1013E00090E076C085EC8093C93A809104018F77B4
:1013F000F1C282EC8093C93A2091380230913902CF
:1014000040913A0250913B02DA01C901F9E1B695E7
:10141000A79597958795FA95D1F78093CA3ADA01FF
:10142000C901E2E1B695A79597958795EA95D1F719
:101430008F778093CB3ADA01C9017BE0B695A79507
:10144000979587957A95D1F78F778093CC3ADA0183
:10145000C90144E0B695A795979587954A95D1F728
:101460008F778093CD3A2F70220F220F220F209377
:10147000CE3A6093260286E0B2C28091CA3A8F7754
:10148000809304010E94A90720910401F999FECFDD
:101490001FBA82E090E092BD81BD20BD0FB6F894E6
:1014A000FA9AF99A0FBE8BC288EC8093C93A809160
:1014B000370287708295807F8DC22091CA3A22952B
:1014C000277020933702F999FECF1FBA83E090E08E
:1014D00092BD81BD20BD0FB6F894FA9AF99A0FBE5D
:1014E00099CEF9997EC287E00E94C40E8855924039
:1014F00008F477C26091CB3A70E06077707034E0A6
:10150000769567953A95E1F78091CA3A90E08F77A2
:10151000907023E0880F991F2A95E1F7682B792BAB
:101520007093B03A6093AF3A81E190E04CE957E0B4
:101530000E94851A6091CC3A70E06E777070769553
:1015400067958091CB3A90E08F70907006E0880F9D
:10155000991F0A95E1F7682B792B7093B23A609343
:10156000B13A83E190E04CE957E00E94851A60911E
:10157000CD3A70E06F777070660F771F660F771F38
:101580008091CC3A90E081709070982F8827990FC5
:10159000682B792B8091CE3A90E080769070A5E010
:1015A00096958795AA95E1F7682B792B7093C83AA1
:1015B0006093C73A85E190E04CE957E00E94851AB4
:1015C0006091CF3A70E06C777070769567957695FC
:1015D00067958091CE3A90E08F719070E5E0880F2A
:1015E000991FEA95E1F7682B792B7093B63A6093CF
:1015F000B53A87E190E04CE957E00E94851A609186
:10160000D03A70E0660F771F70708091CF3A90E00B
:1016100083709070982F8827682B792B8091D13A0E
:1016200090E08074907036E0969587953A95E1F752
:10163000682B792B7093BC3A6093BB3A89E190E0B8
:101640004CE957E00E94851A8091D13A90E0BC01A4
:101650006877707023E0769567952A95E1F78F7328
:10166000907004E0880F991F0A95E1F7682B792B99
:101670007093BA3A6093B93A8BE190E09CC184ECE4
:101680008093C93A2091AF3A3091B03AC90113E042
:10169000969587951A95E1F78F778093CA3A40918E
:1016A000B13A5091B23ACA01B6E096958795BA958B
:1016B000E1F78F7022952077822B8093CB3A20918F
:1016C000C73A3091C83A832F86958170440F4E7780
:1016D000842B8093CC3AC9019695879596958795EA
:1016E0008F778093CD3A4091B53A5091B63ACA017E
:1016F000F5E096958795FA95E1F78F712295220F7F
:101700002076822B8093CE3A2091BB3A3091BC3A1E
:10171000832F8370440F440F4C77842B8093CF3AF0
:10172000C901969587958F778093D03A4091B93AC1
:101730005091BA3A5BC089EC8093C93A2091B73A8C
:101740003091B83AC90173E0969587957A95E1F79B
:101750008F778093CA3A4091C53A5091C63ACA01F0
:1017600056E0969587955A95E1F78F7022952077E8
:10177000822B8093CB3A2091BF3A3091C03A832F8D
:1017800086958170440F4E77842B8093CC3AC901A3
:1017900096958795969587958F778093CD3A4091CA
:1017A000BD3A5091BE3ACA0105E0969587950A95D3
:1017B000E1F78F712295220F2076822B8093CE3A0B
:1017C0002091B33A3091B43A832F8370440F440F81
:1017D0004C77842B8093CF3AC901969587958F7764
:1017E0008093D03A4091C33A5091C43ACA01B4E0D0
:1017F00096958795BA95E1F78F732295220F220F60
:101800002074822B8093D13A440F440F440F4877C1
:101810004093D23A609326028AE0E1C0F999E1C090
:1018200087E00E94C40E8855924008F4DAC06091A7
:10183000CB3A70E060777070A4E076956795AA95D2
:10184000E1F78091CA3A90E08F779070F3E0880FCB
:10185000991FFA95E1F7682B792B7093B83A60934A
:10186000B73A85E090E04CE957E00E94851A609114
:10187000CC3A70E06E777070769567958091CB3A30
:1018800090E08F70907056E0880F991F5A95E1F79D
:10189000682B792B7093C63A6093C53A87E090E045
:1018A0004CE957E00E94851A6091CD3A70E06F775D
:1018B0007070660F771F660F771F8091CC3A90E0AB
:1018C00081709070982F8827990F682B792B8091C1
:1018D000CE3A90E08076907025E0969587952A958F
:1018E000E1F7682B792B7093C03A6093BF3A89E097
:1018F00090E04CE957E00E94851A6091CF3A70E081
:101900006C77707076956795769567958091CE3AED
:1019100090E08F71907005E0880F991F0A95E1F7AC
:10192000682B792B7093BE3A6093BD3A8BE090E0C0
:101930004CE957E00E94851A6091D03A70E0660F3A
:10194000771F70708091CF3A90E083709070982FDD
:101950008827682B792B8091D13A90E08074907021
:10196000A6E096958795AA95E1F7682B792B709359
:10197000B43A6093B33A8DE090E04CE957E00E94AE
:10198000851A8091D13A90E0BC0168777070F3E0DD
:1019900076956795FA95E1F78F739070E4E0880F7C
:1019A000991FEA95E1F7682B792B7093C43A6093FD
:1019B000C33A8FE090E04CE957E00E94851A80918D
:1019C0002202809326020DC08AEC01C08BEC80932A
:1019D000C93A83E08093CA3A6093260282E08093FA
:1019E00027029091260280912202981759F500E073
:1019F00010E008C0F801E753F54C80810E945213B3
:101A00000F5F1F4F8091270290E00817190794F38A
:101A100007C080912402909125028F3F910590F09C
:101A20001092230210922202109225021092240298
:101A3000109226028FEF9FEF909303018093020193
:101A4000109227020F90CF91DF911F910F9108956F
:101A500080912802882339F58091290290912A02E9
:101A6000019690932A02809329028A5A9A4030F074
:101A70000E94CB1010922A021092290282E00E944A
:101A8000C40E90932E0280932D0281E00E94C40E1A
:101A90009093300280932F0280E00E94C40E9093B6
:101AA000320280933102089580912802882329F51B
:101AB0008091290290912A02019690932A028093A4
:101AC00029028A5A9A4030F00E94CB1010922A02C2
:101AD0001092290280912D0290912E028050944004
:101AE00060F010922E0210922D021092300210928D
:101AF0002F02109232021092310208950E945C0F60
:101B000086E00E94660F8AE080938E1E0E949913E1
:101B10000E94821380E090E020E137E2F9013197E2
:101B2000F1F7019647E0803D9407C1F70E94A113A9
:101B30000E948A138AE5809304011092370285ED92
:101B400092E09093B83A8093B73A88EA92E0909303
:101B5000C63A8093C53A80E892E09093C03A809369
:101B6000BF3A88E592E09093BE3A8093BD3A80E315
:101B700092E09093B43A8093B33A8CE192E09093E0
:101B8000C43A8093C33A84EF91E09093B03A809343
:101B9000AF3A85EF91E09093B23A8093B13A86EFF5
:101BA00091E09093C83A8093C73A87EF91E0909381
:101BB000B63A8093B53A88EF91E09093BC3A80931F
:101BC000BB3A89EF91E09093BA3A8093B93A8FE7A4
:101BD0008093C13A85E28093330288EE96E7AAE0CB
:101BE000B0E08093400290934102A0934202B093F0
:101BF000430280933C0290933D02A0933E02B09337
:101C00003F020E94A90786E00E943F0F08958823A3
:101C100021F480917A00887F36C0813049F4809128
:101C20007A008A7F80937A0080917A0082602BC04C
:101C3000823049F480917A008B7F80937A00809182
:101C40007A00836020C0833049F480917A008C7FD1
:101C500080937A0080917A00846015C0843049F4C2
:101C600080917A008D7F80937A0080917A008560E0
:101C70000AC0853059F480917A008E7F80937A0073
:101C800080917A00866080937A000895863029F4E6
:101C900080917A00876080937A000895EAE7F0E007
:101CA0008081806880830895EAE7F0E080818F7703
:101CB00080830895882321F480917C008E7F05C065
:101CC000813071F480917C00816080937C008091F0
:101CD0007C008D7F80937C0080917C008B7F2BC06B
:101CE000823021F480917C008E7F05C0833049F4DE
:101CF00080917C00816080937C0080917C00826078
:101D0000E9CF843049F480917C008E7F80937C0001
:101D100080917C008D7F0AC08630D1F480917C0058
:101D20008E7F80937C0080917C00826080937C0019
:101D300080917C00846080937C0080917C00877F10
:101D400080937C0080917C008F7E80937C0008953E
:101D50008730C9F480917C00816080937C00809101
:101D60007C00826080937C0080917C008460809302
:101D70007C0080917C00877F80937C0080917C0038
:101D80008F7E80937C0008950E945A0E80917A0085
:101D9000806180937A0080917A00806480937A00D9
:101DA00080917A0086FDFCCF2091780040917900E7
:101DB000942F80E030E0282B392BC90108959093AF
:101DC000C5008093C400662319F0613029F402C075
:101DD00088E003C080E101C088E18093C10086E013
:101DE0008093C20008959093CD008093CC00662329
:101DF00019F0613029F402C088E003C080E101C01D
:101E000088E18093C90086E08093CA0008958FB767
:101E1000F89495B7906895BF95B7906895BF8FBFB8
:101E200008958230B1F0833028F4882351F0813056
:101E300001F50BC08430A9F0843078F08530C9F406
:101E400014C08091B100816017C08091B1008260A0
:101E500013C08091B10083600FC08091B100846095
:101E60000BC08091B100856007C08091B100866091
:101E700003C08091B10087608093B10008950E94F3
:101E8000110F1092B200E0E7F0E080818160808362
:101E900078940895109270001092B1000895F8940B
:101EA00028E088E190E00FB6F894A8958093600050
:101EB0000FBE20936000FFCF14BE88E10FB6F894E8
:101EC00080936000109260000FBE089580916600BC
:101ED0009FB7F89485B7806885BF85B7806885BF50
:101EE0009FBF089809980A980B980D980E980F981C
:101EF000209821982A9823982498259826982798FE
:101F0000389839983A983B983C983D983E983F9835
:101F10005098519852985398549855985698579865
:101F2000519A529A5A9A249A2C98209A239A2B9A28
:101F300083E08093891E28981092C5008CE08093DE
:101F4000C40088E18093C10086E08093C200ECE782
:101F5000F0E080818064808385E00E94070EEAE7DC
:101F6000F0E08081806880830895F89451985298B9
:101F7000249828982098239A2B98539A5B985398E2
:101F80003B9A43983B988091891E807F8093891E5D
:101F900011B814B817B81AB812B815B818B81BB8D1
:101FA000109270001092B10088E10FB6F8948093FF
:101FB0006000109260000FBEEAE7F0E080818F774A
:101FC000808385B7806185BF80B7877F80BF80B7FA
:101FD000806880BF83B7816083BF85B7806685BF17
:101FE0008F7D85BF789483B7817F846083BF889518
:101FF00083B78E7F83BF089540E054E220E137E24B
:102000006DE08091C00085FFFCCF8091C0008F7D86
:102010008093C0005093C600C9010197F1F78091E9
:10202000C00085FFFCCF8091C0008F7D8093C000F1
:102030005093C600C9010197F1F78091C00085FF58
:10204000FCCF8091C0008F7D8093C0005093C6006C
:10205000C9010197F1F78091C00085FFFCCF809105
:10206000C0008F7D8093C0006093C6008091C00047
:1020700085FFFCCF8091C0008F7D8093C00060936E
:10208000C6008091C00087FD04C08091C00087FF1A
:1020900025C08091C600833409F58091C00085FF7A
:1020A000FCCF8091C0008F7D8093C0008DE0809335
:1020B000C60020E030E09DE08091C00085FFFCCFAD
:1020C0008091C0008F7D8093C0009093C6002F5FE9
:1020D0003F4F2A30310581F781E008954F5F4F3F30
:1020E00009F08FCF80E0089540E05DE220E137E223
:1020F0006DE08091C00085FFFCCF8091C0008F7D96
:102100008093C0005093C600C9010197F1F78091F8
:10211000C00085FFFCCF8091C0008F7D8093C00000
:102120005093C600C9010197F1F78091C00085FF67
:10213000FCCF8091C0008F7D8093C0005093C6007B
:10214000C9010197F1F78091C00085FFFCCF809114
:10215000C0008F7D8093C0006093C6008091C00056
:1021600085FFFCCF8091C0008F7D8093C00060937D
:10217000C6004F5F4F3F69F08091C00087FD06C0E9
:102180008091C00087FD02C081E008958091C60063
:10219000B0CF80E008955198529824983091891ECC
:1021A00020E040E157E2CA010197F1F72F5F2F3F8E
:1021B000D1F7519A529A5A9A249A2C9831603093B6
:1021C000891E08959F92AF92BF92CF92DF92EF92B5
:1021D000FF920F931F93482F50E0FDE060E177E2FC
:1021E000B3E5BB2EA5E5AA2EECE29E2E03E3E8E3C1
:1021F00039E3F32E26E3E22E14E3A2E3B1E395E301
:10220000C92E87E3D82E20E030E08091C00087FD02
:1022100004C08091C00087FF02C08091C6002F5F7C
:102220003F4F2436310589F78091C00085FFFCCFF0
:102230008091C0008F7D8093C000F093C600CB01D9
:102240000197F1F78091C00085FFFCCF8091C0001D
:102250008F7D8093C000F093C6008091C00085FF01
:10226000FCCF8091C0008F7D8093C000B092C600EB
:10227000CB010197F1F78091C00085FFFCCF8091E1
:10228000C0008F7D8093C000A092C600CB01019753
:10229000F1F78091C00085FFFCCF8091C0008F7D59
:1022A0008093C0009092C600CB010197F1F74C30AB
:1022B00009F47DC04D3068F4413009F4C3C04130A9
:1022C00008F4D7C0433009F4A6C0483009F0E8C08C
:1022D0008BC04333A9F1443338F4403109F457C07B
:1022E000493109F0DDC03CC04736D1F04F3C09F020
:1022F000D7C08091C00085FFFCCF8091C0008F7D4A
:102300008093C000A093C6008091C00085FFFCCFE1
:102310008091C0008F7D8093C0001093C600D6C00E
:102320008091C00085FFFCCF8091C0008F7D80939D
:10233000C0001093C6008091C00085FFFCCFBFC0D5
:102340008091C00085FFFCCF8091C0008F7D80937D
:10235000C000F092C6008091C00085FFFCCF98C0FD
:102360008091C00085FFFCCF8091C0008F7D80935D
:10237000C000B093C6008091C00085FFFCCF809163
:10238000C0008F7D8093C000F092C6009FC08091F6
:10239000C00085FFFCCF8091C0008F7D8093C0007E
:1023A000A093C6008091C00085FFFCCF88C08091BB
:1023B000C00085FFFCCF8091C0008F7D8093C0005E
:1023C0000093C600CB010197F1F78091C00085FF13
:1023D000FCCF8091C0008F7D8093C000E093C60049
:1023E000CB010197F1F772C08091C00085FFFCCF4F
:1023F0008091C0008F7D8093C000C092C600809104
:10240000C00085FFFCCF8091C0008F7D8093C0000D
:10241000D092C6005BC08091C00085FFFCCF809148
:10242000C0008F7D8093C000B093C6008091C00033
:1024300085FFFCCF8091C0008F7D8093C000B0935A
:10244000C60044C08091C00085FFFCCF8091C000D1
:102450008F7D8093C000A093C6008091C00085FF4F
:10246000FCCF8091C0008F7D8093C0000093C60098
:102470002DC08091C00085FFFCCF8091C0008F7D72
:102480008093C0001093C6008091C00085FFFCCFF0
:102490008091C0008F7D8093C000E092C60016C07E
:1024A0008091C00085FFFCCF8091C0008F7D80931C
:1024B000C0000093C6008091C00085FFFCCF8091D2
:1024C000C0008F7D8093C000E093C6008091C00063
:1024D00085FFFCCF8091C0008F7D8093C000F0937A
:1024E000C600CB010197F1F78091C00085FFFCCFBA
:1024F0008091C0008F7D8093C000F093C600CB0117
:102500000197F1F78091C00087FD04C08091C00061
:1025100087FF06C08091C600813411F481E005C0B8
:102520005F5F5F3F09F06FCE80E01F910F91FF90DA
:10253000EF90DF90CF90BF90AF909F90089530E0E4
:1025400020E06DE040E157E2E7E475E58091C000EE
:1025500085FFFCCF8091C0008F7D8093C000609389
:10256000C600CA010197F1F78091C00085FFFCCF3A
:102570008091C0008F7D8093C0006093C6008091E1
:10258000C00085FFFCCF8091C0008F7D8093C0008C
:10259000E093C600CA010197F1F78091C00085FF62
:1025A000FCCF8091C0008F7D8093C0007093C600E7
:1025B000CA010197F1F78091C00085FFFCCF80919F
:1025C000C0008F7D8093C0006093C600CA01019750
:1025D000F1F78091C00085FFFCCF8091C0008F7D16
:1025E0008093C0006093C600CA010197F1F73F5F76
:1025F0003F3F21F18091C00087FD14C08091C00051
:1026000087FD10C0243389F0253328F4213389F065
:10261000223399F405C0253371F0293371F407C0D2
:102620002FEC0CC02091C60091CF27E607C023E312
:1026300005C023E003C028E001C02CE0822F0895EC
:10264000519A529A5A9A249A2C988091891E8160A4
:102650008093891E08955198529824988091891EDC
:102660008E7F8093891E08958091891E81700895C0
:1026700080B182958170089580B182958695869506
:1026800081700895FC018091C00087FD06C0809193
:10269000C00087FD02C080E008958091C60080835D
:1026A00081E00895982F8091C00085FFFCCF809134
:1026B000C0008F7D8093C0009093C600089588234A
:1026C00011F428980895813011F080E00895289A37
:1026D00081E00895209A239A2B9A8091891E826026
:1026E0008093891E089528982098239A2B9880918A
:1026F000891E8D7F8093891E08958091891E8695FD
:1027000081700895539A5B9A8091891E84608093AA
:10271000891E0895539A5B9853988091891E8B7FE8
:102720008093891E08958091891E86958695817073
:1027300008953B9A439A8091891E88608093891EF0
:1027400008953B9A43983B988091891E877F809398
:10275000891E08958091891E86958695869581703B
:10276000089582B186958695869581700895EF9239
:10277000FF920F931F937B018C0120E030E040E03B
:102780005FE40E94931788238CF0C801B70120E012
:1027900030E040E05FE40E942F150E94C3179B01C8
:1027A000AC01205030404040504806C0C801B7013D
:1027B0000E94C3179B01AC01B901CA011F910F917F
:1027C000FF90EF900895A0E0B0E0E9EEF3E10C9403
:1027D000EB1ADC012B01FA019C91923008F439C10B
:1027E000EB018881823008F433C1943069F484307D
:1027F00009F02FC111969C9111978981981709F4BE
:1028000028C1A7E0B1E025C1843009F421C182309C
:10281000A9F4923009F01DC19A01AD0188E0EA01E6
:102820000990AE01E90109929E018150C1F7E201D0
:10283000898111969C918923818308C1923009F482
:1028400007C112962D903C901397EB018A819B81D2
:102850001496AD90BD90CD90DC901797EC80FD80E4
:102860000E811F819101281B390BB90137FF04C06C
:1028700066277727621B730B603271050CF061C00D
:10288000121613066CF537014801062E04C0969403
:102890008794779467940A94D2F721E030E040E07F
:1028A00050E004C0220F331F441F551F6A95D2F712
:1028B00021503040404050402E213F2140235123A1
:1028C000211531054105510521F021E030E040E0BE
:1028D00050E079018A01E628F728082919293CC027
:1028E000232BD1F1260E371E35014601062E04C0DA
:1028F00096948794779467940A94D2F721E030E015
:1029000040E050E004C0220F331F441F551F6A955A
:10291000D2F721503040404050402A213B214C21E9
:102920005D21211531054105510521F021E030E0FF
:1029300040E050E059016A01A628B728C828D928E4
:102940000BC0821593052CF01C01AA24BB24650141
:1029500003C0EE24FF24870111969C91D2011196A9
:102960008C91981709F445C0992339F0A801970173
:102970002A193B094C095D0906C0A60195012E19CB
:102980003F09400B510B57FD08C011823382228250
:1029900024833583468357831DC081E0818333823E
:1029A000228288279927DC01821B930BA40BB50B8D
:1029B00084839583A683B7830DC0220F331F441FE2
:1029C000551F2483358346835783828193810197E2
:1029D000938382832481358146815781DA01C9013D
:1029E0000197A109B1098F5F9F4FAF4FBF4328F3F4
:1029F0000BC0918333822282EA0CFB1C0C1D1D1D2F
:102A0000E482F5820683178383E080832481358105
:102A10004681578157FF1AC0C901AA2797FDA09583
:102A2000BA2F81709070A070B07056954795379509
:102A30002795822B932BA42BB52B84839583A68378
:102A4000B78382819381019693838283DF0101C0E2
:102A5000D201CD01CDB7DEB7E2E10C94071BA0E2B5
:102A6000B0E0E5E3F5E10C94F71A69837A838B8390
:102A70009C832D833E834F835887E9E0EE2EF12C13
:102A8000EC0EFD1ECE010196B7010E94B4198E0115
:102A90000F5E1F4FCE010596B8010E94B4198A89B6
:102AA00091E089278A8BC701B801AE01475E5F4F6D
:102AB0000E94E3130E94DF18A096E6E00C94131B1B
:102AC000A0E2B0E0E6E6F5E10C94F71A69837A83B8
:102AD0008B839C832D833E834F835887F9E0EF2EB1
:102AE000F12CEC0EFD1ECE010196B7010E94B41927
:102AF0008E010F5E1F4FCE010596B8010E94B419DA
:102B0000C701B801AE01475E5F4F0E94E3130E9408
:102B1000DF18A096E6E00C94131BA0E2B0E0E3E916
:102B2000F5E10C94EB1A69837A838B839C832D8364
:102B30003E834F835887CE010196BE01675F7F4F6A
:102B40000E94B419CE010596BE016F5E7F4F0E94B0
:102B5000B4199985923088F089898230C8F0943010
:102B600019F4823051F404C0843029F4923081F495
:102B700087E091E0C6C0923049F420E09A858A89C6
:102B8000981321E02A87CE010996BBC0823049F410
:102B900020E09A858A89981321E02A8BCE014196FC
:102BA000B0C02D843E844F8458886D887E888F887D
:102BB000988CEE24FF248701AA24BB24650140E001
:102BC00050E060E070E0E0E0F0E0C1018170907002
:102BD000892BE9F0E60CF71C081D191D9A01AB01C1
:102BE0002A0D3B1D4C1D5D1D80E090E0A0E0B0E093
:102BF000E614F7040805190520F481E090E0A0E050
:102C0000B0E0BA01A901480F591F6A1F7B1FAA0C27
:102C1000BB1CCC1CDD1C97FE08C081E090E0A0E04E
:102C2000B0E0A82AB92ACA2ADB2A3196E032F10597
:102C300049F0660C771C881C991C5694479437946D
:102C40002794C3CFFA85EA892B893C898B859C859B
:102C5000280F391F2E5F3F4F17C0CA018170907037
:102C6000892B61F016950795F794E79480E090E042
:102C7000A0E0B0E8E82AF92A0A2B1B2B7695679585
:102C8000579547952F5F3F4F77FDE7CF0CC0440F17
:102C9000551F661F771F17FD4160EE0CFF1C001FBC
:102CA000111F21503040403090E0590790E06907F3
:102CB00090E4790760F32B8F3C8FDB01CA018F779B
:102CC0009070A070B07080349105A105B10561F4D9
:102CD00047FD0AC0E114F1040105110529F0405C2B
:102CE0005F4F6F4F7F4F40781A8EFE1711F081E0D3
:102CF0008A8F4D8F5E8F6F8F78A383E0898FCE018F
:102D000049960E94DF18A096E2E10C94071BA8E107
:102D1000B0E0EDE8F6E10C94F31A69837A838B83D3
:102D20009C832D833E834F835887B9E0EB2EF12C93
:102D3000EC0EFD1ECE010196B7010E94B4198E0162
:102D40000F5E1F4FCE010596B8010E94B419298568
:102D5000223008F47EC03989323010F4B8017CC0CA
:102D60008A859A8989278A87243011F0223031F4A4
:102D7000231709F06EC067E071E06EC0343039F49B
:102D80001D861E861F86188A1C861B8604C032304C
:102D900021F484E08987B7015FC02B853C858B894E
:102DA0009C89281B390B3C872B87ED84FE840F857B
:102DB0001889AD88BE88CF88D88CEA14FB040C052E
:102DC0001D0540F4EE0CFF1C001F111F2150304068
:102DD0003C872B8720E030E040E050E080E090E04E
:102DE000A0E0B0E460E070E0EA14FB040C051D050F
:102DF00040F0282B392B4A2B5B2BEA18FB080C09D7
:102E00001D09B695A79597958795EE0CFF1C001F99
:102E1000111F6F5F7F4F6F31710531F7DA01C90103
:102E20008F779070A070B07080349105A105B105C6
:102E300061F427FD0AC0E114F1040105110529F030
:102E4000205C3F4F4F4F5F4F20782D873E874F8745
:102E5000588BBE01675F7F4FCB010E94DF186896D9
:102E6000EAE00C940F1BA8E1B0E0E9E3F7E10C9471
:102E7000F71A69837A838B839C832D833E834F83E8
:102E8000588789E0E82EF12CEC0EFD1ECE0101964C
:102E9000B7010E94B4198E010F5E1F4FCE01059637
:102EA000B8010E94B4198985823040F08989823046
:102EB00028F0C701B8010E942C1A01C081E0689671
:102EC000E6E00C94131BA8E1B0E0E9E6F7E10C940E
:102ED000F71A69837A838B839C832D833E834F8388
:102EE000588789E0E82EF12CEC0EFD1ECE010196EC
:102EF000B7010E94B4198E010F5E1F4FCE010596D7
:102F0000B8010E94B4198985823040F089898230E5
:102F100028F0C701B8010E942C1A01C08FEF6896F3
:102F2000E6E00C94131BA8E1B0E0E9E9F7E10C94AA
:102F3000F71A69837A838B839C832D833E834F8327
:102F4000588789E0E82EF12CEC0EFD1ECE0101968B
:102F5000B7010E94B4198E010F5E1F4FCE01059676
:102F6000B8010E94B4198985823040F08989823085
:102F700028F0C701B8010E942C1A01C08FEF689693
:102F8000E6E00C94131BACE0B0E0E9ECF7E10C9444
:102F9000FB1A69837A838B839C83CE010196BE01E1
:102FA0006B5F7F4F0E94B4198D81823061F1823056
:102FB00050F1843021F48E81882351F12EC02F816D
:102FC000388537FD20C06E812F3131051CF0662316
:102FD000F9F023C08EE190E0821B930B29853A859E
:102FE0004B855C8504C056954795379527958A95FE
:102FF000D2F76623B1F050954095309521953F4F1B
:103000004F4F5F4F0EC020E030E040E050E009C07D
:103010002FEF3FEF4FEF5FE704C020E030E040E0EC
:1030200050E8B901CA012C96E2E00C94171BA8E005
:10303000B0E0EDE1F8E10C94F31A7B018C0161152D
:1030400071058105910519F482E0898360C083E0F0
:1030500089838EE1C82ED12CDC82CB82ED82FE8268
:103060000F831887C801B7010E949018FC0131979F
:10307000F7FF3BC0222733272E1B3F0B5701680168
:10308000022E04C0D694C794B794A7940A94D2F79A
:1030900040E050E060E070E081E090E0A0E0B0E06F
:1030A00004C0880F991FAA1FBB1F2A95D2F701974A
:1030B000A109B1098E219F21A023B1230097A10569
:1030C000B10521F041E050E060E070E04A295B2961
:1030D0006C297D294D835E836F8378878EE190E034
:1030E0008E1B9F0B9C838B8312C0309781F00E2E1A
:1030F00004C0EE0CFF1C001F111F0A94D2F7ED82D2
:10310000FE820F831887CE1ADF0ADC82CB821A82F6
:10311000CE0101960E94DF182896EAE00C940F1B5E
:10312000EF92FF920F931F937B018C0180E0E816D2
:1031300080E0F80681E0080780E0180788F48FEF48
:10314000E816F1040105110531F028F088E090E05F
:10315000A0E0B0E017C080E090E0A0E0B0E012C0D6
:1031600080E0E81680E0F80680E0080781E01807B4
:1031700028F088E190E0A0E0B0E004C080E190E0B9
:10318000A0E0B0E020E230E040E050E0281B390B46
:103190004A0B5B0B04C016950795F794E7948A9544
:1031A000D2F7F701E15FFE4F8081281B3109410909
:1031B0005109C9011F910F91FF90EF900895DF927F
:1031C000EF92FF920F931F93FC01E480F58006813C
:1031D0001781D1808081823048F480E090E0A0E1C6
:1031E000B0E0E82AF92A0A2B1B2BA5C0843009F489
:1031F0009FC0823021F4EE24FF24870105C0E11432
:10320000F1040105110519F4E0E0F0E096C06281D7
:1032100073819FEF623879070CF05BC022E83FEFC3
:10322000261B370B2A3131052CF020E030E040E03E
:1032300050E02AC0B801A701022E04C07695679518
:10324000579547950A94D2F781E090E0A0E0B0E06E
:1032500004C0880F991FAA1FBB1F2A95D2F7019798
:10326000A109B1098E219F21A023B1230097A105B7
:10327000B10521F081E090E0A0E0B0E09A01AB015F
:10328000282B392B4A2B5B2BDA01C9018F779070E1
:10329000A070B07080349105A105B10539F427FF05
:1032A00009C0205C3F4F4F4F5F4F04C0215C3F4F30
:1032B0004F4F5F4FE0E0F0E02030A0E03A07A0E0A1
:1032C0004A07A0E45A0710F0E1E0F0E079018A0132
:1032D00027C06038710564F5FB01E158FF4FD80144
:1032E000C7018F779070A070B07080349105A105F0
:1032F000B10539F4E7FE0DC080E490E0A0E0B0E055
:1033000004C08FE390E0A0E0B0E0E80EF91E0A1FD1
:103310001B1F17FF05C016950795F794E794319684
:1033200087E016950795F794E7948A95D1F705C03D
:10333000EE24FF248701EFEFF0E06E2F67956627FC
:103340006795902F9F77D794DD24D7948E2F8695FD
:10335000492F462B582F5D29B701CA011F910F91A4
:10336000FF90EF90DF900895FC01DB0140815181D7
:103370002281622F6F7770E0221F2227221F938104
:10338000892F880F822B282F30E0991F9927991FAA
:1033900011969C93119721153105A9F541155105F9
:1033A0006105710511F482E037C082E89FEF139642
:1033B0009C938E9312979A01AB0167E0220F331F03
:1033C000441F551F6A95D1F783E08C930DC0220FDF
:1033D000331F441F551F12968D919C91139701978F
:1033E00013969C938E931297203080E0380780E0EC
:1033F000480780E4580758F314962D933D934D9356
:103400005C93179708952F3F310579F441155105C5
:103410006105710519F484E08C93089564FF03C07D
:1034200081E08C9312C01C9210C02F57304013962D
:103430003C932E93129783E08C9387E0440F551FA3
:10344000661F771F8A95D1F7706414964D935D932C
:103450006D937C93179708951F93DC01FB019C915A
:10346000923008F447C08081823008F443C0943021
:1034700051F411961C91843099F58181682F70E088
:10348000611B71093FC0843021F0923031F48230E9
:10349000B9F18181882389F12DC011961C91119772
:1034A0008230F1F081811817D9F412962D913C9158
:1034B0001397828193818217930794F02817390715
:1034C000BCF014968D919D910D90BC91A02D2481FE
:1034D000358146815781281739074A075B0718F459
:1034E000112341F00AC082179307A407B50740F4DF
:1034F000112319F061E070E005C06FEF7FEF02C0AB
:1035000060E070E0CB011F910895DF92EF92FF928F
:103510000F931F93D72E7A018C01FA010995C801E8
:1035200001966D2DF70109951F910F91FF90EF9076
:10353000DF900895AA1BBB1B51E107C0AA1FBB1F48
:10354000A617B70710F0A61BB70B881F991F5A952F
:10355000A9F780959095BC01CD01089597FB092EA0
:1035600005260ED057FD04D014D00AD0001C38F424
:1035700050954095309521953F4F4F4F5F4F08959F
:10358000F6F790958095709561957F4F8F4F9F4F7F
:103590000895A1E21A2EAA1BBB1BFD010DC0AA1F94
:1035A000BB1FEE1FFF1FA217B307E407F50720F0AC
:1035B000A21BB30BE40BF50B661F771F881F991F27
:1035C0001A9469F760957095809590959B01AC0170
:1035D000BD01CF0108952F923F924F925F926F925B
:1035E0007F928F929F92AF92BF92CF92DF92EF9293
:1035F000FF920F931F93CF93DF93CDB7DEB7CA1B14
:10360000DB0B0FB6F894DEBF0FBECDBF09942A883E
:10361000398848885F846E847D848C849B84AA84E6
:10362000B984C884DF80EE80FD800C811B81AA8173
:10363000B981CE0FD11D0FB6F894DEBF0FBECDBF3E
:10364000ED01089511F40EF44DC03EC05DD0D0F3ED
:103650009923D9F3CEF39F57550B87FF46D000240B
:10366000A0E640EA900180585695979528F4805C32
:10367000660F771F881F20F026173707480730F49A
:10368000621B730B840B202931294A2BA6951794B2
:103690000794202531254A2758F7660F771F881F82
:1036A00020F026173707480730F4620B730B840BA2
:1036B000200D311D411DA09581F7B901842F91582E
:1036C000880F9695879508959F3F31F0915020F48B
:1036D000879577956795B795880F911D96958795EE
:1036E00097F908959FEF80EC089591505040660F30
:1036F000771F881FD2F7089557FD9058440F551F24
:1037000059F05F3F71F04795880F97FB991F61F063
:103710009F3F79F087950895121613061406551FDA
:10372000F2CF4695F1DF08C0161617061806991F46
:10373000F1CF86957105610508940895F894FFCF3F
:103740000100FFFF5A01020000000000000000001D
:103750000102020303030304040404040404040533
:103760000505050505050505050505050505050608
:1037700006060606060606060606060606060606E9
:1037800006060606060606060606060606060607D8
:1037900007070707070707070707070707070707B9
:1037A00007070707070707070707070707070707A9
:1037B0000707070707070707070707070707070799
:1037C0000707070707070707070707070707070888
:1037D0000808080808080808080808080808080869
:1037E0000808080808080808080808080808080859
:1037F0000808080808080808080808080808080849
:103800000808080808080808080808080808080838
:103810000808080808080808080808080808080828
:103820000808080808080808080808080808080818
:103830000808080808080808080808080808080808
:103840000808080808080808080808080808080000
:00000001FF
