:100000000C947E000C949D000C949D000C949D001B
:100010000C949D000C949D000C949D000C949D00EC
:100020000C949D000C949D000C949D000C94E30096
:100030000C949D000C949D000C949D000C949D00CC
:100040000C949D000C949D000C949D000C949D00BC
:100050000C949D000C949D000C949D000C949D00AC
:100060000C949D000C949D000C949D000C949D009C
:100070000C949D000C949D000C949D000C949D008C
:100080000C949D000C949D000C949D00BE0BBE0B27
:10009000BE0BBE0BBE0BBC0BBE0BC20BBE0BBC0B18
:1000A000BE0BBC0BBE0BBC0BBE0BBE0BBE0BBE0B0C
:1000B000BE0BBC0BBE0BC20BBE0BBE0BBE0BC00BF4
:1000C000BC0BBE0BD00CF30CB00D1E11ED0C1E11B1
:1000D000190F4B0EAA0DF60D1E111E11980D9F0D36
:1000E0001E11CB0CC40CC80C2F0E380E8B0F081031
:1000F000DA10DC10E810740C440EFD0B11241FBE46
:10010000CFEFD0E4DEBFCDBF11E0A0E0B1E0E6E884
:10011000F6E300E00BBF02C007900D92AA30B107D2
:10012000D9F716E3AAE0B1E001C01D92AF30B107E4
:10013000E1F70E942F020C94411B0C9400000F93D6
:100140001F93CF93DF93EC018B0182E590E0689FD2
:10015000F001699FF00D789FF00D1124E252F74FE6
:1001600040E050E020E030E080819181480F591F4D
:100170002F5F3F4F82819381819391932832310584
:1001800099F7CA0168E270E00E94F01A9B0182E5CB
:1001900090E0089FF001099FF00D189FF00D1124C9
:1001A000E25DF64FD183C0836C177D0720F4BE015A
:1001B000621B730B02C06C1B7D0BCB01DF91CF91D7
:1001C0001F910F9108951F920F920FB60F920BB6C9
:1001D0000F9211241F932F933F934F935F936F932D
:1001E0007F938F939F93AF93BF93EF93FF930E945F
:1001F000401A909130018823C9F0992309F01BC15E
:10020000109219011092180110921B0110921A01FC
:10021000109211011092100110921301109212010C
:100220000E94BA1981E08093300105C1992321F021
:100230000E94AF191092300180912801882301F5A6
:100240002091D5353091D6352F5F3F4F3093D6353D
:100250002093D5359091060185E0989FC001112427
:100260002817390719F40E94111A0AC00A9628178C
:10027000390731F40E94191A1092D6351092D535EB
:1002800090912C01992389F48091070180932C018E
:1002900080914A018093B20011E010931E01809179
:1002A0004C01882309F050C00DC0913019F48091A1
:1002B0004B0102C080914A018093B200915090930B
:1002C0002C01B9C080914D0190914E01A0914F0138
:1002D000B09150010196A11DB11D80934D019093E5
:1002E0004E01A0934F01B09350010E94C71988237B
:1002F00029F410922F0110921D019DC080912F01B1
:10030000882311F410932F012091590130915A0143
:1003100040915B0150915C01809155019091560193
:10032000A0915701B091580182179307A407B50710
:1003300041F020935501309356014093570150935B
:1003400058010E94820B77C0823009F074C08091FE
:10035000F335882399F08091550190915601A09131
:100360005701B09158010197A109B1098093550136
:1003700090935601A0935701B093580180914D017D
:1003800090914E01A0914F01B09150010196A11D95
:10039000B11D80934D0190934E01A0934F01B093F6
:1003A00050010E94C719882301F510921D01809108
:1003B000290190912A0127E08830920730F40196B4
:1003C00090932A018093290136C08850974099F56F
:1003D0000E94AF1989E097E090932A018093290148
:1003E00080E29EE40197F1F726C08091F3358823DF
:1003F000E9F02091590130915A0140915B015091EF
:100400005C018091550190915601A0915701B091E6
:10041000580182179307A407B50741F020935501AF
:100420003093560140935701509358010E94820B1C
:1004300081E080932801FF91EF91BF91AF919F914F
:100440008F917F916F915F914F913F912F911F916C
:100450000F900BBE0F900FBE0F901F9018956F92CC
:100460007F928F929F92AF92BF92CF92DF92EF9244
:10047000FF920F931F93CF93DF930E94401A88231C
:10048000A1F020E030E040E157E20CC0FA013197E2
:10049000F1F70196883C9105C9F72F5F3F4F2A304D
:1004A000310519F080E090E0F1CF1092D83510922C
:1004B000D7351092D5091092D4091092D8090E940C
:1004C000AD11809106012CE3829FC001112490930D
:1004D0000D0180930C018091640081608093640021
:1004E00080916400846080936400809164008062E5
:1004F00080936400809164008860809364008091A0
:10050000640080688093640070E1872E77E2972E04
:1005100066246A94762C80911E01882309F40AC708
:10052000809164008E7F809364000E94D9141092A1
:100530001E0180E00E944F1590934101809340017D
:1005400081E00E944F15909343018093420182E025
:100550000E944F159093450180934401C090DA3575
:10056000D090DB35E090DC35F090DD3580914001B6
:100570009091410160E070E00E949F005C018091D9
:1005800042019091430161E070E00E949F008C0164
:10059000809144019091450162E070E00E949F00CB
:1005A0000A0D1B1D080F191FB80180E090E06C0DAB
:1005B0007D1D8E1D9F1D6093DA357093DB35809312
:1005C000DC359093DD3520914D0130914E01409105
:1005D0004F0150915001293231054105510508F470
:1005E00085C020910001309101012115310509F0EC
:1005F00076C028E130E040E050E00E94041BC901D1
:10060000DA01E0911801F0911901803020E09207A1
:1006100021E0A20720E0B20738F0EE0FFF1FE35AF7
:10062000FE4F7182608206C0EE0FFF1FE35AFE4F3D
:10063000918380831092DA351092DB351092DC358D
:100640001092DD35809118019091190101969093D7
:10065000190180931801805C934021F410921901D4
:1006600010921801809110019091110101969093C0
:10067000110180931001209118013091190180918E
:100680001A0190911B0128173907B1F4C90101968D
:1006900090931B0180931A01805C934021F4109287
:1006A0001B0110921A018091120190911301019681
:1006B0009093130180931201E0911801F0911901B8
:1006C000EE0FFF1FE35AFE4F1182108280910C0142
:1006D00090910D01909301018093000114C021506D
:1006E000304030930101209300010DC028323105C4
:1006F0004105510541F41092DA351092DB35109224
:10070000DC351092DD358091D809813039F18130A6
:1007100030F08230D1F1833009F076C056C080913C
:10072000D4099091D509FC0134E0EE0FFF1F3A95F2
:10073000E1F7E81BF90BE352F64F809140019091ED
:100740004101969587959695879580838091400184
:100750008295880F880F807C818356C08091D40950
:100760009091D509FC0104E0EE0FFF1F0A95E1F717
:10077000E81BF90BE352F64F909141018381892BDD
:1007800083838091400184833FC08091D4099091FC
:10079000D509FC0114E0EE0FFF1F1A95E1F7E81BE5
:1007A000F90BE352F64F8091400190914101B6E080
:1007B00096958795BA95E1F72781282B2783809115
:1007C0004001880F880F80871FC08091D4099091C5
:1007D000D509FC01A4E0EE0FFF1FAA95E1F7E81B85
:1007E000F90BE352F64F809140019091410174E082
:1007F000969587957A95E1F72385282B2387809115
:1008000040018295807F84878091D809813049F1A9
:10081000813038F0823009F443C0833009F076C06B
:1008200056C08091D4099091D509FC0164E0EE0F87
:10083000FF1F6A95E1F7E81BF90BE352F64F809131
:1008400042019091430154E0969587955A95E1F7BE
:100850002181282B2183809142018295807F828390
:1008600055C08091D4099091D509FC0144E0EE0F68
:10087000FF1F4A95E1F7E81BF90BE352F64F809111
:10088000420190914301969587959695879585832A
:10089000809142018295880F880F807C868336C0C4
:1008A0008091D4099091D509FC0124E0EE0FFF1F3F
:1008B0002A95E1F7E81BF90BE352F64F90914301BB
:1008C0008085892B80878091420181871FC080911C
:1008D000D4099091D509FC0104E0EE0FFF1F0A95A1
:1008E000E1F7E81BF90BE352F64F8091420190913A
:1008F000430116E0969587951A95E1F72485282BF4
:10090000248780914201880F880F85878091D809BC
:10091000813049F1813038F0823009F444C08330AD
:1009200009F076C05FC08091D4099091D509FC018F
:10093000B4E0EE0FFF1FBA95E1F7E81BF90BE352A5
:10094000F64F8091440190914501A6E096958795D8
:10095000AA95E1F72281282B228380914401880FF8
:10096000880F838355C08091D4099091D509FC01EB
:1009700074E0EE0FFF1F7A95E1F7E81BF90BE352E5
:10098000F64F809144019091450164E096958795DA
:100990006A95E1F72681282B268380914401829570
:1009A000807F878335C08091D4099091D509FC015F
:1009B00054E0EE0FFF1F5A95E1F7E81BF90BE352E5
:1009C000F64F8091440190914501969587959695B3
:1009D00087958287809144018295880F880F807C5B
:1009E000838716C08091D4099091D509FC0134E029
:1009F000EE0FFF1F3A95E1F7E81BF90BE352F64FB4
:100A0000909145018585892B858780914401868752
:100A10008091D8098F5F8093D809843010F01092AC
:100A2000D80980914C019091D809882309F0B2C16E
:100A3000913051F0913008F4BEC0923009F444C0B6
:100A4000933009F0FAC07BC08091D4099091D50908
:100A5000FC0124E0EE0FFF1F2A95E1F7E81BF90BDC
:100A6000E352F64F4181242F229526952695237037
:100A700030E0808190E0880F991F880F991F282B04
:100A8000392B309341012093400150E04F73507057
:100A900014E0440F551F1A95E1F72281822F8295A9
:100AA0008F7090E0482B592B5093430140934201A3
:100AB00030E02F703070B6E0220F331FBA95E1F7A7
:100AC000838186958695B2C08091D4099091D5098D
:100AD000FC01A4E0EE0FFF1FAA95E1F7E81BF90B5C
:100AE000E352F64F838190E083709070982F8827AF
:100AF000248130E0822B932B90934101809340011D
:100B00002681422F429546954695437050E0858157
:100B100090E0880F991F880F991F482B592B5093ED
:100B200043014093420130E02F73307054E0220FB4
:100B3000331F5A95E1F7878182958F7077C0809136
:100B4000D4099091D509FC0144E0EE0FFF1F4A95AE
:100B5000E1F7E81BF90BE352F64F2085422F46954B
:100B6000469550E0878190E08F70907036E0880F56
:100B7000991F3A95E1F7482B592B50934101409327
:100B8000400130E023703070322F2227818590E0C1
:100B9000282B392B30934301209342012385229542
:100BA00026952695237030E0828590E0880F991F66
:100BB000880F991F3CC08091D4099091D509FC0100
:100BC000B4E0EE0FFF1FBA95E1F7E81BF90BE35213
:100BD000F64F4485242F22952F7030E0838590E0D6
:100BE0008F739070A4E0880F991FAA95E1F7282BC6
:100BF000392B309341012093400150E04F705070E9
:100C000076E0440F551F7A95E1F72585822F86956A
:100C1000869590E0482B592B509343014093420115
:100C200030E023703070322F2227868590E0282B09
:100C3000392B309345012093440180912F0181305D
:100C400029F40E94090A82E080932F01E09040017C
:100C5000F09041010091420110914301C091440183
:100C6000D091450180911D01882309F47EC0109226
:100C7000DF352091D6093091D7092E153F0558F45C
:100C800081E08093DF35C701821B930B9093D709D6
:100C90008093D60906C02E193F093093D7092093B7
:100CA000D6092091DB093091DC092017310768F45F
:100CB0008091DF3582608093DF35C801821B930B02
:100CC0009093DC098093DB0906C0201B310B309325
:100CD000DC092093DB092091CF353091D0352C17DA
:100CE0003D0768F48091DF3584608093DF35CE0165
:100CF000821B930B9093D0358093CF3506C02C1B6D
:100D00003D0B3093D0352093CF35A091D609B091CB
:100D1000D709A032B10518F5E091DB09F091DC09A3
:100D2000E032F105E0F42091CF353091D03520321A
:100D30003105A8F44091DF35842F81708295880FAA
:100D4000807E642F62706295607F6E2B4470440FCA
:100D5000440F440F422B8A2B0E940D0B0EC0C7017B
:100D6000B801AE010E943B0B08C0C701B801AE013B
:100D70000E943B0B81E080931D01F092D709E09225
:100D8000D6091093DC090093DB09D093D035C093CA
:100D9000CF35ABC2992369F480911F019091200156
:100DA00022E08E3E920728F40196909320018093D2
:100DB0001F0180912801882309F497C20E94111A0B
:100DC00081E080931C0110924701109246018091AE
:100DD0004C01882309F49FCBC0E0D0E08FEF0E9444
:100DE000E1192196C436D105C9F70E941B0A0E9459
:100DF000090A80911F01909120018150904C880F29
:100E0000991F880F991F0E94F20A0E94610A80911F
:100E10001F019091200101978D5E924008F000C162
:100E20000DED19E0E801EE24FF24E3C06981862F6F
:100E3000829586958695837090E0F801208130E058
:100E4000220F331F220F331F822B932B90934101CC
:100E50008093400170E06F73707024E0660F771F1D
:100E60002A95E1F74A81242F22952F7030E0622BDA
:100E7000732B709343016093420150E04F705070A8
:100E8000B6E0440F551FBA95E1F72B8126952695BC
:100E900030E0422B532B50934501409344010E9474
:100EA0003B0B8B8190E083709070982F88272C816A
:100EB00030E0822B932B90934101809340014E812F
:100EC000642F629566956695637070E02D8130E0C1
:100ED000220F331F220F331F622B732B709343019A
:100EE0006093420150E04F735070E4E0440F551F8F
:100EF000EA95E1F72F8122952F7030E0422B532B9A
:100F000050934501409344010E943B0B6885862F16
:100F10008695869590E02F8130E02F70307046E006
:100F2000220F331F4A95E1F7822B932B90934101B7
:100F30008093400170E063707070762F662729857A
:100F400030E0622B732B70934301609342014B8519
:100F5000429546954695437050E02A8530E0220F31
:100F6000331F220F331F422B532B509345014093C5
:100F700044010E943B0B6C85862F82958F7090E018
:100F80002B8530E02F733070A4E0220F331FAA9519
:100F9000E1F7822B932B909341018093400170E005
:100FA0006F707070F6E0660F771FFA95E1F74D8568
:100FB000242F2695269530E0622B732B70934301E6
:100FC0006093420150E043705070542F44272E85A7
:100FD00030E0422B532B50934501409344010E9433
:100FE0003B0B0E94820B0894E11CF11C015F1F4F18
:100FF0002F9620911F0130912001C9010197E81619
:10100000F90608F413CF2115310509F43EC1F901A1
:1010100054E0EE0FFF1F5A95E1F7E21BF30B06C1F8
:10102000E090D409F090D509E7012196F2E0CE3E98
:10103000DF070CF4EFC0C0E0D0E0ECC08F010C1B68
:101040001D0B0352164FF8016181862F82958695FC
:101050008695837090E0208130E0220F331F220FAD
:10106000331F822B932B909341018093400170E0BA
:101070006F737070B4E0660F771FBA95E1F7428125
:10108000242F22952F7030E0622B732B7093430135
:101090006093420150E04F705070A6E0440F551F1E
:1010A000AA95E1F723812695269530E0422B532B14
:1010B00050934501409344010E943B0BF80183810A
:1010C00090E083709070982F8827248130E0822BE5
:1010D000932B90934101809340014681642F629548
:1010E00066956695637070E0258130E0220F331FAE
:1010F000220F331F622B732B7093430160934201C5
:1011000050E04F73507024E0440F551F2A95E1F7CB
:10111000278122952F7030E0422B532B50934501AD
:10112000409344010E943B0BF8016085862F869511
:10113000869590E0278130E02F703070B6E0220F66
:10114000331FBA95E1F7822B932B90934101809343
:10115000400170E063707070762F6627218530E063
:10116000622B732B70934301609342014385429538
:1011700046954695437050E0228530E0220F331F9C
:10118000220F331F422B532B5093450140934401B0
:101190000E943B0BF8016485862F82958F7090E04A
:1011A000238530E02F73307044E0220F331F4A95BF
:1011B000E1F7822B932B909341018093400170E0E3
:1011C0006F70707036E0660F771F3A95E1F74585CE
:1011D000242F2695269530E0622B732B70934301C4
:1011E0006093420150E043705070542F442726858D
:1011F00030E0422B532B50934501409344010E9411
:101200003B0B2196F2E0CE3EDF0711F4C0E0D0E0C8
:101210000E94820BFE0184E0EE0FFF1F8A95E1F72A
:10122000CE15DF0509F00ACFEC1BFD0BE352F64F9C
:1012300080818093DD0981818093DE0982818093A2
:10124000DF0983818093E00984818093E1098581AE
:101250008093E20986818093E30987818093E40982
:1012600080858093E50981858093E6098285809356
:10127000E70983858093E80984858093E90985855A
:101280008093EA0986858093EB09109220011092E1
:101290001F011092D5091092D409109222011092C8
:1012A00021010AC0F4013197F1F7019690932201D0
:1012B000809321010E94820B809121019091220153
:1012C00021E08039920770F380914C01882319F452
:1012D0000E94AF1902C00E94BA19109235011092F3
:1012E0002A01109229010E94191A0E94DF1480918C
:1012F00064008160809364008091D809882369F438
:1013000080912801882349F48091D4099091D509CE
:1013100001969093D5098093D4098091D409909136
:10132000D5098E5E924021F41092D5091092D4090D
:1013300010922801F89483B7817F83BF83B78160BF
:1013400083BF85B7806685BF8F7D85BF789488957C
:1013500083B78E7F83BFDFC89C01F999FECF32BD72
:1013600021BDF89A80B508959C01F999FECF1FBA66
:1013700032BD21BD60BD0FB6F894FA9AF99A0FBE3E
:1013800008952091060130E040E050E064E87EE1FD
:1013900080E090E00E94261B922F909581E0213002
:1013A000380748F010924A01832F8F5F809307011E
:1013B00090934B01089590934A01109207018FEF8B
:1013C00080934B01089521E030E002C0220F331FCB
:1013D0008A95E2F780914901822B80934901089513
:1013E00021E030E002C0220F331F8A95E2F72095FA
:1013F00080914901822380934901089520914901F8
:1014000030E002C0359527958A95E2F7822F8170EA
:10141000089588EC8093053680914C018770829501
:10142000807F8093063688EC0E94E1198091063611
:101430000E94E119089585EC80930536809106019C
:101440008F778093063685EC0E94E11980910636ED
:101450000E94E119089520ED209305369C01220F8A
:10146000232F221F330B31952F77209306368F774A
:101470008093073680ED0E94E119809106360E9424
:10148000E119809107360E94E11908952FEC20930D
:1014900005369C01220F232F221F330B31952F7706
:1014A000209306368F77809307368FEC0E94E119E0
:1014B000809106360E94E119809107360E94E11959
:1014C0000895EF92FF920F931F93CF93DF930091B4
:1014D000120110911301809118019091190120912E
:1014E0001A0130911B012817390710F080549C4FC6
:1014F000821B930B0E94460A80910C0190910D0172
:101500002091000130910101821B930B0E942B0A54
:10151000C0911A01D0911B01FF24EDECEE2E53C0B7
:10152000FE01EE0FFF1FE35AFE4F20813181E09252
:101530000536812F869580930636C8019695879546
:10154000969587958F7780930736802F8370829545
:10155000880F807E932F969596959695892B8093EC
:101560000836C90154E0969587955A95E1F78F772B
:10157000809309362F70220F220F20930A368DECAC
:101580000E94E119809106360E94E1198091073688
:101590000E94E119809108360E94E1198091093674
:1015A0000E94E11980910A360E94E119219683E098
:1015B000C03CD80711F4C0E0D0E0F3948AE0F816FC
:1015C00051F00F5F1F4F8091180190911901C817BA
:1015D000D90709F0A5CFDF91CF911F910F91FF900F
:1015E000EF9008952CEC209305369C01220F232FB9
:1015F000221F330B31952F77209306368F778093F8
:1016000007368CEC0E94E119809106360E94E119A0
:10161000809107360E94E1190895FF920F931F935E
:10162000DF93CF930F92CDB7DEB7082FF42E8695B8
:10163000806E8093053669830E94E11910E0017085
:101640001070A6E0000F111FAA95E1F799819F7312
:10165000902B90930636892F0E94E119FF0CF0928F
:1016600007368F2D0E94E1190F90CF91DF911F91C6
:101670000F91FF900895CF92DF92EF92FF920F9318
:101680001F938C017B016A01812F83708068809396
:1016900005360E94E119C801969587958F7780934A
:1016A00006360E94E119C70114E0969587951A95B0
:1016B000E1F78F730295000F000F0074802B809369
:1016C00007360E94E119C601880F892F881F990BE0
:1016D00091958770EE0CEE0CEE0C98E7E9228E29BE
:1016E000809308360E94E1198FE7C822C09209361C
:1016F0008C2D0E94E1191F910F91FF90EF90DF90C8
:10170000CF900895EF92FF920F931F93DF93CF93A3
:101710000F92CDB7DEB790913501992329F08091D2
:101720003601981708F042C0CE0101960E94D119E7
:101730008823E1F180913501E82FF0E0E550FA4C83
:10174000998190838F5F80933501892F829586954B
:101750008770853059F5892F8F718093F435E82F84
:10176000F0E0EC31F10588F4EA5BFF4FEE0FFF1F6C
:101770000590F491E02D099482E005C081E003C05A
:1017800085E001C08AE08093360181E080933501D5
:101790001092380110923701109239018FEF9FEFAC
:1017A000909305018093040110923A0180913501D4
:1017B000882349F0809137019091380101969093E8
:1017C00038018093370190913501992309F44EC572
:1017D00080913601981709F049C58091F435E82FBA
:1017E000F0E0EC31F10508F029C5EE59FF4FEE0F9E
:1017F000FF1F0590F491E02D099420914D01309147
:101800004E0140914F0150915001809151019091B2
:101810005201A0915301B091540179018A01E81A53
:10182000F90A0A0B1B0BD801C701895E9340A0403F
:10183000B04008F4A4C0209351013093520140936A
:101840005301509354014091120150911301CA0168
:101850000A96909315018093140120911001309104
:1018600011012817390708F48AC08417950709F46D
:1018700086C0281B390B30931701209316018091E5
:101880001801909119018217930710F480549C4F0E
:10189000821B930B90931B0180931A01809114017A
:1018A0009091150190931301809312010E94281AC0
:1018B00080E090E020E23EE4F9013197F1F70196F3
:1018C00080359105C9F70E94301A809146019091A8
:1018D000470101969093470180934601029708F4CF
:1018E0004EC00E94281A4BC09091FD35892F8295D9
:1018F0008695869581703091FC35330F382B309367
:101900004A012091FE35822F829586958370990F2A
:10191000990F982B909307018091FF3582958770DE
:10192000220F220F220F282B20934B01F999FECF73
:101930001FBA83E090E092BD81BD30BD0FB6F89430
:10194000FA9AF99A0FBE30910701F999FECF1FBAA2
:1019500084E090E092BD81BD30BD0FB6F894FA9A54
:10196000F99A0FBEF999FECF1FBA85E090E092BDBB
:1019700081BD20BD0FB6F894FA9AF99A0FBE8091F6
:101980003501809339015AC481E080933B01F7CF40
:1019900010923B01F4CF10923D0110923C01EFCF29
:1019A00087E00E944F1590933F0180933E0120EC09
:1019B0002093FB359C0113E0369527951A95E1F7A6
:1019C0002093FC3587708295807F8093FD358091D0
:1019D00035018093390183E02FC483EC8093FB357C
:1019E0008091080141C187E00E944F159C01409100
:1019F000E9355091EA354817590738F484E690E004
:101A000090933F0180933E018DC06091F7357091B6
:101A1000F83568177907A0F4261B370B461B570BC0
:101A200084E190E0BC01269FC001279F900D369F66
:101A3000900D1124BA010E94F01A605B7F4F19C00B
:101A40004091F1355091F23548175907B8F4241BED
:101A5000350B641B750B84E190E07C012E9DC00169
:101A60002F9D900D3E9D900D11240E94F01A645CF4
:101A70007F4F70933F0160933E0154C06091EF35FA
:101A80007091F03568177907A0F4261B370B461BB9
:101A9000570B84E190E08C01209FC001219F900DA5
:101AA000309F900D1124BA010E94F01A685D7F4F9B
:101AB000E0CFE091E535F091E635E817F90798F4C5
:101AC0002E1B3F0B6E1B7F0B84E190E0AC01249F2B
:101AD000C001259F900D349F900D11240E94F01A93
:101AE0006C5E7F4FC6CF4091F5355091F635481763
:101AF0005907A0F4841B950B9C01B3E0220F331F00
:101B0000BA95E1F7E41BF50B880F991F820F931F1D
:101B1000BF010E94F01A665F7F4FABCF10923F016A
:101B200010923E0181EC8093FB3580913E0105C00F
:101B300087EC8093FB358091F3358F7741C32091FB
:101B4000FC352F772093F335F999FECF1FBA80E249
:101B500090E00DCF85EC8093FB3580910601EDCFB1
:101B600082EC8093FB3520914D0130914E014091E4
:101B70004F0150915001DA01C901E9E1B695A795ED
:101B800097958795EA95D1F78093FC35DA01C901DD
:101B900072E1B695A795979587957A95D1F78F7746
:101BA0008093FD35DA01C9016BE0B695A79597954D
:101BB00087956A95D1F78F778093FE3594E0569597
:101BC0004795379527959A95D1F72F772093FF352D
:101BD00080914D018F70880F880F880F8093003699
:101BE000809135018093390186E026C38091FC35D0
:101BF0008F77809306010E94C10920910601F9990F
:101C0000FECF1FBA82E090E092BD81BD20BD0FB62D
:101C1000F894FA9AF99A0FBE20914A01F999FECFE9
:101C20001FBA83E090E092BD81BD20BD0FB6F8944D
:101C3000FA9AF99A0FBE20910701F999FECF1FBABF
:101C400084E090E092BD81BD20BD0FB6F894FA9A71
:101C5000F99A0FBE20914B01F999FECF85CE88EC01
:101C60008093FB3580914C0187708295807FA8C25C
:101C70002091FC352295277020934C01F999FECFD5
:101C80001FBA86E090E073CE8091FC358295877014
:101C900080934C0174CEF999D1C287E00E944F1510
:101CA0008855924008F4CAC26091FD3570E06077B3
:101CB000707084E0769567958A95E1F78091FC35A0
:101CC00090E08F77907003E0880F991F0A95E1F7F5
:101CD000682B792B7093E2356093E13584E190E0D5
:101CE00044EB59E00E94BC1A6091FE3570E06E77BB
:101CF0007070769567958091FD3590E08F7090704B
:101D0000B6E0880F991FBA95E1F7682B792B70938D
:101D1000E4356093E33586E190E044EB59E00E94BE
:101D2000BC1A6091FF3570E06F777070660F771F97
:101D3000660F771F8091FE3590E081709070982F2C
:101D40008827990F682B792B8091003690E0807658
:101D50009070E5E096958795EA95E1F7682B792BE9
:101D60007093FA356093F93588E190E044EB59E0DF
:101D70000E94BC1A6091013670E06C7770707695A5
:101D80006795769567958091003690E08F71907099
:101D900045E0880F991F4A95E1F7682B792B7093DE
:101DA000E8356093E7358AE190E044EB59E00E9422
:101DB000BC1A6091023670E0660F771F70708091D8
:101DC000013690E083709070982F8827682B792BCC
:101DD0008091033690E08074907006E09695879528
:101DE0000A95E1F7682B792B7093EE356093ED350A
:101DF0008CE190E044EB59E00E94BC1A80910336DC
:101E000090E0BC016877707013E0769567951A953D
:101E1000E1F78F739070B4E0880F991FBA95E1F7DE
:101E2000682B792B7093EC356093EB358EE190E065
:101E3000BCC184EC8093FB358091E1359091E23513
:101E4000A3E096958795AA95E1F78F778093FC3567
:101E50002091E135229520778091E3359091E4350A
:101E6000F6E096958795FA95E1F78F70822B80932F
:101E7000FD359091E335990F9E778091FA358695DF
:101E80008170892B8093FE358091F9359091FA35D8
:101E900096958795969587958F778093FF352091B6
:101EA000F9352295220F20768091E7359091E8351B
:101EB00075E0969587957A95E1F78F71822B8093DF
:101EC00000369091E735990F990F9C778091EE3508
:101ED0008370892B809301368091ED359091EE359A
:101EE000969587958F77809302362091ED352295D0
:101EF000220F220F20748091EB359091EC3554E045
:101F0000969587955A95E1F78F73822B80930336C8
:101F10008091EB3571C089EC8093FB358091E93578
:101F20009091EA3543E0969587954A95E1F78F774A
:101F30008093FC352091E935229520778091F73503
:101F40009091F83536E0969587953A95E1F78F7040
:101F5000822B8093FD359091F735990F9E77809174
:101F6000F23586958170892B8093FE358091F1350D
:101F70009091F23596958795969587958F77809372
:101F8000FF352091F1352295220F20768091EF3593
:101F90009091F03505E0969587950A95E1F78F7158
:101FA000822B809300369091EF35990F990F9C7793
:101FB0008091E6358370892B809301368091E535D9
:101FC0009091E635969587958F778093023620918C
:101FD000E5352295220F220F20748091F5359091DE
:101FE000F635B4E096958795BA95E1F78F73822B15
:101FF000809303368091F535880F880F880F887796
:102000008093043680913501809339018AE014C1B0
:10201000F99914C187E00E944F158855924008F441
:102020000DC16091FD3570E060777070A4E0769529
:102030006795AA95E1F78091FC3590E08F779070D5
:10204000F3E0880F991FFA95E1F7682B792B7093CD
:10205000EA356093E93588E090E044EB59E00E946E
:10206000BC1A6091FE3570E06E777070769567955A
:102070008091FD3590E08F70907056E0880F991F29
:102080005A95E1F7682B792B7093F8356093F73503
:102090008AE090E044EB59E00E94BC1A6091FF3561
:1020A00070E06F777070660F771F660F771F8091F3
:1020B000FE3590E081709070982F8827990F682BDB
:1020C000792B8091003690E08076907025E096958F
:1020D00087952A95E1F7682B792B7093F2356093F9
:1020E000F1358CE090E044EB59E00E94BC1A60911D
:1020F000013670E06C777070769567957695679588
:102100008091003690E08F71907005E0880F991FE4
:102110000A95E1F7682B792B7093F0356093EF35D2
:102120008EE090E044EB59E00E94BC1A60910236C8
:1021300070E0660F771F70708091013690E08370B9
:102140009070982F8827682B792B8091033690E028
:1021500080749070A6E096958795AA95E1F7682B14
:10216000792B7093E6356093E53580E190E044EBA0
:1021700059E00E94BC1A8091033690E0BC01687758
:102180007070F3E076956795FA95E1F78F7390702C
:10219000E4E0880F991FEA95E1F7682B792B70939B
:1021A000F6356093F53582E190E044EB59E00E940A
:1021B000BC1AE5CB8AEC01C08BEC8093FB3583E045
:1021C0008093FC35809135018093390182E034C0E1
:1021D0008EEC8093FB3580914A01282F2695209321
:1021E000FC3590E08170907056E0880F991F5A95E9
:1021F000E1F720910701422F46954695482B4093E1
:10220000FD3530E02370307045E0220F331F4A95D2
:10221000E1F790914B01892F869586958695822BC3
:102220008093FE3597709295907F9093FF358091C3
:1022300035018093390185E080933A01909139010D
:1022400080913501981759F500E010E008C0F801B9
:10225000E550FA4C80810E94E1190F5F1F4F809179
:102260003A0190E00817190794F307C080913701ED
:10227000909138018F3F910590F0109236011092A5
:1022800035011092380110923701109239018FEF09
:102290009FEF909305018093040110923A010F90F3
:1022A000CF91DF911F910F91FF90EF900895809152
:1022B0003B01882339F580913C0190913D010196C5
:1022C00090933D0180933C018A5A9A4030F00E94DD
:1022D0005A1710923D0110923C0182E00E944F1566
:1022E000909341018093400181E00E944F159093AB
:1022F00043018093420180E00E944F159093450175
:1023000080934401089580913B01882329F58091B1
:102310003C0190913D01019690933D0180933C01D9
:102320008A5A9A4030F00E945A1710923D0110923A
:102330003C0180914001909141018050944060F0B7
:1023400010924101109240011092430110924201FB
:1023500010924501109244010895EF92FF920F935D
:102360001F93CF93DF930E94EB1586E00E94F51533
:102370008AE08093E03587E00E944F158C0142E0AF
:102380008C3B940718F5C0E0D0E080E1E82E87E2AE
:10239000F82E0E94281A80E090E0F7013197F1F7BB
:1023A0000196883C9105C9F70E94301A80E090E0C0
:1023B000F7013197F1F70196883C9105C9F721960D
:1023C000C330D10531F70536110570F0F999FECF0C
:1023D000C0E0D0E0D2BDC1BDF89A80B5809348017D
:1023E000853209F0ECC00FC00E94281A80E090E00E
:1023F00020E137E2F9013197F1F7019643E0883E99
:102400009407C1F760C20D52114008F4C8C0F99991
:10241000FECF82E090E092BD81BDF89A80B58093B6
:102420000601F999FECF81E090E092BD81BDF89A56
:1024300080B580934901F999FECF86E090E092BD86
:1024400081BDF89A80B580934C01F999FECF87E061
:1024500090E092BD81BDF89A80B580930801F9990A
:10246000FECF83E090E092BD81BDF89A80B5809365
:102470004A01F999FECF84E090E092BD81BDF89ABF
:1024800080B580930701F999FECF85E090E092BD79
:1024900081BDF89A80B580934B0188E090E06CEAAA
:1024A00079E00E94A61A9093EA358093E9358AE094
:1024B00090E06CEA79E00E94A61A9093F835809338
:1024C000F7358CE090E06CEA79E00E94A61A9093D0
:1024D000F2358093F1358EE090E06CEA79E00E946D
:1024E000A61A9093F0358093EF3580E190E06CEA86
:1024F00079E00E94A61A9093E6358093E53582E153
:1025000090E06CEA79E00E94A61A9093F6358093E9
:10251000F53584E190E06CEA79E00E94A61A909388
:10252000E2358093E13586E190E06CEA79E00E9443
:10253000A61A9093E4358093E33588E190E06CEA45
:1025400079E00E94A61A9093FA358093F9358AE1D2
:1025500090E06CEA79E00E94A61A9093E8358093A7
:10256000E7358CE190E06CEA79E00E94A61A90933E
:10257000EE358093ED358EE190E06CEA79E00E94D3
:10258000A61A9093EC358093EB35F999FECF80E253
:1025900090E092BD81BDF89A80B58093F3350E949A
:1025A000111A80E090E020E137E2F9013197F1F76C
:1025B0000196883C9105C9F70E94191A57C188E213
:1025C0008093060110924C010D52114008F421C174
:1025D000F999FECF1FBA82E090E092BD81BD88E2FA
:1025E00080BD0FB6F894FA9AF99A0FBE0E94C109FD
:1025F00020914A01F999FECF1FBA83E090E092BD85
:1026000081BD20BD0FB6F894FA9AF99A0FBE2091B9
:102610000701F999FECF1FBA84E090E092BD81BD19
:1026200020BD0FB6F894FA9AF99A0FBE20914B018B
:10263000F999FECF1FBA85E090E092BD81BD20BD23
:102640000FB6F894FA9AF99A0FBE20914C01F999B5
:10265000FECF1FBA86E090E092BD81BD20BD0FB6CF
:10266000F894FA9AF99A0FBEF999FECF1FBA81E051
:1026700090E092BD81BD10BC0FB6F894FA9AF99A19
:102680000FBE20910801F999FECF1FBA87E090E0B4
:1026900092BD81BD20BD0FB6F894FA9AF99A0FBE8B
:1026A00088E090E065ED72E044EB59E00E94BC1ACE
:1026B0008AE090E068EA72E044EB59E00E94BC1ABC
:1026C0008CE090E060E872E044EB59E00E94BC1AB4
:1026D0008EE090E068E572E044EB59E00E94BC1A9D
:1026E00080E190E060E372E044EB59E00E94BC1AA4
:1026F00082E190E06CE172E044EB59E00E94BC1A88
:1027000085ED92E09093EA358093E93588EA92E08E
:102710009093F8358093F73580E892E09093F23506
:102720008093F13588E592E09093F0358093EF3512
:1027300080E392E09093E6358093E5358CE192E07A
:102740009093F6358093F53584E190E064EF71E085
:1027500044EB59E00E94BC1A86E190E065EF71E01D
:1027600044EB59E00E94BC1A88E190E066EF71E00A
:1027700044EB59E00E94BC1A8AE190E067EF71E0F7
:1027800044EB59E00E94BC1A8CE190E068EF71E0E4
:1027900044EB59E00E94BC1A8EE190E069EF71E0D1
:1027A00044EB59E00E94BC1A84EF91E09093E2352B
:1027B0008093E13585EF91E09093E4358093E335A4
:1027C00086EF91E09093FA358093F93587EF91E0A9
:1027D0009093E8358093E73588EF91E09093EE355C
:1027E0008093ED3589EF91E09093EC358093EB3554
:1027F0008FE78093F335F999FECF1FBA80E290E01E
:1028000092BD81BD8FE780BD0FB6F894FA9AF99A10
:102810000FBE85E280934801F999FECF1FBAD2BD61
:10282000C1BD85E280BD0FB6F894FA9AF99A0FBE41
:10283000C0E0D0E000E117E20E94111A80E090E0D1
:10284000F8013197F1F70196883C9105C9F70E948C
:10285000191A80E090E0F8013197F1F70196883C71
:102860009105C9F72196C330D10531F780914C010C
:10287000823091F0833028F4882341F0813041F494
:1028800009C0833059F0843019F40AC08EE709C0BA
:1028900080E007C080E505C088E203C08EE101C08A
:1028A00084E120910601821798F40E94281A80E0A2
:1028B00090E020E137E2F9013197F1F7019643E02A
:1028C000883E9407C1F70E94301A0E94441623C024
:1028D0006091F33570E080E090E030E040E050E05F
:1028E0000E94D11A2CE330E040E050E00E94D11A5F
:1028F0006093590170935A0180935B0190935C013E
:10290000609355017093560180935701909358013D
:1029100086E00E94CA15DF91CF911F910F91FF9021
:10292000EF900895882321F480917A00887F36C043
:10293000813049F480917A008A7F80937A00809177
:102940007A0082602BC0823049F480917A008B7FBC
:1029500080937A0080917A00836020C0833049F4AC
:1029600080917A008C7F80937A0080917A008460D5
:1029700015C0843049F480917A008D7F80937A006D
:1029800080917A0085600AC0853059F480917A0080
:102990008E7F80937A0080917A00866080937A009F
:1029A0000895863029F480917A00876080937A00B8
:1029B0000895EAE7F0E08081806880830895EAE77F
:1029C000F0E080818F7780830895882321F48091BF
:1029D0007C008E7F05C0813071F480917C00816025
:1029E00080937C0080917C008D7F80937C0080911F
:1029F0007C008B7F2BC0823021F480917C008E7F05
:102A000005C0833049F480917C00816080937C0014
:102A100080917C008260E9CF843049F480917C0011
:102A20008E7F80937C0080917C008D7F0AC08630F1
:102A3000D1F480917C008E7F80937C0080917C001B
:102A4000826080937C0080917C00846080937C0015
:102A500080917C00877F80937C0080917C008F7EBA
:102A600080937C0008958730C9F480917C00816058
:102A700080937C0080917C00826080937C008091B8
:102A80007C00846080937C0080917C00877F8093B1
:102A90007C0080917C008F7E80937C0008950E9452
:102AA000E51480917A00806180937A0080917A00A9
:102AB000806480937A0080917A0086FDFCCF20911B
:102AC000780040917900942F80E030E0282B392B5A
:102AD000C90108959093C5008093C400662319F03E
:102AE000613029F402C088E003C080E101C088E1C0
:102AF0008093C10086E08093C20008959093CD003A
:102B00008093CC00662319F0613029F402C088E07C
:102B100003C080E101C088E18093C90086E0809312
:102B2000CA0008958FB7F89495B7906895BF95B788
:102B3000906895BF8FBF08958230B1F0833028F43C
:102B4000882351F0813001F50BC08430A9F0843026
:102B500078F08530C9F414C08091B100816017C04D
:102B60008091B100826013C08091B10083600FC07A
:102B70008091B10084600BC08091B100856007C076
:102B80008091B100866003C08091B100876080931E
:102B9000B10008950E949C151092B200E0E7F0E0A9
:102BA00080818160808378940895109270001092E3
:102BB000B1000895109270001092B100F89428E0CE
:102BC00088E190E00FB6F894A895809360000FBE5E
:102BD00020936000FFCF14BE88E10FB6F894809375
:102BE0006000109260000FBE0895809166009FB74C
:102BF000F89485B7806885BF85B7806885BF9FBF1B
:102C0000089809980A980B980D980E980F98209894
:102C100021982A98239824982598269827983898B8
:102C200039983A983B983C983D983E983F985098F0
:102C30005198529853985498559856985798519A35
:102C4000529A5A9A249A2C98209A239A2B9A83E083
:102C50008093DE3528981092C5008CE08093C400E4
:102C600088E18093C10086E08093C200ECE7F0E049
:102C700080818064808385E00E949214EAE7F0E01E
:102C80008081806880830895F894519852982498A0
:102C900028982098239A2B98539A5B9853983B9A9C
:102CA00043983B988091DE35807F8093DE3511B864
:102CB00014B817B81AB812B815B818B81BB81092CB
:102CC00070001092B10088E10FB6F8948093600014
:102CD000109260000FBEEAE7F0E080818F7780837A
:102CE00085B7806185BF80B7877F80BF80B78068E8
:102CF00080BF83B7816083BF85B7806685BF8F7DC6
:102D000085BF789483B7817F846083BF889583B7BC
:102D10008E7F83BF089540E054E220E137E26DE00A
:102D20008091C00085FFFCCF8091C0008F7D809393
:102D3000C0005093C600C9010197F1F78091C0000F
:102D400085FFFCCF8091C0008F7D8093C0005093A1
:102D5000C600C9010197F1F78091C00085FFFCCF43
:102D60008091C0008F7D8093C0005093C600C90140
:102D70000197F1F78091C00085FFFCCF8091C000E2
:102D80008F7D8093C0006093C6008091C00085FF56
:102D9000FCCF8091C0008F7D8093C0006093C600FF
:102DA0008091C00087FD04C08091C00087FF25C0CE
:102DB0008091C600833409F58091C00085FFFCCF67
:102DC0008091C0008F7D8093C0008DE08093C6000D
:102DD00020E030E09DE08091C00085FFFCCF809135
:102DE000C0008F7D8093C0009093C6002F5F3F4F3F
:102DF0002A30310581F781E008954F5F4F3F09F098
:102E00008FCF80E0089540E05DE220E137E26DE0A1
:102E10008091C00085FFFCCF8091C0008F7D8093A2
:102E2000C0005093C600C9010197F1F78091C0001E
:102E300085FFFCCF8091C0008F7D8093C0005093B0
:102E4000C600C9010197F1F78091C00085FFFCCF52
:102E50008091C0008F7D8093C0005093C600C9014F
:102E60000197F1F78091C00085FFFCCF8091C000F1
:102E70008F7D8093C0006093C6008091C00085FF65
:102E8000FCCF8091C0008F7D8093C0006093C6000E
:102E90004F5F4F3F69F08091C00087FD06C0809171
:102EA000C00087FD02C081E008958091C600B0CFC8
:102EB00080E008955198529824983091DE3520E0B2
:102EC00040E157E2CA010197F1F72F5F2F3FD1F799
:102ED000519A529A5A9A249A2C9831603093DE353E
:102EE00008959F92AF92BF92CF92DF92EF92FF929E
:102EF0000F931F93482F50E0FDE060E177E2B3E5C8
:102F0000BB2EA5E5AA2EECE29E2E03E3E8E339E30F
:102F1000F32E26E3E22E14E3A2E3B1E395E3C92EF8
:102F200087E3D82E20E030E08091C00087FD04C008
:102F30008091C00087FF02C08091C6002F5F3F4F85
:102F40002436310589F78091C00085FFFCCF809140
:102F5000C0008F7D8093C000F093C600CB01019725
:102F6000F1F78091C00085FFFCCF8091C0008F7D7C
:102F70008093C000F093C6008091C00085FFFCCF15
:102F80008091C0008F7D8093C000B092C600CB01BD
:102F90000197F1F78091C00085FFFCCF8091C000C0
:102FA0008F7D8093C000A092C600CB010197F1F7FE
:102FB0008091C00085FFFCCF8091C0008F7D809301
:102FC000C0009092C600CB010197F1F74C3009F494
:102FD0007DC04D3068F4413009F4C3C0413008F47D
:102FE000D7C0433009F4A6C0483009F0E8C08BC010
:102FF0004333A9F1443338F4403109F457C049311F
:1030000009F0DDC03CC04736D1F04F3C09F0D7C0D5
:103010008091C00085FFFCCF8091C0008F7D8093A0
:10302000C000A093C6008091C00085FFFCCF8091B6
:10303000C0008F7D8093C0001093C600D6C08091E1
:10304000C00085FFFCCF8091C0008F7D8093C000C1
:103050001093C6008091C00085FFFCCFBFC0809157
:10306000C00085FFFCCF8091C0008F7D8093C000A1
:10307000F092C6008091C00085FFFCCF98C080917F
:10308000C00085FFFCCF8091C0008F7D8093C00081
:10309000B093C6008091C00085FFFCCF8091C00036
:1030A0008F7D8093C000F092C6009FC08091C000C9
:1030B00085FFFCCF8091C0008F7D8093C000A093DE
:1030C000C6008091C00085FFFCCF88C08091C00001
:1030D00085FFFCCF8091C0008F7D8093C00000935E
:1030E000C600CB010197F1F78091C00085FFFCCFAE
:1030F0008091C0008F7D8093C000E093C600CB011B
:103100000197F1F772C08091C00085FFFCCF8091DC
:10311000C0008F7D8093C000C092C6008091C00027
:1031200085FFFCCF8091C0008F7D8093C000D0923E
:10313000C6005BC08091C00085FFFCCF8091C000BD
:103140008F7D8093C000B093C6008091C00085FF42
:10315000FCCF8091C0008F7D8093C000B093C600EB
:1031600044C08091C00085FFFCCF8091C0008F7D5E
:103170008093C000A093C6008091C00085FFFCCF63
:103180008091C0008F7D8093C0000093C6002DC049
:103190008091C00085FFFCCF8091C0008F7D80931F
:1031A000C0001093C6008091C00085FFFCCF8091C5
:1031B000C0008F7D8093C000E092C60016C0809151
:1031C000C00085FFFCCF8091C0008F7D8093C00040
:1031D0000093C6008091C00085FFFCCF8091C000A5
:1031E0008F7D8093C000E093C6008091C00085FF72
:1031F000FCCF8091C0008F7D8093C000F093C6000B
:10320000CB010197F1F78091C00085FFFCCF809141
:10321000C0008F7D8093C000F093C600CB01019762
:10322000F1F78091C00087FD04C08091C00087FF46
:1032300006C08091C600813411F481E005C05F5F53
:103240005F3F09F06FCE80E01F910F91FF90EF90EC
:10325000DF90CF90BF90AF909F90089530E020E036
:103260006DE040E157E2E7E475E58091C00085FF3D
:10327000FCCF8091C0008F7D8093C0006093C6001A
:10328000CA010197F1F78091C00085FFFCCF8091C2
:10329000C0008F7D8093C0006093C6008091C00005
:1032A00085FFFCCF8091C0008F7D8093C000E093AC
:1032B000C600CA010197F1F78091C00085FFFCCFDD
:1032C0008091C0008F7D8093C0007093C600CA01BA
:1032D0000197F1F78091C00085FFFCCF8091C0007D
:1032E0008F7D8093C0006093C600CA010197F1F7FB
:1032F0008091C00085FFFCCF8091C0008F7D8093BE
:10330000C0006093C600CA010197F1F73F5F3F3FDD
:1033100021F18091C00087FD14C08091C00087FD1D
:1033200010C0243389F0253328F4213389F0223367
:1033300099F405C0253371F0293371F407C02FECDF
:103340000CC02091C60091CF27E607C023E305C03B
:1033500023E003C028E001C02CE0822F0895519A99
:10336000529A5A9A249A2C988091DE3581608093E3
:10337000DE3508955198529824988091DE358E7FDD
:103380008093DE3508958091DE358170089580B197
:1033900082958170089580B1829586958695817019
:1033A0000895FC018091C00087FD06C08091C00097
:1033B00087FD02C080E008958091C600808381E08F
:1033C0000895982F8091C00085FFFCCF8091C000A8
:1033D0008F7D8093C0009093C6000895882311F4D8
:1033E00028980895813011F080E00895289A81E0AE
:1033F0000895209A239A2B9A8091DE3582608093DB
:10340000DE35089528982098239A2B988091DE35F0
:103410008D7F8093DE3508958091DE3586958170AD
:103420000895539A5B9A8091DE3584608093DE35EF
:103430000895539A5B9853988091DE358B7F8093E3
:10344000DE3508958091DE358695869581700895E4
:103450003B9A439A8091DE3588608093DE350895EB
:103460003B9A43983B988091DE35877F8093DE3589
:1034700008958091DE3586958695869581700895AC
:1034800080B1869586958695809581700895362FB2
:10349000382720E080E090E040E853E837FF02C0A2
:1034A00024273527220F331F019688309105B1F765
:1034B000832F0895CF93DF93282FA0E0B0E0C0E8DA
:1034C000D3E816C0FB01EA0FFB1F8081922F9827DB
:1034D00080E020E030E097FF02C08C279D27880F16
:1034E000991F2F5F3F4F28303105A9F7292F1196DB
:1034F000A417B5073CF3822FDF91CF910895CF93A6
:10350000DF93DC0120E030E0C1E2D0E115C05C9146
:1035100040E02427352780E090E0F901EE0FFF1FFF
:1035200037FF04C09F012C273D2701C09F01019652
:103530008830910591F71196615070408FEF6F3F81
:10354000780729F7C901DF91CF910895DF92EF92B3
:10355000FF920F931F937B018C01FB010995D82EDD
:10356000C8010196F7010995982F8D2D1F910F9194
:10357000FF90EF90DF900895DF92EF92FF920F930C
:103580001F93D72E7A018C01FA010995C801019683
:103590006D2DF70109951F910F91FF90EF90DF902E
:1035A0000895629FD001739FF001829FE00DF11D8D
:1035B000649FE00DF11D929FF00D839FF00D749FAD
:1035C000F00D659FF00D9927729FB00DE11DF91F59
:1035D000639FB00DE11DF91FBD01CF0111240895B6
:1035E000AA1BBB1B51E107C0AA1FBB1FA617B70729
:1035F00010F0A61BB70B881F991F5A95A9F7809545
:103600009095BC01CD010895A1E21A2EAA1BBB1B07
:10361000FD010DC0AA1FBB1FEE1FFF1FA217B3079E
:10362000E407F50720F0A21BB30BE40BF50B661FB4
:10363000771F881F991F1A9469F760957095809578
:1036400090959B01AC01BD01CF01089597FB092E18
:1036500005260ED057FD04D0D7DF0AD0001C38F461
:1036600050954095309521953F4F4F4F5F4F0895AE
:10367000F6F790958095709561957F4F8F4F9F4F8E
:063680000895F894FFCF4D
:0A36860060090100FFFF5A01020075
:00000001FF
