:100000000C945C000C9479000C9479000C947900A9
:100010000C9479000C9479000C9479000C9479007C
:100020000C9479000C9479000C9479000C949E0047
:100030000C9479000C9479000C9479000C9479005C
:100040000C9479000C9479000C9479000C9479004C
:100050000C9479000C9479000C9479000C9479003C
:100060000C9479000C9479000C9479000C9479002C
:100070000C9479000C9479000C947900030103012D
:100080000A010A0105010A01030105010301070133
:100090000A010A01030105010A010A010A010A0114
:1000A000030105010301050103010A010A0103011E
:1000B000050103010301030111241FBECFEFD8E0A6
:1000C000DEBFCDBF11E0A0E0B1E0E4E5FBE102C09E
:1000D00005900D92A430B107D9F712E0A4E0B1E089
:1000E00001C01D92A334B107E1F70E9480040C9473
:1000F000A80D0C940000DF93CF9300D000D00F9296
:10010000CDB7DEB749835A836B837C838D83842F7D
:100110000E948F0C8A810E948F0C8B810E948F0C11
:100120008C810E948F0C8D810E948F0C0F900F90FC
:100130000F900F900F90CF91DF9108951F920F9223
:100140000FB60F9211240F931F932F933F934F934A
:100150005F936F937F938F939F93AF93BF93EF932F
:10016000FF93DF93CF93CDB7DEB72F97DEBFCDBF21
:100170008AEA8093B20080910B0190910C01892B47
:1001800009F0A6C30E944C05882309F463C31092AA
:1001900008011092070110920A01109209011092B1
:1001A000020190911201992329F08091130198176F
:1001B00008F041C080E191E00E947B0C8823D9F5D2
:1001C00080911201E82FF0E0EB5CFD4F909110015F
:1001D00090838F5F80931201892F82958695877017
:1001E000853049F5892F8F7180931101E82FF0E058
:1001F000EE31F10578F4E25CFF4FEE0FFF1F059042
:10020000F491E02D099481E003C082E001C08AE00E
:100210008093130181E080931201109215011092D6
:100220001401109216018FEF9FEF909301018093BC
:10023000000110921E0110911201112309F471C2E4
:10024000809114019091150101969093150180936E
:10025000140180911301181709F063C280911101F4
:10026000893109F460C08A3148F4883009F464C1E6
:10027000893009F46FC08823C9F038C28B3189F006
:100280008B3188F18C3121F08D3109F02FC204C0FF
:1002900081E080930F0102C010920F0110931601AC
:1002A00025C21092180110921701F8CF84E00E9425
:1002B000370C90931D0180931C0120EC2093350294
:1002C0009C0113E0369527951A95E1F720933602A5
:1002D00087708295807F809337028091120180938E
:1002E000160183E034C084E00E94370C8E559140A3
:1002F00008F4FCC1F999FAC16091360270E06877A0
:100300007070B3E076956795BA95E1F770931D012B
:1003100060931C018CE090E00E94850D8091120199
:1003200080931601E3C18CE090E00E947F0D8093E2
:100330001C0190931D0198EC90933502880F880F53
:10034000880F8877809336021093160182E080939D
:100350001E01CCC1F999CAC184E00E94370C8E55A8
:10036000914008F4C3C18091000190910101843053
:10037000910509F455C08530910530F4009761F07E
:10038000029709F0B0C022C08630910509F464C01C
:10039000089709F0A8C082C08091380290E08E775B
:1003A0009070969587952091370230E02F703070CD
:1003B000F6E0220F331FFA95E1F7822B932B9093EF
:1003C0001D0180931C0182E090E025C0209139023C
:1003D00030E02F773070220F331F220F331F8091B0
:1003E000380290E081709070982F8827990F282B01
:1003F000392B80913A0290E08076907065E0969576
:1004000087956A95E1F7282B392B30931D012093AE
:100410001C0184E090E0909301018093000181C071
:1004200080913B0290E08C77907096958795969599
:10043000879520913A0230E02F71307045E0220F0D
:10044000331F4A95E1F7822B932B90931D018093E4
:100450001C0186E090E0DFCF20913C0230E0220FCB
:10046000331F307080913B0290E083709070982F22
:100470008827282B392B80913D0290E08074907062
:1004800016E0969587951A95E1F7282B392B30932E
:100490001D0120931C0188E090E0BDCF20913E0219
:1004A00030E028773070B3E036952795BA95E1F7BC
:1004B00080913D0290E08F739070A4E0880F991FA7
:1004C000AA95E1F7282B392B30931D0120931C01AD
:1004D0008AE090E0909301018093000180911201E5
:1004E000809316011EC02091370230E020773070D3
:1004F000F4E036952795FA95E1F78091360290E081
:100500008F779070E3E0880F991FEA95E1F7282B29
:10051000392B30931D0120931C0110920101109280
:10052000000160911C0170911D018091000190916A
:1005300001010E94850DDAC0F999D8C084E00E94BB
:10054000370C8E55914008F4D1C0809100019091F4
:1005500001018430910509F446C08530910530F4DD
:10056000009781F0029709F0B0C021C08830910552
:1005700009F470C08A30910509F488C0069709F023
:10058000A4C04FC080911C0190911D0173E096950D
:1005900087957A95E1F78F778093360280911C01D9
:1005A000829580778093370282E090E017C0809137
:1005B0001C0190911D0166E0969587956A95E1F77B
:1005C0008F7020913702822B8093370280911C011B
:1005D000880F8E778093380284E090E09093010139
:1005E0008093000179C080911D0186958170909162
:1005F0003802892B8093380280911C0190911D0153
:1006000096958795969587958F77809339028091F7
:100610001C018295880F807680933A0286E090E0F4
:10062000DDCF80911C0190911D0145E09695879545
:100630004A95E1F78F7120913A02822B80933A021A
:1006400080911C01880F880F8C7780933B0288E093
:1006500090E0C4CF80911D01837090913B02892B63
:1006600080933B0280911C0190911D019695879586
:100670008F7780933C0280911C018295880F880FB0
:10068000807480933D028AE090E0A8CF80911C01A5
:1006900090911D0124E0969587952A95E1F78F7337
:1006A00020913D02822B80933D0280911C01880F96
:1006B000880F880F887780933E0280911201809383
:1006C00016018AE080931E0107C084EC80933502F6
:1006D000109201011092000180910001909101019E
:1006E0000E947F0D90931D0180931C019091160133
:1006F00080911201981771F510922F010BC0F0E054
:10070000EB5CFD4F80810E948F0C80912F018F5FE9
:1007100080932F01E0912F0180911E01E81778F35B
:1007200007C080911401909115018F3F910590F0C1
:1007300010921301109212011092150110921401DF
:10074000109216018FEF9FEF9093010180930001AB
:1007500010921E0180910F01882309F0B9C0809189
:100760001701909118010196909318018093170139
:100770008A5A9A4098F00E94DC0980E090E020E1DB
:1007800037E2F9013197F1F7019684369105C9F7FF
:100790000E94D109109218011092170181E00E9465
:1007A000370C909327018093260182E00E94370C3A
:1007B000909329018093280183E00E94370CBC01AB
:1007C00090932B0180932A0180912201409128016E
:1007D0005091290120912601309127018E01055F5A
:1007E0001F4F8F3FB1F480E00E94410D2B873C8763
:1007F0004D875E876F87DE011196F80185E00190D5
:100800000D928150E1F749815A816B817C818D8104
:1008100015C080E00E94410D2B873C874D875E8785
:100820006F87DE011696F80185E001900D928150E8
:10083000E1F74E815F81688579858A850E947B001A
:1008400080911F0190912001019690932001809347
:100850001F013EC010920F0180910201882391F484
:100860000E94DC0980E090E020E137E2F901319755
:10087000F1F7019684369105C9F70E94D10981E00C
:100880008093020180910701909108010196909355
:100890000801809307018B35910568F010920801DB
:1008A000109207018091090190910A01019690939D
:1008B0000A01809309018091090190910A018151F7
:1008C0009E4030F081E090E090930C0180930B010A
:1008D0002F96DEBFCDBFCF91DF91FF91EF91BF91FA
:1008E000AF919F918F917F916F915F914F913F91C8
:1008F0002F911F910F910F900FBE0F901F90189581
:100900000F931F93CF93DF9314BE88E10FB6F89433
:1009100080936000109260000FBE86E00E94B10AD2
:100920008CE090E00E947F0D8330910519F483E301
:1009300090E005C08430910539F489E190E090930E
:100940001D0180931C011BC08530910519F480E1C5
:1009500090E0F5CF8630910519F48CE090E0EFCF70
:10096000079719F488E090E0EACF8CE090E090934C
:100970001D0180931C0166E070E00E94850D80914E
:100980001C0190911D010E94BD0C0E94680C1092E8
:100990000601109205010E9457050E94FE0C00E11D
:1009A00017E2C1E0D0E041C0C8010197F1F70E9411
:1009B0009C0C882321F4D0930C01C0930B018091EF
:1009C000050190910601019690930601809305011F
:1009D0000E944C05882391F00E946C0C80910501C7
:1009E000909106018130910519F40E94660C1DC09A
:1009F0008230910599F40E94680C17C0809105011E
:100A0000909106018130910519F40E946A0C0DC085
:100A10008230910519F40E946C0C07C0805D9740EC
:100A200020F0109206011092050180910B01909127
:100A30000C01892B09F4B8CF0E946F0A14BE88E11B
:100A40000FB6F89480936000109260000FBEF89487
:100A5000109270000E946C0C0E94680C0E94000DA5
:100A600083B7816083BF83B7817F866083BF8895AA
:100A70000E946A0C0E94660C80E090E0DF91CF91AA
:100A80001F910F910895559854985098519A529AE1
:100A90005A9A249A1C98089589B182958170089574
:100AA00089B182958695817008951C9A08951C9845
:100AB00008951C9A80E197E228EC30E0F901319723
:100AC000F1F70197D9F71C980895882321F48091B4
:100AD0007A00887F36C0813049F480917A008A7F1D
:100AE00080937A0080917A0082602BC0823049F432
:100AF00080917A008B7F80937A0080917A00836066
:100B000020C0833049F480917A008C7F80937A00F2
:100B100080917A00846015C0843049F480917A0015
:100B20008D7F80937A0080917A0085600AC085303D
:100B300059F480917A008E7F80937A0080917A00B8
:100B4000866080937A000895863029F480917A0037
:100B5000876080937A000895EAE7F0E080818068FA
:100B600080830895EAE7F0E080818F77808308959D
:100B7000882321F480917C008E7F05C0813071F440
:100B800080917C00816080937C0080917C008D7FCF
:100B900080937C0080917C008B7F2BC0823021F47D
:100BA00080917C008E7F05C0833049F480917C0069
:100BB000816080937C0080917C008260E9CF8430EA
:100BC00049F480917C008E7F80937C0080917C0032
:100BD0008D7F0AC08630D1F480917C008E7F809317
:100BE0007C0080917C00826080937C0080917C00FE
:100BF000846080937C0080917C00877F80937C0060
:100C000080917C008F7E80937C0008958730C9F4AA
:100C100080917C00816080937C0080917C00826068
:100C200080937C0080917C00846080937C00809124
:100C30007C00877F80937C0080917C008F7E8093F6
:100C40007C0008950E94B80580917A0080618093AD
:100C50007A0080917A00806480937A0080917A0093
:100C600086FDFCCF2091780040917900942F80E0A0
:100C700030E0282B392BC90108959093C50080934B
:100C8000C400662319F0613029F402C088E003C073
:100C900080E101C088E18093C10086E08093C200BA
:100CA00008959093CD008093CC00662319F06130B5
:100CB00029F402C088E003C080E101C088E180938C
:100CC000C90086E08093CA0008958FB7F89495B75D
:100CD000906895BF95B7906895BF8FBF0895823093
:100CE000B1F0833028F4882351F0813001F50BC036
:100CF0008430A9F0843078F08530C9F414C0809134
:100D0000B100816017C08091B100826013C08091F2
:100D1000B10083600FC08091B10084600BC08091EE
:100D2000B100856007C08091B100866003C08091EA
:100D3000B10087608093B10008950E946F06109201
:100D4000B200E0E7F0E080818160808378940895CC
:100D5000109270001092B1000895F89428E088E194
:100D600090E00FB6F894A895809360000FBE209392
:100D70006000FFCF14BE88E10FB6F8948093600046
:100D8000109260000FBE089540E054E220E137E287
:100D90006DE08091C00085FFFCCF8091C0008F7D09
:100DA0008093C0005093C600C9010197F1F780916C
:100DB000C00085FFFCCF8091C0008F7D8093C00074
:100DC0005093C600C9010197F1F78091C00085FFDB
:100DD000FCCF8091C0008F7D8093C0005093C600EF
:100DE000C9010197F1F78091C00085FFFCCF809188
:100DF000C0008F7D8093C0006093C6008091C000CA
:100E000085FFFCCF8091C0008F7D8093C0006093F0
:100E1000C6008091C00087FD04C08091C00087FF9C
:100E200025C08091C600833409F58091C00085FFFC
:100E3000FCCF8091C0008F7D8093C0008DE08093B7
:100E4000C60020E030E09DE08091C00085FFFCCF2F
:100E50008091C0008F7D8093C0009093C6002F5F6B
:100E60003F4F2A30310581F781E008954F5F4F3FB2
:100E700009F08FCF80E0089540E05DE220E137E2A5
:100E80006DE08091C00085FFFCCF8091C0008F7D18
:100E90008093C0005093C600C9010197F1F780917B
:100EA000C00085FFFCCF8091C0008F7D8093C00083
:100EB0005093C600C9010197F1F78091C00085FFEA
:100EC000FCCF8091C0008F7D8093C0005093C600FE
:100ED000C9010197F1F78091C00085FFFCCF809197
:100EE000C0008F7D8093C0006093C6008091C000D9
:100EF00085FFFCCF8091C0008F7D8093C000609300
:100F0000C6004F5F4F3F69F08091C00087FD06C06B
:100F10008091C00087FD02C081E008958091C600E5
:100F2000B0CF80E008959F92AF92BF92CF92DF92B0
:100F3000EF92FF920F931F93482F50E0FDE060E186
:100F400077E2B3E5BB2EA5E5AA2EECE29E2E03E3E5
:100F5000E8E339E3F32E26E3E22E14E3A2E3B1E360
:100F600095E3C92E87E3D82E20E030E08091C000C1
:100F700087FD04C08091C00087FF02C08091C60039
:100F80002F5F3F4F2436310589F78091C00085FFE0
:100F9000FCCF8091C0008F7D8093C000F093C6008D
:100FA000CB010197F1F78091C00085FFFCCF8091C4
:100FB000C0008F7D8093C000F093C6008091C00078
:100FC00085FFFCCF8091C0008F7D8093C000B092E0
:100FD000C600CB010197F1F78091C00085FFFCCFDF
:100FE0008091C0008F7D8093C000A092C600CB018D
:100FF0000197F1F78091C00085FFFCCF8091C00080
:101000008F7D8093C0009092C600CB010197F1F7CD
:101010004C3009F47DC04D3068F4413009F4C3C050
:10102000413008F4D7C0433009F4A6C0483009F075
:10103000E8C08BC04333A9F1443338F4403109F49C
:1010400057C0493109F0DDC03CC04736D1F04F3CB4
:1010500009F0D7C08091C00085FFFCCF8091C0000F
:101060008F7D8093C000A093C6008091C00085FF53
:10107000FCCF8091C0008F7D8093C0001093C6008C
:10108000D6C08091C00085FFFCCF8091C0008F7DCD
:101090008093C0001093C6008091C00085FFFCCFF4
:1010A000BFC08091C00085FFFCCF8091C0008F7DC4
:1010B0008093C000F092C6008091C00085FFFCCFF5
:1010C00098C08091C00085FFFCCF8091C0008F7DCB
:1010D0008093C000B093C6008091C00085FFFCCF14
:1010E0008091C0008F7D8093C000F092C6009FC0A9
:1010F0008091C00085FFFCCF8091C0008F7D8093E0
:10110000C000A093C6008091C00085FFFCCF88C0BE
:101110008091C00085FFFCCF8091C0008F7D8093BF
:10112000C0000093C600CB010197F1F78091C00089
:1011300085FFFCCF8091C0008F7D8093C000E0933D
:10114000C600CB010197F1F772C08091C00085FF06
:10115000FCCF8091C0008F7D8093C000C092C600FC
:101160008091C00085FFFCCF8091C0008F7D80936F
:10117000C000D092C6005BC08091C00085FFFCCF4C
:101180008091C0008F7D8093C000B093C600809195
:10119000C00085FFFCCF8091C0008F7D8093C00090
:1011A000B093C60044C08091C00085FFFCCF809101
:1011B000C0008F7D8093C000A093C6008091C000C6
:1011C00085FFFCCF8091C0008F7D8093C00000938D
:1011D000C6002DC08091C00085FFFCCF8091C0006B
:1011E0008F7D8093C0001093C6008091C00085FF62
:1011F000FCCF8091C0008F7D8093C000E092C6003C
:1012000016C08091C00085FFFCCF8091C0008F7D0B
:101210008093C0000093C6008091C00085FFFCCF82
:101220008091C0008F7D8093C000E093C6008091C4
:10123000C00085FFFCCF8091C0008F7D8093C000EF
:10124000F093C600CB010197F1F78091C00085FFB4
:10125000FCCF8091C0008F7D8093C000F093C600CA
:10126000CB010197F1F78091C00087FD04C0809108
:10127000C00087FF06C08091C600813411F481E070
:1012800005C05F5F5F3F09F06FCE80E01F910F9157
:10129000FF90EF90DF90CF90BF90AF909F90089518
:1012A00030E020E06DE040E157E2E7E475E5809151
:1012B000C00085FFFCCF8091C0008F7D8093C0006F
:1012C0006093C600CA010197F1F78091C00085FFC5
:1012D000FCCF8091C0008F7D8093C0006093C600DA
:1012E0008091C00085FFFCCF8091C0008F7D8093EE
:1012F000C000E093C600CA010197F1F78091C000D9
:1013000085FFFCCF8091C0008F7D8093C0007093DB
:10131000C600CA010197F1F78091C00085FFFCCF9C
:101320008091C0008F7D8093C0006093C600CA0189
:101330000197F1F78091C00085FFFCCF8091C0003C
:101340008F7D8093C0006093C600CA010197F1F7BA
:101350003F5F3F3F21F18091C00087FD14C0809125
:10136000C00087FD10C0243389F0253328F42133D1
:1013700089F0223399F405C0253371F0293371F4D3
:1013800007C02FEC0CC02091C60091CF27E607C004
:1013900023E305C023E003C028E001C02CE0822F36
:1013A0000895519A529A5A9A249A2C98809123011E
:1013B00081608093230108955198529824988091D8
:1013C00023018E7F8093230108950E94DC0980E130
:1013D00097E20197F1F70E94D109089580912301C6
:1013E0008170089589B182958170089589B182953F
:1013F000869581700895FC018091C00087FD06C02C
:101400008091C00087FD02C080E008958091C600F1
:10141000808381E00895982F8091C00085FFFCCFE4
:101420008091C0008F7D8093C0009093C600089586
:10143000882311F4289805C0813011F0823019F406
:10144000289A29980895833011F080E00895289A09
:10145000299A83E00895209A219A239A2B9A8091C1
:101460002301826080932301089580E00E94180A7E
:1014700020982198239A2B98809123018D7F809327
:101480002301089580912301869581700895399AEA
:10149000419A809123018460809323010895399AB1
:1014A00041983998809123018B7F8093230108957F
:1014B0008091230186958695817008953A9A429A83
:1014C0008091230188608093230108953A9A42987D
:1014D0003A9880912301877F809323010895F8949F
:1014E0000E94DC090E94350A0E944F0A0E94660A87
:1014F00011B814B817B81AB812B815B818B81BB87C
:10150000109270001092B10088E10FB6F8948093A9
:101510006000109260000FBEEAE7F0E080818F77F4
:10152000808385B7806185BF80B7877F80BF80B7A4
:10153000806880BFE4E6F0E080818D6A808383B7B5
:10154000816083BF85B7806685BF8F7D85BF7894B6
:1015500083B7817F846083BF889583B78E7F83BF85
:101560000895FF920F931F93CF93DF93F82E00916E
:1015700066000E945E0A109223010E946506089888
:1015800009980A980B980C980D980E980F98209827
:10159000219822982A982398249825982698279865
:1015A000389839983B983C983D983E983F98509889
:1015B00051985298539854985598569857980E9415
:1015C000D1090E942B0A82E00E94180A8CE090E068
:1015D00062E00E943D060E94C406882349F00E94F2
:1015E000660A0E9450098C3049F50E94660A26C09E
:1015F00010E510936600C0E0D0E083E090E062E088
:101600000E943D060E94C406882379F08CE00E9467
:101610009307882351F00E94E5098CE090E062E096
:101620000E943D060E94660A04C02196CA30D10578
:1016300021F71F5F1F3FE9F6009366008CE090E002
:1016400062E00E943D0680917C00806480937C0073
:1016500085E00E94650580917A00806880937A0019
:101660008F2D0E949D06DF91CF911F910F91FF90CA
:1016700008958091230186958695869581700895B9
:101680009093C5008093C40088E18093C10086E0F8
:101690008093C20008959093CD008093CC0088E1A0
:1016A0008093C90086E08093CA000895EBE7F0E0DC
:1016B0008081887F8083EAE7F0E080818062808398
:1016C0000895EAE7F0E080818F7D80830895882384
:1016D00021F480917A00887F36C0813049F480916E
:1016E0007A008A7F80937A0080917A0082602BC092
:1016F000823049F480917A008B7F80937A008091C8
:101700007A00836020C0833049F480917A008C7F16
:1017100080937A0080917A00846015C0843049F407
:1017200080917A008D7F80937A0080917A00856025
:101730000AC0853059F480917A008E7F80937A00B8
:1017400080917A00866080937A000895863029F42B
:1017500080917A00876080937A000895ECE7F0E04A
:101760008081806480830895EAE7F0E0808180686A
:1017700080830895EAE7F0E080818F778083089581
:10178000EAE7F0E0808180618083808180648083EB
:10179000089580917A0080740895882321F48091BF
:1017A0007C008E7F05C0813071F480917C00816067
:1017B00080937C0080917C008D7F80937C00809161
:1017C0007C008B7F2BC0823021F480917C008E7F47
:1017D00005C0833049F480917C00816080937C0057
:1017E00080917C008260E9CF843049F480917C0054
:1017F0008E7F80937C0080917C008D7F0AC0863034
:10180000D1F480917C008E7F80937C0080917C005D
:10181000826080937C0080917C00846080937C0057
:1018200080917C00877F80937C0080917C008F7EFC
:1018300080937C0008958730C9F480917C0081609A
:1018400080937C0080917C00826080937C008091FA
:101850007C00846080937C0080917C00877F8093F3
:101860007C0080917C008F7E80937C0008950E9494
:10187000CD0B80917A00806180937A0080917A000C
:10188000806480937A0080917A0086FDFCCF20915D
:10189000780040917900942F80E030E0282B392B9C
:1018A000C90108950B980A9809980E98ECE7F0E0A2
:1018B00080818064808385E00E94670BEAE7F0E026
:1018C000808180688083399A3A9A0895419A089570
:1018D00041980895429A08954298089585E083BFFB
:1018E00008958FB7F89495B7906895BF95B79068AD
:1018F00095BF8FBF0895FC018091C00087FD0AC08D
:1019000080ED97E00197F1F78091C00087FD02C05C
:1019100081E008958091C600808380E00895982F2B
:101920008091C00085FFFCCF8091C0008F7D8093A7
:10193000C0009093C600089580B18295869581700D
:10194000089583B7817F846083BF83B7816083BF3D
:1019500083B7816083BF889583B78E7F83BF0895E7
:10196000F89428E088E190E00FB6F894A895809369
:1019700060000FBE20936000FFCF0F931F938C0178
:101980000E94710C1093C5000093C40088E18093FD
:10199000C10086E08093C2000E9443050E94090DA9
:1019A0000E94520C0D98059A83B7876083BFE1EBC4
:1019B000F0E08081876080838AE98093B200E0E76D
:1019C000F0E080818160808378941F910F91089569
:1019D000882311F4289803C0813019F4289A299893
:1019E0000895823019F4299A28980895833011F0C7
:1019F00080E00895289A299A83E008952B9A089503
:101A00002B98089585B186958695869580958170E9
:101A10000895209A219A239A0B980A980998229857
:101A200008980C980D9882E00E94E80C809334028C
:101A30002B9A089520E030E048ED822F98E087FF50
:101A400003C0880F842701C0880F9150C1F7F901A6
:101A5000EE5CFE4F80832F5F3F4F81E020303807E0
:101A600061F70895DC01E0E090E007C08D91E82780
:101A7000F0E0EE5CFE4FE0819F5F9617B8F38E2F8B
:101A800008951F93DF93CF9300D000D00F92CDB76E
:101A9000DEB7F901122F1F77EE0FEF2FEE1FFF0BAE
:101AA000F195E770942F990F990F990F9877E92B7B
:101AB00024E0569547952A95E1F74F73962F929516
:101AC000990F990F9074492BDB01B695A795AF77C5
:101AD0008770880F880F8068972F9370892B282F25
:101AE0003A2F5E2F612F70E080E090E00F900F9012
:101AF0000F900F900F90CF91DF911F910895A8E163
:101B0000B0E042E050E00C948C0D0E949A0D272F1B
:101B10000C949B0DDC01CB01FC01F999FECF06C0B2
:101B2000F2BDE1BDF89A319600B40D92415050409B
:101B3000B8F70895262FF999FECF1FBA92BD81BD3F
:101B400020BD0FB6F894FA9AF99A0FBE019608953F
:041B5000F894FFCF37
:041B5400FFFF01008E
:00000001FF
