:100000000C9476000C9495000C9495000C9495003B
:100010000C9495000C9495000C9495000C9495000C
:100020000C9495000C9495000C9495000C949700FA
:100030000C9495000C9495000C9495000C949500EC
:100040000C9495000C9495000C9495000C949500DC
:100050000C9495000C9495000C9495000C949500CC
:100060000C9495000C9495000C9495000C949500BC
:100070000C9495000C9495000C9495000C949500AC
:100080000C9495000C9495000C9495002E062E0669
:100090002E062E062E0630062E0632062E063006B8
:1000A0002E0630062E0630062E062E062E062E06AC
:1000B0002E0630062E0632062E062E0677069A06E5
:1000C0005E07560A9406560AA408D6075707A207E1
:1000D000560A560A46074C07560A720669066D0606
:1000E000B907C20700097309490A4B0A11241FBE48
:1000F000CFEFD0E4DEBFCDBF12E0A0E0B1E0EAE098
:10010000F2E300E00BBF02C007900D92A031B107EF
:10011000D9F71AE3A0E1B2E001C01D92A03DB107FA
:10012000E1F70E9461010C9403190C9400001F92E6
:100130000F920FB60F920BB60F9211242F933F938D
:100140004F935F936F937F938F939F93AF93BF93DF
:10015000EF93FF9390911E02992381F48091050102
:1001600080931E02809132028093B20081E08093DE
:10017000120280913402882311F50DC0913019F4D8
:100180008091330202C0809132028093B20091507C
:1001900090931E0283C08091350290913602A09107
:1001A0003702B09138020196A11DB11D809335022E
:1001B00090933602A0933702B09338026FC082301A
:1001C00009F06CC08091BE3A882399F08091390281
:1001D00090913A02A0913B02B0913C020197A10993
:1001E000B1098093390290933A02A0933B02B093F5
:1001F0003C028091350290913602A0913702B09175
:1002000038020196A11DB11D8093350290933602EC
:10021000A0933702B09338020E949D108823B1F456
:1002200080911B0290911C0227E08830920710F405
:10023000019607C08850974089F50E94851089E093
:1002400097E090931C0280931B0228C08091BE3AD5
:100250008823E9F020913D0230913E0240913F0217
:10026000509140028091390290913A02A0913B0254
:10027000B0913C0282179307A407B50741F0209381
:10028000390230933A0240933B0250933C020E9461
:100290001A0D81E080931A020E94F605FF91EF91FA
:1002A000BF91AF919F918F917F916F915F914F918E
:1002B0003F912F910F900BBE0F900FBE0F901F908C
:1002C00018952F923F924F925F926F927F928F92EA
:1002D0009F92AF92BF92CF92DF92EF92FF920F93D5
:1002E0001F93DF93CF93CDB7DEB7E2970FB6F894A5
:1002F000DEBF0FBECDBF1092801E10927F1E1092E7
:100300004D0210924C020E94E30A809164008160C9
:100310008093640080916400846080936400809185
:1003200064008062809364008091640088608093A0
:1003300064008091640080688093640080E090E0B5
:10034000A0E0B0E080936B1090936C10A0936D10C0
:10035000B0936E108093871E9093881EA093891E81
:10036000B0938A1E8093440290934502A093460264
:10037000B093470280935E1090935F10A09360103B
:10038000B09361108093671090936810A0936910E8
:10039000B0936A108093631090936410A0936510DB
:1003A000B093661081E08093120280911A02882334
:1003B00009F00CC380911202882309F4F1C28091E4
:1003C00064008E7F809364000E94B30B82E00E94E1
:1003D000290C90932B0280932A0281E00E94290C21
:1003E00090932D0280932C0280E00E94290C909320
:1003F0002F0280932E0287E00E94290C3C019093EB
:1004000042028093410240904C0250904D02609114
:100410002A0270912B02F201EE0FFF1FEE0FFF1F59
:10042000DF01A457B14E80E090E06D937D938D93F2
:100430009C931397E0902C02F0902D02DF01A25BB9
:10044000BD4F00E010E0ED92FD920D931C931397C9
:10045000A0902E02B0902F02DF01A159BF4ECC24F4
:10046000DD24AD92BD92CD92DC921397E456F34D0C
:100470008824992460827182828293820E947C15F2
:1004800020916B1030916C1040916D1050916E1056
:100490000E94C51269A77AA78BA79CA760936B10CF
:1004A00070936C1080936D1090936E10C801B7011B
:1004B0000E947C152091871E3091881E4091891ED4
:1004C00050918A1E0E94C5126DA77EA78FA798AB78
:1004D0006093871E7093881E8093891E90938A1E56
:1004E000C601B5010E947C1520914402309145025D
:1004F00040914602509147020E94C5125B016C0177
:1005000060934402709345028093460290934702A1
:10051000C401B3010E947C15209148023091490228
:1005200040914A0250914B020E94C5127B018C01FE
:10053000609348027093490280934A0290934B0261
:100540000894411C511C50924D0240924C0224E8E8
:10055000421623E0520609F01AC269A57AA58BA5B6
:100560009CA520E030E041E654E40E94EC136DA32A
:100570007EA38FA398A760936B1070936C108093E9
:100580006D1090936E106DA57EA58FA598A920E0A3
:1005900030E041E654E40E94EC1369A37AA38BA3F4
:1005A0009CA36093871E7093881E8093891E9093EE
:1005B0008A1EC601B50120E030E041E654E40E9405
:1005C000EC136D8F7E8F8F8F98A36093440270938E
:1005D00045028093460290934702C801B70120E08C
:1005E00030E041E654E40E94EC13698F7A8F8B8FE0
:1005F0009C8F609348027093490280934A029093C3
:100600004B028091821E9091831EA091841EB09116
:10061000851E89879A87AB87BC87809163109091EC
:100620006410A0916510B09166108D879E87AF878A
:10063000B88B8091671090916810A0916910B0916B
:100640006A10898B9A8BAB8BBC8B80915E109091DA
:100650005F10A0916010B09161108D8B9E8BAF8B5D
:10066000B88FACE8BEE1B887AF83EEE4F2E0FE837A
:10067000ED838FE690E19C838B83ACE9BCE2BA8387
:10068000A9831AAA19AABDC0EF81F885608171817A
:10069000828193810E947C152DA13EA14FA158A576
:1006A0000E9494129B01AC010E94F2120E941C1144
:1006B0001B012C01AF81B8856D937D938D939D9324
:1006C000B887AF83ED81FE816081718182819381E2
:1006D0000E947C1529A13AA14BA15CA10E94941211
:1006E0009B01AC010E94F2120E941C113B014C01C3
:1006F000AD81BE816D937D938D939D93BE83AD83BC
:10070000EB81FC8160817181828193810E947C15E3
:100710002D8D3E8D4F8D58A10E9494129B01AC01EE
:100720000E94F2120E941C115B016C01AB81BC8122
:100730006D937D938D939D93BC83AB83E981FA8107
:1007400060817181828193810E947C15298D3A8D0F
:100750004B8D5C8D0E9494129B01AC010E94F212A1
:100760000E941C117B018C01A981BA816D937D933C
:100770008D939D93BA83A983C201B1010E947C1518
:100780009B01AC016D897E898F89988D0E94C5126D
:100790006D8B7E8B8F8B988FC401B3010E947C156B
:1007A0009B01AC0169897A898B899C890E94C51259
:1007B000698B7A8B8B8B9C8BC601B5010E947C1553
:1007C0009B01AC016D857E858F8598890E94C5123D
:1007D0006D877E878F87988BC801B7010E947C1533
:1007E0009B01AC0169857A858B859C850E94C51229
:1007F00069877A878B879C87E9A9FAA93196FAAB32
:10080000E9AB89A99AA9A3E084389A0708F43CCFF8
:1008100090934D0280934C026D897E898F89988DCB
:1008200020E030E041E654E40E94EC130E948B1873
:100830003B014C0160935E1070935F1080936010D9
:100840009093611069897A898B899C8920E030E0D6
:1008500041E654E40E94EC130E948B185B016C018A
:1008600060936710709368108093691090936A107A
:100870006D857E858F85988920E030E041E654E4DF
:100880000E94EC130E948B187B018C016093631013
:1008900070936410809365109093661069857A85D3
:1008A0008B859C8520E030E041E654E40E94EC1307
:1008B0000E948B181B012C016093821E7093831E73
:1008C0008093841E9093851EC401B30120E030E024
:1008D00040E450E40E94C814181694F1C601B50112
:1008E00020E030E040E450E40E94C814181644F1BF
:1008F000C801B70120E030E040E450E40E94C81491
:100900001816F4F0C401B30120E030E040E050E0FC
:100910000E9498148823A1F0C601B50120E030E0C0
:1009200040E050E00E949814882351F0C801B701BC
:1009300020E030E040E050E00E9498148823C9F4A1
:1009400000E117E20E94FE1080E090E0F80131978C
:10095000F1F70196883C9105C9F70E94061180E0E5
:1009600090E0F8013197F1F70196883C9105C9F7BD
:10097000E9CFC201B10120E030E040E85FE30E942E
:10098000C814181614F40E94FE100E94E7100E946A
:10099000B90B809164008160809364001092120210
:1009A0000E9406110E94E710F89483B7817F83BFED
:1009B00083B7816083BF85B7806685BF8F7D85BF24
:1009C0007894889583B78E7F83BFEFCC80E090E0EA
:1009D000E2960FB6F894DEBF0FBECDBFCF91DF9188
:1009E0001F910F91FF90EF90DF90CF90BF90AF904D
:1009F0009F908F907F906F905F904F903F902F903F
:100A000008959C01F999FECF1FBA32BD21BD60BD8A
:100A10000FB6F894FA9AF99A0FBE0895209104013E
:100A200030E040E050E064E87EE180E090E00E9449
:100A30001318922F909581E02130380748F01092DA
:100A40003202832F8F5F80930501909333020895C4
:100A500090933202109205018FEF80933302089534
:100A600021E030E002C0220F331F8A95E2F7809127
:100A70003102822B80933102089521E030E002C0E0
:100A8000220F331F8A95E2F720958091310282234D
:100A90008093310208952091310230E002C03595F3
:100AA00027958A95E2F7822F8170089585EC8093CF
:100AB000C63A809104018F778093C73A85EC0E94F3
:100AC000B7108091C73A0E94B71008952CEC20937C
:100AD000C63A9C01220F232F221F330B31952F770B
:100AE0002093C73A8F778093C83A8CEC0E94B71056
:100AF0008091C73A0E94B7108091C83A0E94B710FF
:100B00000895FF920F931F93DF93CF930F92CDB76A
:100B1000DEB7082FF42E8695806E8093C63A6983DF
:100B20000E94B71010E00170107026E0000F111F36
:100B30002A95E1F799819F73902B9093C73A892F5B
:100B40000E94B710FF0CF092C83A8F2D0E94B71088
:100B50000F90CF91DF911F910F91FF900895CF9249
:100B6000DF92EF92FF920F931F938C017B016A013A
:100B7000812F837080688093C63A0E94B710C801A5
:100B8000969587958F778093C73A0E94B710C701D3
:100B900044E0969587954A95E1F78F730295000F8B
:100BA000000F0074802B8093C83A0E94B710C601D2
:100BB000880F892F881F990B91958770EE0CEE0C8A
:100BC000EE0C98E7E9228E298093C93A0E94B7106B
:100BD0008FE7C822C092CA3A8C2D0E94B7101F918D
:100BE0000F91FF90EF90DF90CF9008950F931F9398
:100BF000DF93CF930F92CDB7DEB790911F02992369
:100C000029F080912002981708F040C0CE0101968B
:100C10000E94A7108823D1F180911F029981E82FAB
:100C2000F0E0EA53F54C90838F5F80931F02892F89
:100C3000829586958770853049F5892F8F718093CD
:100C4000BF3AE82FF0E0E831F10578F4EA5BFF4FB6
:100C5000EE0FFF1F0590F491E02D099481E003C091
:100C600082E001C08AE08093200281E080931F022D
:100C70001092220210922102109223028FEF9FEF16
:100C800090930301809302011092240260911F024D
:100C9000662309F423C480912102909122020196D7
:100CA000909322028093210280912002681709F01C
:100CB00015C48091BF3AE82FF0E0E831F10508F063
:100CC000F5C3E25AFF4FEE0FFF1F0590F491E02DA0
:100CD000099481E08093250202C01092250260935E
:100CE0002302E4C31092270210922602F8CF87E075
:100CF0000E94290C909329028093280220EC2093D3
:100D0000C63A9C0113E0369527951A95E1F7209392
:100D1000C73A87708295807F8093C83A80911F027E
:100D20008093230283E0C0C383EC8093C63A809112
:100D3000060124C187E00E94290C9C014091B43A2D
:100D40005091B53A4817590738F484E690E09093EB
:100D50002902809328028DC06091C23A7091C33AF3
:100D600068177907A0F4261B370B461B570B84E145
:100D700090E0BC01269FC001279F900D369F900DEB
:100D80001124BA010E94FF17605B7F4F19C0409188
:100D9000BC3A5091BD3A48175907B8F4241B350B9B
:100DA000641B750B84E190E0AC01249FC001259F7A
:100DB000900D349F900D11240E94FF17645C7F4FAB
:100DC000709329026093280254C06091BA3A7091DE
:100DD000BB3A68177907A0F4261B370B461B570B45
:100DE00084E190E0BC01269FC001279F900D369FB3
:100DF000900D1124BA010E94FF17685D7F4FE0CF6C
:100E0000E091B03AF091B13AE817F90798F42E1B47
:100E10003F0B6E1B7F0B84E190E0AC01249FC0016F
:100E2000259F900D349F900D11240E94FF176C5E3A
:100E30007F4FC6CF4091C03A5091C13A48175907E9
:100E4000A0F4841B950B9C01B3E0220F331FBA95CD
:100E5000E1F7E41BF50B880F991F820F931FBF0169
:100E60000E94FF17665F7F4FABCF1092290210924E
:100E7000280281EC8093C63A809128028F77809374
:100E8000C73A80911F02809323020DC387EC8093A1
:100E9000C63A8091BE3A10C02091C73A2F7720936E
:100EA000BE3AF999FECF1FBA8DE190E076C085EC8D
:100EB0008093C63A809104018F77F1C282EC8093CF
:100EC000C63A209135023091360240913702509156
:100ED0003802DA01C901F9E1B695A795979587958A
:100EE000FA95D1F78093C73ADA01C901E2E1B695E4
:100EF000A79597958795EA95D1F78F778093C83A0C
:100F0000DA01C9017BE0B695A795979587957A9503
:100F1000D1F78F778093C93ADA01C90144E0B695D9
:100F2000A795979587954A95D1F78F778093CA3A79
:100F30002F70220F220F220F2093CB3A60932302AF
:100F400086E0B2C28091C73A8F77809304010E94F5
:100F50000E0520910401F999FECF1FBA82E090E0BE
:100F600092BD81BD20BD0FB6F894FA9AF99A0FBED2
:100F70008BC288EC8093C63A809134028770829548
:100F8000807F8DC22091C73A22952770209334022A
:100F9000F999FECF1FBA83E090E092BD81BD20BDDC
:100FA0000FB6F894FA9AF99A0FBE99CEF9997EC2C3
:100FB00087E00E94290C8855924008F477C260911E
:100FC000C83A70E06077707034E0769567953A952E
:100FD000E1F78091C73A90E08F77907023E0880F17
:100FE000991F2A95E1F7682B792B7093AD3A60939E
:100FF000AC3A81E190E041E055E00E94EA1760914F
:10100000C93A70E06E777070769567958091C83AAE
:1010100090E08F70907006E0880F991F0A95E1F7B5
:10102000682B792B7093AF3A6093AE3A83E190E0EE
:1010300041E055E00E94EA176091CA3A70E06F778C
:101040007070660F771F660F771F8091C93A90E026
:1010500081709070982F8827990F682B792B809139
:10106000CB3A90E080769070A5E096958795AA950A
:10107000E1F7682B792B7093C53A6093C43A85E108
:1010800090E041E055E00E94EA176091CC3A70E0B0
:101090006C77707076956795769567958091CB3A69
:1010A00090E08F719070E5E0880F991FEA95E1F765
:1010B000682B792B7093B33A6093B23A87E190E052
:1010C00041E055E00E94EA176091CD3A70E0660F6A
:1010D000771F70708091CC3A90E083709070982F59
:1010E0008827682B792B8091CE3A90E0807490709D
:1010F00036E0969587953A95E1F7682B792B7093B2
:10110000B93A6093B83A89E190E041E055E00E9435
:10111000EA178091CE3A90E0BC016877707023E0C6
:10112000769567952A95E1F78F73907004E0880FA4
:10113000991F0A95E1F7682B792B7093B73A609362
:10114000B63A8BE190E09CC184EC8093C63A209142
:10115000AC3A3091AD3AC90113E0969587951A954E
:10116000E1F78F778093C73A4091AE3A5091AF3A0A
:10117000CA01B6E096958795BA95E1F78F702295EA
:101180002077822B8093C83A2091C43A3091C53A97
:10119000832F86958170440F4E77842B8093C93AB4
:1011A000C90196958795969587958F778093CA3ACA
:1011B0004091B23A5091B33ACA01F5E096958795BD
:1011C000FA95E1F78F712295220F2076822B80937A
:1011D000CB3A2091B83A3091B93A832F8370440FBB
:1011E000440F4C77842B8093CC3AC9019695879510
:1011F0008F778093CD3A4091B63A5091B73A5BC021
:1012000089EC8093C63A2091B43A3091B53AC9013D
:1012100073E0969587957A95E1F78F778093C73A33
:101220004091C23A5091C33ACA0156E096958795CB
:101230005A95E1F78F7022952077822B8093C83AD8
:101240002091BC3A3091BD3A832F86958170440F2E
:101250004E77842B8093C93AC901969587959695C8
:1012600087958F778093CA3A4091BA3A5091BB3AAA
:10127000CA0105E0969587950A95E1F78F71229549
:10128000220F2076822B8093CB3A2091B03A309176
:10129000B13A832F8370440F440F4C77842B809393
:1012A000CC3AC901969587958F778093CD3A409136
:1012B000C03A5091C13ACA01B4E096958795BA9563
:1012C000E1F78F732295220F220F2074822B8093D7
:1012D000CE3A440F440F440F48774093CF3A60937F
:1012E00023028AE0E1C0F999E1C087E00E94290C5D
:1012F0008855924008F4DAC06091C83A70E060778F
:101300007070A4E076956795AA95E1F78091C73A49
:1013100090E08F779070F3E0880F991FFA95E1F7CE
:10132000682B792B7093B53A6093B43A85E090E0DE
:1013300041E055E00E94EA176091C93A70E06E778B
:101340007070769567958091C83A90E08F70907034
:1013500056E0880F991F5A95E1F7682B792B709307
:10136000C33A6093C23A87E090E041E055E00E94C2
:10137000EA176091CA3A70E06F777070660F771F56
:10138000660F771F8091C93A90E081709070982F16
:101390008827990F682B792B8091CB3A90E0807643
:1013A000907025E0969587952A95E1F7682B792B23
:1013B0007093BD3A6093BC3A89E090E041E055E01B
:1013C0000E94EA176091CC3A70E06C777070769565
:1013D0006795769567958091CB3A90E08F71907084
:1013E00005E0880F991F0A95E1F7682B792B709318
:1013F000BB3A6093BA3A8BE090E041E055E00E943E
:10140000EA176091CD3A70E0660F771F7070809197
:10141000CC3A90E083709070982F8827682B792BB6
:101420008091CE3A90E080749070A6E09695879572
:10143000AA95E1F7682B792B7093B13A6093B03A93
:101440008DE090E041E055E00E94EA178091CE3AAD
:1014500090E0BC0168777070F3E076956795FA9537
:10146000E1F78F739070E4E0880F991FEA95E1F738
:10147000682B792B7093C13A6093C03A8FE090E06B
:1014800041E055E00E94EA1780911F0280932302F9
:101490000DC08AEC01C08BEC8093C63A83E0809348
:1014A000C73A6093230282E0809324029091230242
:1014B00080911F02981759F500E010E008C0F8016C
:1014C000EA53F54C80810E94B7100F5F1F4F809147
:1014D000240290E00817190794F307C080912102B5
:1014E000909122028F3F910590F01092200210926D
:1014F0001F021092220210922102109223028FEFFB
:101500009FEF9093030180930201109224020F90A9
:10151000CF91DF911F910F9108958091250288232B
:1015200039F5809126029091270201969093270227
:10153000809326028A5A9A4030F00E94300E109210
:1015400027021092260282E00E94290C90932B021F
:1015500080932A0281E00E94290C90932D028093AF
:101560002C0280E00E94290C90932F0280932E027F
:10157000089580912502882329F580912602909173
:101580002702019690932702809326028A5A9A4056
:1015900030F00E94300E10922702109226028091A5
:1015A0002A0290912B028050944060F010922B02FE
:1015B00010922A0210922D0210922C0210922F02E9
:1015C00010922E0208950E94C10C86E00E94CB0C5E
:1015D0008AE080938B1E0E94FE100E94E71080E03C
:1015E00090E020E137E2F9013197F1F7019647E009
:1015F000803D9407C1F70E9406110E94EF108AE512
:10160000809304011092340285ED92E09093B53AF4
:101610008093B43A88EA92E09093C33A8093C23AB6
:1016200080E892E09093BD3A8093BC3A88E592E0DE
:101630009093BB3A8093BA3A80E392E09093B13AA8
:101640008093B03A8CE192E09093C13A8093C03A93
:1016500084EF91E09093AD3A8093AC3A85EF91E0BE
:101660009093AF3A8093AE3A86EF91E09093C53A6B
:101670008093C43A87EF91E09093B33A8093B23A63
:1016800088EF91E09093B93A8093B83A89EF91E06E
:101690009093B73A8093B63A8FE78093BE3A85E24B
:1016A0008093300288EE96E7AAE0B0E080933D0296
:1016B00090933E02A0933F02B09340028093390280
:1016C00090933A02A0933B02B0933C020E940E0515
:1016D00086E00E94A40C0895882321F480917A006A
:1016E000887F36C0813049F480917A008A7F809368
:1016F0007A0080917A0082602BC0823049F4809118
:101700007A008B7F80937A0080917A00836020C07A
:10171000833049F480917A008C7F80937A008091A5
:101720007A00846015C0843049F480917A008D7FFE
:1017300080937A0080917A0085600AC0853059F4E0
:1017400080917A008E7F80937A0080917A00866003
:1017500080937A000895863029F480917A0087601A
:1017600080937A000895EAE7F0E0808180688083C2
:101770000895EAE7F0E080818F77808308958823D9
:1017800021F480917C008E7F05C0813071F48091BE
:101790007C00816080937C0080917C008D7F8093B1
:1017A0007C0080917C008B7F2BC0823021F4809163
:1017B0007C008E7F05C0833049F480917C0081607D
:1017C00080937C0080917C008260E9CF843049F472
:1017D00080917C008E7F80937C0080917C008D7F47
:1017E0000AC08630D1F480917C008E7F80937C008B
:1017F00080917C00826080937C0080917C0084607A
:1018000080937C0080917C00877F80937C00809116
:101810007C008F7E80937C0008958730C9F480918E
:101820007C00816080937C0080917C00826080934A
:101830007C0080917C00846080937C0080917C009F
:10184000877F80937C0080917C008F7E80937C00DA
:1018500008950E94BF0B80917A00806180937A0086
:1018600080917A00806480937A0080917A0086FD6E
:10187000FCCF2091780040917900942F80E030E0F7
:10188000282B392BC90108959093C5008093C4007B
:10189000662319F0613029F402C088E003C080E1BA
:1018A00001C088E18093C10086E08093C200089562
:1018B0009093CD008093CC00662319F0613029F419
:1018C00002C088E003C080E101C088E18093C900C4
:1018D00086E08093CA0008958FB7F89495B7906812
:1018E00095BF95B7906895BF8FBF08958230B1F0CE
:1018F000833028F4882351F0813001F50BC0843007
:10190000A9F0843078F08530C9F414C08091B1001A
:10191000816017C08091B100826013C08091B100D6
:1019200083600FC08091B10084600BC08091B100D2
:10193000856007C08091B100866003C08091B100CE
:1019400087608093B10008950E94760C1092B200D7
:10195000E0E7F0E0808181608083789408951092C0
:1019600070001092B1000895F89428E088E190E0AA
:101970000FB6F894A895809360000FBE2093600086
:10198000FFCF14BE88E10FB6F894809360001092E8
:1019900060000FBE0895809166009FB7F89485B7E8
:1019A000806885BF85B7806885BF9FBF0898099804
:1019B0000A980B980D980E980F98209821982A98BD
:1019C00023982498259826982798389839983A98F3
:1019D0003B983C983D983E983F9850985198529823
:1019E00053985498559856985798519A529A5A9A8B
:1019F000249A2C98209A239A2B9A83E08093861E0F
:101A000028981092C5008CE08093C40088E18093F0
:101A1000C10086E08093C200ECE7F0E08081806442
:101A2000808385E00E946C0BEAE7F0E080818068AB
:101A300080830895F8945198529824982898209873
:101A4000239A2B98539A5B9853983B9A43983B98C8
:101A50008091861E807F8093861E11B814B817B8B7
:101A60001AB812B815B818B81BB8109270001092B6
:101A7000B10088E10FB6F894809360001092600086
:101A80000FBEEAE7F0E080818F77808385B78061C1
:101A900085BF80B7877F80BF80B7806880BF83B7EE
:101AA000816083BF85B7806685BF8F7D85BF789451
:101AB00083B7817F846083BF889583B78E7F83BF20
:101AC000089540E054E220E137E26DE08091C000EB
:101AD00085FFFCCF8091C0008F7D8093C000509324
:101AE000C600C9010197F1F78091C00085FFFCCFC6
:101AF0008091C0008F7D8093C0005093C600C901C3
:101B00000197F1F78091C00085FFFCCF8091C00064
:101B10008F7D8093C0005093C600C9010197F1F7F3
:101B20008091C00085FFFCCF8091C0008F7D8093A5
:101B3000C0006093C6008091C00085FFFCCF8091FB
:101B4000C0008F7D8093C0006093C6008091C0006C
:101B500087FD04C08091C00087FF25C08091C6002A
:101B6000833409F58091C00085FFFCCF8091C000CF
:101B70008F7D8093C0008DE08093C60020E030E030
:101B80009DE08091C00085FFFCCF8091C0008F7DDB
:101B90008093C0009093C6002F5F3F4F2A303105DD
:101BA00081F781E008954F5F4F3F09F08FCF80E0CC
:101BB000089540E05DE220E137E26DE08091C000F1
:101BC00085FFFCCF8091C0008F7D8093C000509333
:101BD000C600C9010197F1F78091C00085FFFCCFD5
:101BE0008091C0008F7D8093C0005093C600C901D2
:101BF0000197F1F78091C00085FFFCCF8091C00074
:101C00008F7D8093C0005093C600C9010197F1F702
:101C10008091C00085FFFCCF8091C0008F7D8093B4
:101C2000C0006093C6008091C00085FFFCCF80910A
:101C3000C0008F7D8093C0006093C6004F5F4F3F10
:101C400069F08091C00087FD06C08091C00087FDCB
:101C500002C081E008958091C600B0CF80E0089571
:101C60005198529824983091861E20E040E157E226
:101C7000CA010197F1F72F5F2F3FD1F7519A529A7E
:101C80005A9A249A2C9831603093861E08959F9218
:101C9000AF92BF92CF92DF92EF92FF920F931F937A
:101CA000482F50E0FDE060E177E2B3E5BB2EA5E50B
:101CB000AA2EECE29E2E03E3E8E339E3F32E26E3BB
:101CC000E22E14E3A2E3B1E395E3C92E87E3D82E15
:101CD00020E030E08091C00087FD04C08091C0000A
:101CE00087FF02C08091C6002F5F3F4F2436310529
:101CF00089F78091C00085FFFCCF8091C0008F7D67
:101D00008093C000F093C600CB010197F1F780915A
:101D1000C00085FFFCCF8091C0008F7D8093C00004
:101D2000F093C6008091C00085FFFCCF8091C00079
:101D30008F7D8093C000B092C600CB010197F1F770
:101D40008091C00085FFFCCF8091C0008F7D809383
:101D5000C000A092C600CB010197F1F78091C000AE
:101D600085FFFCCF8091C0008F7D8093C000909252
:101D7000C600CB010197F1F74C3009F47DC04D301E
:101D800068F4413009F4C3C0413008F4D7C043308F
:101D900009F4A6C0483009F0E8C08BC04333A9F16C
:101DA000443338F4403109F457C0493109F0DDC0FB
:101DB0003CC04736D1F04F3C09F0D7C08091C000FD
:101DC00085FFFCCF8091C0008F7D8093C000A093E1
:101DD000C6008091C00085FFFCCF8091C0008F7D40
:101DE0008093C0001093C600D6C08091C00085FFCC
:101DF000FCCF8091C0008F7D8093C0001093C600FF
:101E00008091C00085FFFCCFBFC08091C00085FFDE
:101E1000FCCF8091C0008F7D8093C000F092C600FF
:101E20008091C00085FFFCCF98C08091C00085FFE5
:101E3000FCCF8091C0008F7D8093C000B093C6001E
:101E40008091C00085FFFCCF8091C0008F7D809382
:101E5000C000F092C6009FC08091C00085FFFCCFFB
:101E60008091C0008F7D8093C000A093C6008091B8
:101E7000C00085FFFCCF88C08091C00085FFFCCFEB
:101E80008091C0008F7D8093C0000093C600CB017D
:101E90000197F1F78091C00085FFFCCF8091C000D1
:101EA0008F7D8093C000E093C600CB010197F1F7CE
:101EB00072C08091C00085FFFCCF8091C0008F7DF3
:101EC0008093C000C092C6008091C00085FFFCCF07
:101ED0008091C0008F7D8093C000D092C6005BC00F
:101EE0008091C00085FFFCCF8091C0008F7D8093E2
:101EF000C000B093C6008091C00085FFFCCF8091E8
:101F0000C0008F7D8093C000B093C60044C0809114
:101F1000C00085FFFCCF8091C0008F7D8093C00002
:101F2000A093C6008091C00085FFFCCF8091C000C7
:101F30008F7D8093C0000093C6002DC08091C000AB
:101F400085FFFCCF8091C0008F7D8093C0001093EF
:101F5000C6008091C00085FFFCCF8091C0008F7DBE
:101F60008093C000E092C60016C08091C00085FF3B
:101F7000FCCF8091C0008F7D8093C0000093C6008D
:101F80008091C00085FFFCCF8091C0008F7D809341
:101F9000C000E093C6008091C00085FFFCCF809117
:101FA000C0008F7D8093C000F093C600CB010197E5
:101FB000F1F78091C00085FFFCCF8091C0008F7D3C
:101FC0008093C000F093C600CB010197F1F7809198
:101FD000C00087FD04C08091C00087FF06C08091CB
:101FE000C600813411F481E005C05F5F5F3F09F0F6
:101FF0006FCE80E01F910F91FF90EF90DF90CF9018
:10200000BF90AF909F90089530E020E06DE040E1F8
:1020100057E2E7E475E58091C00085FFFCCF809131
:10202000C0008F7D8093C0006093C600CA010197F5
:10203000F1F78091C00085FFFCCF8091C0008F7DBB
:102040008093C0006093C6008091C00085FFFCCFE4
:102050008091C0008F7D8093C000E093C600CA01CC
:102060000197F1F78091C00085FFFCCF8091C000FF
:102070008F7D8093C0007093C600CA010197F1F76D
:102080008091C00085FFFCCF8091C0008F7D809340
:10209000C0006093C600CA010197F1F78091C000AB
:1020A00085FFFCCF8091C0008F7D8093C00060933E
:1020B000C600CA010197F1F73F5F3F3F21F18091D0
:1020C000C00087FD14C08091C00087FD10C024337C
:1020D00089F0253328F4213389F0223399F405C09F
:1020E000253371F0293371F407C02FEC0CC0209117
:1020F000C60091CF27E607C023E305C023E003C055
:1021000028E001C02CE0822F0895519A529A5A9AE1
:10211000249A2C988091861E81608093861E089553
:102120005198529824988091861E8E7F8093861EA7
:1021300008958091861E8170089580B18295817086
:10214000089580B182958695869581700895FC01E9
:102150008091C00087FD06C08091C00087FD02C04D
:1021600080E008958091C600808381E00895982FD3
:102170008091C00085FFFCCF8091C0008F7D80934F
:10218000C0009093C6000895882311F428980895FC
:10219000813011F080E00895289A81E00895209A16
:1021A000239A2B9A8091861E82608093861E0895C2
:1021B00028982098239A2B988091861E8D7F809353
:1021C000861E08958091861E869581700895539A83
:1021D0005B9A8091861E84608093861E0895539A30
:1021E0005B9853988091861E8B7F8093861E0895FE
:1021F0008091861E86958695817008953B9A439AB4
:102200008091861E88608093861E08953B9A43982D
:102210003B988091861E877F8093861E08958091CB
:10222000861E8695869586958170089582B18695DD
:102230008695869581700895EF92FF920F931F9374
:102240007B018C0120E030E040E05FE40E94F81464
:1022500088238CF0C801B70120E030E040E05FE463
:102260000E9494120E9428159B01AC01205030401E
:102270004040504806C0C801B7010E9428159B0184
:10228000AC01B901CA011F910F91FF90EF90089521
:10229000A0E0B0E0EEE4F1E10C945018DC012B0179
:1022A000FA019C91923008F439C1EB0188818230A7
:1022B00008F433C1943069F4843009F02FC11196C9
:1022C0009C9111978981981709F428C1A7E0B1E082
:1022D00025C1843009F421C18230A9F4923009F07B
:1022E0001DC19A01AD0188E0EA010990AE01E90142
:1022F00009929E018150C1F7E201898111969C915A
:102300008923818308C1923009F407C112962D9068
:102310003C901397EB018A819B811496AD90BD9000
:10232000CD90DC901797EC80FD800E811F8191018C
:10233000281B390BB90137FF04C066277727621BBA
:10234000730B603271050CF061C0121613066CF548
:1023500037014801062E04C09694879477946794B9
:102360000A94D2F721E030E040E050E004C0220FB0
:10237000331F441F551F6A95D2F72150304040400B
:1023800050402E213F214023512321153105410585
:10239000510521F021E030E040E050E079018A0170
:1023A000E628F728082919293CC0232BD1F1260E4D
:1023B000371E35014601062E04C096948794779403
:1023C00067940A94D2F721E030E040E050E004C086
:1023D000220F331F441F551F6A95D2F721503040FA
:1023E000404050402A213B214C215D2121153105DF
:1023F0004105510521F021E030E040E050E0590175
:102400006A01A628B728C828D9280BC082159305C9
:102410002CF01C01AA24BB24650103C0EE24FF2478
:10242000870111969C91D20111968C91981709F40D
:1024300045C0992339F0A80197012A193B094C0995
:102440005D0906C0A60195012E193F09400B510BED
:1024500057FD08C01182338222822483358346834C
:1024600057831DC081E08183338222828827992788
:10247000DC01821B930BA40BB50B84839583A6838D
:10248000B7830DC0220F331F441F551F248335838C
:10249000468357838281938101979383828324812A
:1024A000358146815781DA01C9010197A109B10936
:1024B0008F5F9F4FAF4FBF4328F30BC09183338291
:1024C0002282EA0CFB1C0C1D1D1DE482F582068392
:1024D000178383E08083248135814681578157FFAC
:1024E0001AC0C901AA2797FDA095BA2F81709070D4
:1024F000A070B0705695479537952795822B932BF2
:10250000A42BB52B84839583A683B7838281938183
:10251000019693838283DF0101C0D201CD01CDB743
:10252000DEB7E2E10C946C18A0E2B0E0EAE9F2E177
:102530000C945C1869837A838B839C832D833E8300
:102540004F835887E9E0EE2EF12CEC0EFD1ECE01F4
:102550000196B7010E9419178E010F5E1F4FCE0121
:102560000596B8010E9419178A8991E089278A8BFC
:10257000C701B801AE01475E5F4F0E9448110E943B
:102580004416A096E6E00C947818A0E2B0E0EBECDC
:10259000F2E10C945C1869837A838B839C832D838E
:1025A0003E834F835887F9E0EF2EF12CEC0EFD1E91
:1025B000CE010196B7010E9419178E010F5E1F4FC1
:1025C000CE010596B8010E941917C701B801AE01E6
:1025D000475E5F4F0E9448110E944416A096E6E0B5
:1025E0000C947818A0E2B0E0E8EFF2E10C945018F7
:1025F00069837A838B839C832D833E834F835887A3
:10260000CE010196BE01675F7F4F0E941917CE0170
:102610000596BE016F5E7F4F0E9419179985923013
:1026200088F089898230C8F0943019F4823051F4EE
:1026300004C0843029F4923081F487E091E0C6C070
:10264000923049F420E09A858A89981321E02A87FC
:10265000CE010996BBC0823049F420E09A858A8970
:10266000981321E02A8BCE014196B0C02D843E8480
:102670004F8458886D887E888F88988CEE24FF243C
:102680008701AA24BB24650140E050E060E070E0CF
:10269000E0E0F0E0C10181709070892BE9F0E60C78
:1026A000F71C081D191D9A01AB012A0D3B1D4C1D7D
:1026B0005D1D80E090E0A0E0B0E0E614F7040805BE
:1026C000190520F481E090E0A0E0B0E0BA01A90192
:1026D000480F591F6A1F7B1FAA0CBB1CCC1CDD1C9A
:1026E00097FE08C081E090E0A0E0B0E0A82AB92AF7
:1026F000CA2ADB2A3196E032F10549F0660C771CD4
:10270000881C991C5694479437942794C3CFFA8514
:10271000EA892B893C898B859C85280F391F2E5F80
:102720003F4F17C0CA0181709070892B61F01695D8
:102730000795F794E79480E090E0A0E0B0E8E82AFD
:10274000F92A0A2B1B2B76956795579547952F5F8E
:102750003F4F77FDE7CF0CC0440F551F661F771F13
:1027600017FD4160EE0CFF1C001F111F215030406F
:10277000403090E0590790E0690790E4790760F3F2
:102780002B8F3C8FDB01CA018F779070A070B070E7
:1027900080349105A105B10561F447FD0AC0E1143B
:1027A000F1040105110529F0405C5F4F6F4F7F4F29
:1027B00040781A8EFE1711F081E08A8F4D8F5E8F60
:1027C0006F8F78A383E0898FCE0149960E944416CB
:1027D000A096E2E10C946C18A8E1B0E0E2EFF3E11E
:1027E0000C94581869837A838B839C832D833E8352
:1027F0004F835887B9E0EB2EF12CEC0EFD1ECE0175
:102800000196B7010E9419178E010F5E1F4FCE016E
:102810000596B8010E9419172985223008F47EC058
:102820003989323010F4B8017CC08A859A898927A9
:102830008A87243011F0223031F4231709F06EC05A
:1028400067E071E06EC0343039F41D861E861F8645
:10285000188A1C861B8604C0323021F484E08987E4
:10286000B7015FC02B853C858B899C89281B390B60
:102870003C872B87ED84FE840F851889AD88BE8840
:10288000CF88D88CEA14FB040C051D0540F4EE0C2F
:10289000FF1C001F111F215030403C872B8720E078
:1028A00030E040E050E080E090E0A0E0B0E460E0A4
:1028B00070E0EA14FB040C051D0540F0282B392BB1
:1028C0004A2B5B2BEA18FB080C091D09B695A79546
:1028D00097958795EE0CFF1C001F111F6F5F7F4FB0
:1028E0006F31710531F7DA01C9018F779070A070EF
:1028F000B07080349105A105B10561F427FD0AC0CF
:10290000E114F1040105110529F0205C3F4F4F4F00
:102910005F4F20782D873E874F87588BBE01675FBA
:102920007F4FCB010E9444166896EAE00C9474181D
:10293000A8E1B0E0EEE9F4E10C945C1869837A83D5
:102940008B839C832D833E834F83588789E0E82EB9
:10295000F12CEC0EFD1ECE010196B7010E94191755
:102960008E010F5E1F4FCE010596B8010E94191708
:102970008985823040F08989823028F0C701B8010A
:102980000E94911701C081E06896E6E00C947818E7
:10299000A8E1B0E0EEECF4E10C945C1869837A8372
:1029A0008B839C832D833E834F83588789E0E82E59
:1029B000F12CEC0EFD1ECE010196B7010E941917F5
:1029C0008E010F5E1F4FCE010596B8010E941917A8
:1029D0008985823040F08989823028F0C701B801AA
:1029E0000E94911701C08FEF6896E6E00C9478186A
:1029F000A8E1B0E0EEEFF4E10C945C1869837A830F
:102A00008B839C832D833E834F83588789E0E82EF8
:102A1000F12CEC0EFD1ECE010196B7010E94191794
:102A20008E010F5E1F4FCE010596B8010E94191747
:102A30008985823040F08989823028F0C701B80149
:102A40000E94911701C08FEF6896E6E00C94781809
:102A5000ACE0B0E0EEE2F5E10C94601869837A83B3
:102A60008B839C83CE010196BE016B5F7F4F0E94DA
:102A700019178D81823061F1823050F1843021F458
:102A80008E81882351F12EC02F81388537FD20C0DB
:102A90006E812F3131051CF06623F9F023C08EE1E1
:102AA00090E0821B930B29853A854B855C8504C099
:102AB00056954795379527958A95D2F76623B1F0B5
:102AC00050954095309521953F4F4F4F5F4F0EC029
:102AD00020E030E040E050E009C02FEF3FEF4FEF43
:102AE0005FE704C020E030E040E050E8B901CA01EF
:102AF0002C96E2E00C947C18A8E0B0E0E2E8F5E166
:102B00000C9458187B018C016115710581059105A4
:102B100019F482E0898360C083E089838EE1C82E46
:102B2000D12CDC82CB82ED82FE820F831887C80114
:102B3000B7010E94F515FC013197F7FF3BC0222732
:102B400033272E1B3F0B57016801022E04C0D69479
:102B5000C794B794A7940A94D2F740E050E060E09D
:102B600070E081E090E0A0E0B0E004C0880F991F21
:102B7000AA1FBB1F2A95D2F70197A109B1098E217F
:102B80009F21A023B1230097A105B10521F041E0C9
:102B900050E060E070E04A295B296C297D294D8373
:102BA0005E836F8378878EE190E08E1B9F0B9C8302
:102BB0008B8312C0309781F00E2E04C0EE0CFF1CE8
:102BC000001F111F0A94D2F7ED82FE820F8318872F
:102BD000CE1ADF0ADC82CB821A82CE0101960E94D5
:102BE00044162896EAE00C947418EF92FF920F9323
:102BF0001F937B018C0180E0E81680E0F80681E0FD
:102C0000080780E0180788F48FEFE816F104010543
:102C1000110531F028F088E090E0A0E0B0E017C0A6
:102C200080E090E0A0E0B0E012C080E0E81680E034
:102C3000F80680E0080781E0180728F088E190E0B6
:102C4000A0E0B0E004C080E190E0A0E0B0E020E2CD
:102C500030E040E050E0281B390B4A0B5B0B04C00E
:102C600016950795F794E7948A95D2F7F701E15FF7
:102C7000FE4F8081281B310941095109C9011F916B
:102C80000F91FF90EF900895DF92EF92FF920F93D4
:102C90001F93FC01E480F58006811781D18080813B
:102CA000823048F480E090E0A0E1B0E0E82AF92A20
:102CB0000A2B1B2BA5C0843009F49FC0823021F45D
:102CC000EE24FF24870105C0E114F104010511057C
:102CD00019F4E0E0F0E096C0628173819FEF623802
:102CE00079070CF05BC022E83FEF261B370B2A3137
:102CF00031052CF020E030E040E050E02AC0B8017F
:102D0000A701022E04C076956795579547950A94BA
:102D1000D2F781E090E0A0E0B0E004C0880F991FF6
:102D2000AA1FBB1F2A95D2F70197A109B1098E21CD
:102D30009F21A023B1230097A105B10521F081E0D7
:102D400090E0A0E0B0E09A01AB01282B392B4A2B90
:102D50005B2BDA01C9018F779070A070B07080345E
:102D60009105A105B10539F427FF09C0205C3F4F4B
:102D70004F4F5F4F04C0215C3F4F4F4F5F4FE0E02C
:102D8000F0E02030A0E03A07A0E04A07A0E45A07AC
:102D900010F0E1E0F0E079018A0127C060387105A8
:102DA00064F5FB01E158FF4FD801C7018F779070A0
:102DB000A070B07080349105A105B10539F4E7FE2B
:102DC0000DC080E490E0A0E0B0E004C08FE390E0AC
:102DD000A0E0B0E0E80EF91E0A1F1B1F17FF05C098
:102DE00016950795F794E794319687E01695079521
:102DF000F794E7948A95D1F705C0EE24FF24870164
:102E0000EFEFF0E06E2F679566276795902F9F771D
:102E1000D794DD24D7948E2F8695492F462B582F93
:102E20005D29B701CA011F910F91FF90EF90DF90CC
:102E30000895FC01DB01408151812281622F6F776F
:102E400070E0221F2227221F9381892F880F822B57
:102E5000282F30E0991F9927991F11969C9311975D
:102E600021153105A9F5411551056105710511F4CB
:102E700082E037C082E89FEF13969C938E9312975F
:102E80009A01AB0167E0220F331F441F551F6A955B
:102E9000D1F783E08C930DC0220F331F441F551FC1
:102EA00012968D919C911397019713969C938E93F4
:102EB0001297203080E0380780E0480780E4580708
:102EC00058F314962D933D934D935C931797089563
:102ED0002F3F310579F4411551056105710519F44C
:102EE00084E08C93089564FF03C081E08C9312C04A
:102EF0001C9210C02F57304013963C932E9312977C
:102F000083E08C9387E0440F551F661F771F8A95D7
:102F1000D1F7706414964D935D936D937C931797DE
:102F200008951F93DC01FB019C91923008F447C087
:102F30008081823008F443C0943051F411961C9182
:102F4000843099F58181682F70E0611B71093FC061
:102F5000843021F0923031F48230B9F181818823BC
:102F600089F12DC011961C9111978230F1F0818169
:102F70001817D9F412962D913C9113978281938161
:102F80008217930794F028173907BCF014968D9197
:102F90009D910D90BC91A02D248135814681578152
:102FA000281739074A075B0718F4112341F00AC0B4
:102FB00082179307A407B50740F4112319F061E0C5
:102FC00070E005C06FEF7FEF02C060E070E0CB0102
:102FD0001F910895DF92EF92FF920F931F93D72EC8
:102FE0007A018C01FA010995C80101966D2DF7014E
:102FF00009951F910F91FF90EF90DF900895AA1B04
:10300000BB1B51E107C0AA1FBB1FA617B70710F0D3
:10301000A61BB70B881F991F5A95A9F78095909505
:10302000BC01CD01089597FB092E05260ED057FD52
:1030300004D014D00AD0001C38F450954095309537
:1030400021953F4F4F4F5F4F0895F6F7909580952C
:10305000709561957F4F8F4F9F4F0895A1E21A2E73
:10306000AA1BBB1BFD010DC0AA1FBB1FEE1FFF1F2C
:10307000A217B307E407F50720F0A21BB30BE40B7C
:10308000F50B661F771F881F991F1A9469F76095C3
:103090007095809590959B01AC01BD01CF0108957D
:1030A0002F923F924F925F926F927F928F929F9258
:1030B000AF92BF92CF92DF92EF92FF920F931F9346
:1030C000CF93DF93CDB7DEB7CA1BDB0B0FB6F894F7
:1030D000DEBF0FBECDBF09942A88398848885F8437
:1030E0006E847D848C849B84AA84B984C884DF80A8
:1030F000EE80FD800C811B81AA81B981CE0FD11D8C
:103100000FB6F894DEBF0FBECDBFED01089511F4E8
:103110000EF44DC03EC05DD0D0F39923D9F3CEF369
:103120009F57550B87FF46D00024A0E640EA900148
:1031300080585695979528F4805C660F771F881FF6
:1031400020F026173707480730F4621B730B840BF7
:10315000202931294A2BA69517940794202531253B
:103160004A2758F7660F771F881F20F02617370762
:10317000480730F4620B730B840B200D311D411D89
:10318000A09581F7B901842F9158880F969587955E
:1031900008959F3F31F0915020F48795779567957A
:1031A000B795880F911D9695879597F908959FEF8C
:1031B00080EC089591505040660F771F881FD2F71A
:1031C000089557FD9058440F551F59F05F3F71F017
:1031D0004795880F97FB991F61F09F3F79F087957E
:1031E0000895121613061406551FF2CF4695F1DF07
:1031F00008C0161617061806991FF1CF8695710597
:0A320000610508940895F894FFCFCB
:10320A000100FFFF5A010200000000000000000058
:10321A00010202030303030404040404040404056E
:10322A000505050505050505050505050505050643
:10323A000606060606060606060606060606060624
:10324A000606060606060606060606060606060713
:10325A0007070707070707070707070707070707F4
:10326A0007070707070707070707070707070707E4
:10327A0007070707070707070707070707070707D4
:10328A0007070707070707070707070707070708C3
:10329A0008080808080808080808080808080808A4
:1032AA000808080808080808080808080808080894
:1032BA000808080808080808080808080808080884
:1032CA000808080808080808080808080808080874
:1032DA000808080808080808080808080808080864
:1032EA000808080808080808080808080808080854
:1032FA000808080808080808080808080808080844
:10330A00080808080808080808080808080808003B
:00000001FF
