:100000000C947E000C949D000C949D000C949D001B
:100010000C949D000C949D000C949D000C949D00EC
:100020000C949D000C949D000C949D000C94E30096
:100030000C949D000C949D000C949D000C949D00CC
:100040000C949D000C949D000C949D000C949D00BC
:100050000C949D000C949D000C949D000C949D00AC
:100060000C949D000C949D000C949D000C949D009C
:100070000C949D000C949D000C949D000C949D008C
:100080000C949D000C949D000C949D0055145514E7
:100090005514551455145314551459145514531418
:1000A000551453145514531455145514551455140C
:1000B00055145314551459145514551455145714F4
:1000C000531455144B156E152F16581968155819D9
:1000D00062179E1628167316581958191A162016E4
:1000E000581946153D15411585168E16D4174F180B
:1000F00015191A19241906159716901411241FBEE4
:10010000CFEFD0E4DEBFCDBF11E0A0E0B1E0E0EB87
:10011000F8E400E00BBF02C007900D92AA30B107CF
:10012000D9F716E3AAE0B1E001C01D92A531B107ED
:10013000E1F70E94E7020C9456240C9400000F9300
:100140001F93CF93DF93EC018B0182E590E0689FD2
:10015000F001699FF00D789FF00D1124EC51F74FDD
:1001600040E050E020E030E080819181480F591F4D
:100170002F5F3F4F82819381819391932832310584
:1001800099F7CA0168E270E00E94D4239B0182E5DE
:1001900090E0089FF001099FF00D189FF00D1124C9
:1001A000EC5CF64FD183C0836C177D0720F4BE0151
:1001B000621B730B02C06C1B7D0BCB01DF91CF91D7
:1001C0001F910F9108951F920F920FB60F920BB6C9
:1001D0000F9211241F932F933F934F935F936F932D
:1001E0007F938F939F93AF93BF93EF93FF930E945F
:1001F000582320913001882331F180913101909171
:10020000320101969093320180933101222309F04B
:1002100025C18156994008F421C11092190110920C
:10022000180110921B0110921A01109211011092E4
:10023000100110921301109212010E943E2281E0DF
:10024000809330010BC110923201109231012223B0
:1002500021F00E94332210923001809128018823DE
:1002600001F52091DB353091DC352F5F3F4F309326
:10027000DC352093DB359091060185E0989FC00125
:1002800011242817390719F40E94EC220AC00A9693
:100290002817390731F40E94F4221092DC351092AD
:1002A000DB3590912C01992389F48091070180938B
:1002B0002C01809150018093B20011E010931E0137
:1002C00080915201882309F050C00DC0913019F47B
:1002D0008091510102C0809150018093B2009150F1
:1002E00090932C01BBC08091530190915401A09137
:1002F0005501B09156010196A11DB11D8093530186
:1003000090935401A0935501B09356010E94592235
:10031000882329F410922F0110921D019FC0809113
:100320002F01882311F410932F0120915F01309148
:100330006001409161015091620180915B01909157
:100340005C01A0915D01B0915E0182179307A40743
:10035000B50741F020935B0130935C0140935D0150
:1003600050935E010E94191479C0823009F076C062
:100370008091F935882399F080915B0190915C011F
:10038000A0915D01B0915E010197A109B10980932F
:100390005B0190935C01A0935D01B0935E0180913D
:1003A000530190915401A0915501B09156010196CD
:1003B000A11DB11D8093530190935401A093550149
:1003C000B09356010E945922882311F510921D0105
:1003D0008091290190912A0127E08830920730F41A
:1003E000019690932A018093290138C08850974044
:1003F000A9F50E9463220E94332289E097E090933E
:100400002A018093290180E29EE40197F1F726C03A
:100410008091F9358823E9F020915F0130916001E6
:10042000409161015091620180915B0190915C016A
:10043000A0915D01B0915E0182179307A407B507F3
:1004400041F020935B0130935C0140935D01509338
:100450005E010E94191481E080932801FF91EF91C1
:10046000BF91AF919F918F917F916F915F914F91CC
:100470003F912F911F910F900BBE0F900FBE0F90C9
:100480001F901895EF92FF920F931F93CF93DF93D6
:10049000EC018B017A0180911D01882309F47EC053
:1004A0001092E5352091DC093091DD092C173D07CC
:1004B00058F481E08093E535CE01821B930B909335
:1004C000DD098093DC0906C02C1B3D0B3093DD0950
:1004D0002093DC092091E1093091E20920173107CE
:1004E00068F48091E53582608093E535C801821B10
:1004F000930B9093E2098093E10906C0201B310B16
:100500003093E2092093E1092091D5353091D63519
:100510002E153F0568F48091E53584608093E535BC
:10052000C701821B930B9093D6358093D53506C0B7
:100530002E193F093093D6352093D535A091DC098B
:10054000B091DD09A032B10518F5E091E109F09113
:10055000E209E032F105E0F42091D5353091D6354D
:1005600020323105A8F44091E535842F81708295C1
:10057000880F807E642F62706295607F6E2B44705E
:10058000440F440F440F422B8A2B0E94B51A0CC013
:10059000CE01B801A7010E94E31A06C0CE010E9455
:1005A000E31A81E080931D01D093DD09C093DC093B
:1005B0001093E2090093E109F092D635E092D53527
:1005C000DF91CF911F910F91FF90EF9008954F927F
:1005D0005F926F927F928F929F92AF92BF92CF92D3
:1005E000DF92EF92FF920F931F93CF93DF930E94BE
:1005F00058238823A1F020E030E040E157E20CC00E
:10060000FA013197F1F70196883C9105C9F72F5F00
:100610003F4F2A30310519F080E090E0F1CF109281
:10062000DE351092DD351092DB091092DA09109256
:10063000DE090E94801B809106012CE3829FC0018D
:10064000112490930D0180930C01809164008160CE
:100650008093640080916400846080936400809142
:10066000640080628093640080916400886080935D
:1006700064008091640080688093640066246A94BA
:10068000762C40E1442E47E2542E80911E018823AF
:1006900011F40C94BE13809164008E7F80936400EB
:1006A0000E940A1E10921E0180E00E94801E9093FC
:1006B00047018093460181E00E94801E909349018A
:1006C0008093480182E00E94801E90934B018093AA
:1006D0004A01C090E035D090E135E090E235F090ED
:1006E000E335809146019091470160E070E00E94FF
:1006F0009F005C01809148019091490161E070E0A8
:100700000E949F008C0180914A0190914B0162E010
:1007100070E00E949F000A0D1B1D080F191FB801F1
:1007200080E090E06C0D7D1D8E1D9F1D6093E03577
:100730007093E1358093E2359093E3352091530136
:1007400030915401409155015091560129323105A3
:100750004105510508F485C0209100013091010147
:100760002115310509F076C028E130E040E050E085
:100770000E94E823C901DA01E0911801F091190102
:10078000803020E0920721E0A20720E0B20738F095
:10079000EE0FFF1FED59FE4F7182608206C0EE0F13
:1007A000FF1FED59FE4F918380831092E035109228
:1007B000E1351092E2351092E33580911801909165
:1007C000190101969093190180931801805C934060
:1007D00021F410921901109218018091100190914A
:1007E000110101969093110180931001209118013D
:1007F0003091190180911A0190911B012817390736
:10080000B1F4C901019690931B0180931A01805C99
:10081000934021F410921B0110921A018091120151
:100820009091130101969093130180931201E0912E
:100830001801F0911901EE0FFF1FED59FE4F1182C3
:10084000108280910C0190910D0190930101809391
:10085000000114C021503040309301012093000169
:100860000DC0283231054105510541F41092E035A3
:100870001092E1351092E2351092E3358091DE0955
:10088000813039F1813030F08230D1F1833009F09C
:1008900076C056C08091DA099091DB09FC0114E022
:1008A000EE0FFF1F1A95E1F7E81BF90BED51F64F1C
:1008B00080914601909147019695879596958795E9
:1008C0008083809146018295880F880F807C818388
:1008D00056C08091DA099091DB09FC01A4E0EE0F8B
:1008E000FF1FAA95E1F7E81BF90BED51F64F909128
:1008F00047018381892B83838091460184833FC094
:100900008091DA099091DB09FC0174E0EE0FFF1F82
:100910007A95E1F7E81BF90BED51F64F809146010E
:100920009091470166E0969587956A95E1F7278152
:10093000282B278380914601880F880F80871FC04E
:100940008091DA099091DB09FC0154E0EE0FFF1F62
:100950005A95E1F7E81BF90BED51F64F80914601EE
:100960009091470144E0969587954A95E1F7238554
:10097000282B2387809146018295807F84878091F0
:10098000DE09813049F1813038F0823009F443C00A
:10099000833009F076C056C08091DA099091DB0966
:1009A000FC0134E0EE0FFF1F3A95E1F7E81BF90B6D
:1009B000ED51F64F809148019091490124E09695C0
:1009C00087952A95E1F72181282B21838091480181
:1009D0008295807F828355C08091DA099091DB09EE
:1009E000FC0104E0EE0FFF1F0A95E1F7E81BF90B8D
:1009F000ED51F64F80914801909149019695879568
:100A0000969587958583809148018295880F880FF8
:100A1000807C868336C08091DA099091DB09FC01E5
:100A2000B4E0EE0FFF1FBA95E1F7E81BF90BED51AB
:100A3000F64F909149018085892B808780914801EC
:100A400081871FC08091DA099091DB09FC01A4E045
:100A5000EE0FFF1FAA95E1F7E81BF90BED51F64FDA
:100A6000809148019091490176E0969587957A9515
:100A7000E1F72485282B248780914801880F880F6F
:100A800085878091DE09813049F1813038F08230EC
:100A900009F444C0833009F076C05FC08091DA0960
:100AA0009091DB09FC0164E0EE0FFF1F6A95E1F70E
:100AB000E81BF90BED51F64F80914A0190914B01E3
:100AC00056E0969587955A95E1F72281282B228347
:100AD00080914A01880F880F838355C08091DA097D
:100AE0009091DB09FC0144E0EE0FFF1F4A95E1F70E
:100AF000E81BF90BED51F64F80914A0190914B01A3
:100B000034E0969587953A95E1F72681282B268340
:100B100080914A018295807F878335C08091DA0970
:100B20009091DB09FC0124E0EE0FFF1F2A95E1F70D
:100B3000E81BF90BED51F64F80914A0190914B0162
:100B40009695879596958795828780914A0182959B
:100B5000880F880F807C838716C08091DA09909176
:100B6000DB09FC0114E0EE0FFF1F1A95E1F7E81B0B
:100B7000F90BED51F64F90914B018585892B8587B7
:100B800080914A0186878091DE098F5F8093DE091C
:100B9000843010F01092DE09809152019091DE09AC
:100BA000882309F01EC1913051F0913008F4BEC085
:100BB000923009F444C0933009F0FAC07BC08091B0
:100BC000DA099091DB09FC01B4E0EE0FFF1FBA9542
:100BD000E1F7E81BF90BED51F64F4181242F2295E7
:100BE00026952695237030E0808190E0880F991F2C
:100BF000880F991F282B392B3093470120934601EA
:100C000050E04F73507074E0440F551F7A95E1F730
:100C10002281822F82958F7090E0482B592B509320
:100C200049014093480130E02F70307066E0220F98
:100C3000331F6A95E1F7838186958695B2C08091CE
:100C4000DA099091DB09FC0154E0EE0FFF1F5A9581
:100C5000E1F7E81BF90BED51F64F838190E08370CB
:100C60009070982F8827248130E0822B932B9093CB
:100C70004701809346012681422F4295469546952D
:100C8000437050E0858190E0880F991F880F991F6D
:100C9000482B592B509349014093480130E02F7362
:100CA000307004E0220F331F0A95E1F787818295A7
:100CB0008F7077C08091DA099091DB09FC0114E014
:100CC000EE0FFF1F1A95E1F7E81BF90BED51F64FF8
:100CD0002085422F4695469550E0878190E08F70A1
:100CE0009070B6E0880F991FBA95E1F7482B592B01
:100CF000509347014093460130E023703070322F0B
:100D00002227818590E0282B392B309349012093AD
:100D100048012385229526952695237030E082850B
:100D200090E0880F991F880F991F3CC08091DA09C5
:100D30009091DB09FC0164E0EE0FFF1F6A95E1F77B
:100D4000E81BF90BED51F64F4485242F22952F70A7
:100D500030E0838590E08F73907054E0880F991F86
:100D60005A95E1F7282B392B309347012093460100
:100D700050E04F70507006E0440F551F0A95E1F7A0
:100D80002585822F8695869590E0482B592B509388
:100D900049014093480130E023703070322F222700
:100DA000868590E0282B392B30934B0120934A0104
:100DB00080912F01813029F40E94911982E0809363
:100DC0002F01609148017091490140914A01509171
:100DD0004B0180914601909147010E94E31A0C94C7
:100DE0009913992369F480911F019091200122E0C9
:100DF0008E3E920728F401969093200180931F0164
:100E000080912801882311F40C9499130E94EC22FC
:100E100081E080931C0110924D0110924C01809151
:100E20005201882309F431CCC0E0D0E08FEF0E945A
:100E30007B2280911E01882309F47AC210921E0140
:100E400080E00E94801E909347018093460181E0DC
:100E50000E94801E909349018093480182E00E9485
:100E6000801E90934B0180934A01E090E035F09012
:100E7000E1350091E2351091E33580914601909182
:100E8000470160E070E00E949F005C018091480192
:100E90009091490161E070E00E949F006C01809197
:100EA0004A0190914B0162E070E00E949F00CA0CE1
:100EB000DB1CC80ED91EB60180E090E06E0D7F1DD0
:100EC000801F911F6093E0357093E1358093E23588
:100ED0009093E33520915301309154014091550195
:100EE00050915601293231054105510508F485C05C
:100EF00020910001309101012115310509F076C0E2
:100F000028E130E040E050E00E94E823C901DA0126
:100F1000E0911801F0911901803020E0920721E062
:100F2000A20720E0B20738F0EE0FFF1FED59FE4F89
:100F30007182608206C0EE0FFF1FED59FE4F918354
:100F400080831092E0351092E1351092E2351092D4
:100F5000E335809118019091190101969093190140
:100F600080931801805C934021F410921901109233
:100F70001801809110019091110101969093110137
:100F800080931001209118013091190180911A016C
:100F900090911B0128173907B1F4C901019690936C
:100FA0001B0180931A01805C934021F410921B0175
:100FB00010921A0180911201909113010196909361
:100FC000130180931201E0911801F0911901EE0FC5
:100FD000FF1FED59FE4F1182108280910C019091FC
:100FE0000D01909301018093000114C02150304005
:100FF00030930101209300010DC0283231054105D5
:10100000510541F41092E0351092E1351092E2352D
:101010001092E3358091DE09813039F1813030F072
:101020008230D1F1833009F076C056C08091DA0960
:101030009091DB09FC0164E0EE0FFF1F6A95E1F778
:10104000E81BF90BED51F64F809146019091470155
:101050009695879596958795808380914601829590
:10106000880F880F807C818356C08091DA09909127
:10107000DB09FC0144E0EE0FFF1F4A95E1F7E81B96
:10108000F90BED51F64F909147018381892B8383B2
:101090008091460184833FC08091DA099091DB09F9
:1010A000FC0134E0EE0FFF1F3A95E1F7E81BF90B66
:1010B000ED51F64F809146019091470126E09695BB
:1010C00087952A95E1F72781282B27838091460170
:1010D000880F880F80871FC08091DA099091DB0903
:1010E000FC0104E0EE0FFF1F0A95E1F7E81BF90B86
:1010F000ED51F64F809146019091470114E096958D
:1011000087951A95E1F72385282B2387809146013F
:101110008295807F84878091DE09813049F181301A
:1011200038F0823009F443C0833009F076C056C0ED
:101130008091DA099091DB09FC01B4E0EE0FFF1F0A
:10114000BA95E1F7E81BF90BED51F64F8091480194
:1011500090914901A4E096958795AA95E1F72181A0
:10116000282B2183809148018295807F828355C0FE
:101170008091DA099091DB09FC0174E0EE0FFF1F0A
:101180007A95E1F7E81BF90BED51F64F8091480194
:10119000909149019695879596958795858380913D
:1011A00048018295880F880F807C868336C08091A5
:1011B000DA099091DB09FC0154E0EE0FFF1F5A950C
:1011C000E1F7E81BF90BED51F64F9091490180854D
:1011D000892B80878091480181871FC08091DA091F
:1011E0009091DB09FC0144E0EE0FFF1F4A95E1F707
:1011F000E81BF90BED51F64F8091480190914901A0
:1012000036E0969587953A95E1F72485282B248733
:1012100080914801880F880F85878091DE09813091
:1012200049F1813038F0823009F444C0833009F04C
:1012300076C05FC08091DA099091DB09FC0124E05F
:10124000EE0FFF1F2A95E1F7E81BF90BED51F64F62
:1012500080914A0190914B0106E0969587950A95F9
:10126000E1F72281282B228380914A01880F880F81
:10127000838355C08091DA099091DB09FC0114E069
:10128000EE0FFF1F1A95E1F7E81BF90BED51F64F32
:1012900080914A0190914B01B4E096958795BA955B
:1012A000E1F72681282B268380914A018295807F51
:1012B000878335C08091DA099091DB09FC01A4E0B5
:1012C000EE0FFF1FAA95E1F7E81BF90BED51F64F62
:1012D00080914A0190914B019695879596958795B7
:1012E000828780914A018295880F880F807C83874E
:1012F00016C08091DA099091DB09FC0164E0EE0FE1
:10130000FF1F6A95E1F7E81BF90BED51F64F90913D
:101310004B018585892B858780914A01868780913D
:10132000DE098F5F8093DE09843010F01092DE09B1
:101330002196C436D10509F079CD0E94B3190E94D7
:10134000A3190E94911980911F0190912001815051
:10135000904C880F991F880F991F0E949A1A0E941B
:10136000F71980911F019091200101978D5E9240A5
:1013700008F07BC3C3EED9E0882499245FC3698158
:10138000862F829586958695837090E0288130E03F
:10139000220F331F220F331F822B932B9093470171
:1013A0008093460170E06F73707034E0660F771FB2
:1013B0003A95E1F74A81242F22952F7030E0622B75
:1013C000732B709349016093480150E04F70507047
:1013D00026E0440F551F2A95E1F72B812695269587
:1013E00030E0422B532B50934B0140934A010E9413
:1013F00042028B8190E083709070982F88272C8117
:1014000030E0822B932B90934701809346014E81CD
:10141000642F629566956695637070E02D8130E06B
:10142000220F331F220F331F622B732B709349013E
:101430006093480150E04F735070B4E0440F551F63
:10144000BA95E1F72F8122952F7030E0422B532B74
:1014500050934B0140934A010E9442026885862FB7
:101460008695869590E02F8130E02F703070A6E051
:10147000220F331FAA95E1F7822B932B90934701FC
:101480008093460170E063707070762F662729851F
:1014900030E0622B732B70934901609348014B85B8
:1014A000429546954695437050E02A8530E0220FDC
:1014B000331F220F331F422B532B50934B0140936A
:1014C0004A010E9442026C85862F82958F7090E0BF
:1014D0002B8530E02F73307044E0220F331F4A9584
:1014E000E1F7822B932B909347018093460170E0A4
:1014F0006F70707006E0660F771F0A95E1F74D85F3
:10150000242F2695269530E0622B732B709349018A
:101510006093480150E043705070542F44272E854B
:1015200030E0422B532B50934B0140934A010E94D1
:1015300042020E94191480911E01882309F47AC284
:1015400010921E0180E00E94801E909347018093BC
:10155000460181E00E94801E9093490180934801DA
:1015600082E00E94801E90934B0180934A01E0909C
:10157000E035F090E1350091E2351091E33580914E
:1015800046019091470160E070E00E949F005C017D
:10159000809148019091490161E070E00E949F00B4
:1015A0006C0180914A0190914B0162E070E00E94D1
:1015B0009F00CA0CDB1CC80ED91EB60180E090E06B
:1015C0006E0D7F1D801F911F6093E0357093E13594
:1015D0008093E2359093E33520915301309154018B
:1015E000409155015091560129323105410551056F
:1015F00008F485C0209100013091010121153105C9
:1016000009F076C028E130E040E050E00E94E82395
:10161000C901DA01E0911801F0911901803020E050
:10162000920721E0A20720E0B20738F0EE0FFF1F7B
:10163000ED59FE4F7182608206C0EE0FFF1FED591B
:10164000FE4F918380831092E0351092E135109225
:10165000E2351092E33580911801909119010196BD
:101660009093190180931801805C934021F41092AB
:1016700019011092180180911001909111010196A9
:10168000909311018093100120911801309119015C
:1016900080911A0190911B0128173907B1F4C901F3
:1016A000019690931B0180931A01805C934021F472
:1016B00010921B0110921A01809112019091130156
:1016C00001969093130180931201E0911801F0911B
:1016D0001901EE0FFF1FED59FE4F1182108280910C
:1016E0000C0190910D01909301018093000114C0B1
:1016F0002150304030930101209300010DC0283269
:1017000031054105510541F41092E0351092E13563
:101710001092E2351092E3358091DE09813039F183
:10172000813030F08230D1F1833009F076C056C07C
:101730008091DA099091DB09FC0164E0EE0FFF1F54
:101740006A95E1F7E81BF90BED51F64F80914601E0
:10175000909147019695879596958795808380917E
:1017600046018295880F880F807C818356C08091C6
:10177000DA099091DB09FC0144E0EE0FFF1F4A9566
:10178000E1F7E81BF90BED51F64F9091470183818A
:10179000892B83838091460184833FC08091DA093D
:1017A0009091DB09FC0134E0EE0FFF1F3A95E1F761
:1017B000E81BF90BED51F64F8091460190914701DE
:1017C00026E0969587952A95E1F72781282B278390
:1017D00080914601880F880F80871FC08091DA09A9
:1017E0009091DB09FC0104E0EE0FFF1F0A95E1F781
:1017F000E81BF90BED51F64F80914601909147019E
:1018000014E0969587951A95E1F72385282B238771
:10181000809146018295807F84878091DE098130A6
:1018200049F1813038F0823009F443C0833009F047
:1018300076C056C08091DA099091DB09FC01B4E0D2
:10184000EE0FFF1FBA95E1F7E81BF90BED51F64FCC
:101850008091480190914901A4E096958795AA95B9
:10186000E1F72181282B2183809148018295807F97
:10187000828355C08091DA099091DB09FC0174E004
:10188000EE0FFF1F7A95E1F7E81BF90BED51F64FCC
:1018900080914801909149019695879596958795F5
:1018A0008583809148018295880F880F807C86838C
:1018B00036C08091DA099091DB09FC0154E0EE0F0B
:1018C000FF1F5A95E1F7E81BF90BED51F64F909188
:1018D00049018085892B80878091480181871FC0BD
:1018E0008091DA099091DB09FC0144E0EE0FFF1FC3
:1018F0004A95E1F7E81BF90BED51F64F809148014D
:101900009091490136E0969587953A95E1F72485BF
:10191000282B248780914801880F880F8587809124
:10192000DE09813049F1813038F0823009F444C059
:10193000833009F076C05FC08091DA099091DB09AD
:10194000FC0124E0EE0FFF1F2A95E1F7E81BF90BDD
:10195000ED51F64F80914A0190914B0106E096952A
:1019600087950A95E1F72281282B228380914A01ED
:10197000880F880F838355C08091DA099091DB0925
:10198000FC0114E0EE0FFF1F1A95E1F7E81BF90BBD
:10199000ED51F64F80914A0190914B01B4E096953C
:1019A0008795BA95E1F72681282B268380914A01F5
:1019B0008295807F878335C08091DA099091DB0919
:1019C000FC01A4E0EE0FFF1FAA95E1F7E81BF90B5D
:1019D000ED51F64F80914A0190914B019695879574
:1019E00096958795828780914A018295880F880F06
:1019F000807C838716C08091DA099091DB09FC0115
:101A000064E0EE0FFF1F6A95E1F7E81BF90BED515B
:101A1000F64F90914B018585892B858780914A01EE
:101A200086878091DE098F5F8093DE09843010F015
:101A30001092DE090894811C911C2F9620911F01A1
:101A400030912001C90101978816990608F497CCB6
:101A50002115310509F4BDC3F90154E0EE0FFF1F54
:101A60005A95E1F7E21BF30B85C38090DA09909059
:101A7000DB09E401219622E0CE3ED2070CF46EC3CE
:101A8000C0E0D0E06BC38F010C1B1D0B0D51164F36
:101A9000F8016181862F829586958695837090E006
:101AA000208130E0220F331F220F331F822B932B14
:101AB000909347018093460170E06F737070B4E0BB
:101AC000660F771FBA95E1F74281242F22952F7078
:101AD00030E0622B732B709349016093480150E012
:101AE0004F705070A6E0440F551FAA95E1F723816F
:101AF0002695269530E0422B532B50934B01409373
:101B00004A010E944202F801838190E08370907044
:101B1000982F8827248130E0822B932B90934701C4
:101B2000809346014681642F629566956695637041
:101B300070E0258130E0220F331F220F331F622B0C
:101B4000732B709349016093480150E04F735070BC
:101B500024E0440F551F2A95E1F7278122952F7025
:101B600030E0422B532B50934B0140934A010E948B
:101B70004202F8016085862F8695869590E0278140
:101B800030E02F703070B6E0220F331FBA95E1F7C6
:101B9000822B932B909347018093460170E06370F2
:101BA0007070762F6627218530E0622B732B70933F
:101BB0004901609348014385429546954695437097
:101BC00050E0228530E0220F331F220F331F422BBB
:101BD000532B50934B0140934A010E944202F8015B
:101BE0006485862F82958F7090E0238530E02F7377
:101BF000307044E0220F331F4A95E1F7822B932B7C
:101C0000909347018093460170E06F70707026E0FA
:101C1000660F771F2A95E1F74585242F269526958F
:101C200030E0622B732B709349016093480150E0C0
:101C300043705070542F4427268530E0422B532B9D
:101C400050934B0140934A010E9442022196F2E0D8
:101C5000CE3EDF0711F4C0E0D0E00E94191480915D
:101C60001E01882309F47AC210921E0180E00E94AE
:101C7000801E909347018093460181E00E94801E60
:101C8000909349018093480182E00E94801E9093C6
:101C90004B0180934A01E090E035F090E1350091EE
:101CA000E2351091E335809146019091470160E063
:101CB00070E00E949F005C01809148019091490171
:101CC00061E070E00E949F006C0180914A01909158
:101CD0004B0162E070E00E949F00CA0CDB1CC80E42
:101CE000D91EB60180E090E06E0D7F1D801F911F10
:101CF0006093E0357093E1358093E2359093E3355E
:101D00002091530130915401409155015091560159
:101D1000293231054105510508F485C020910001A3
:101D2000309101012115310509F076C028E130E03C
:101D300040E050E00E94E823C901DA01E091180177
:101D4000F0911901803020E0920721E0A20720E005
:101D5000B20738F0EE0FFF1FED59FE4F718260821F
:101D600006C0EE0FFF1FED59FE4F91838083109246
:101D7000E0351092E1351092E2351092E335809112
:101D800018019091190101969093190180931801FF
:101D9000805C934021F410921901109218018091F7
:101DA00010019091110101969093110180931001FF
:101DB000209118013091190180911A0190911B0115
:101DC00028173907B1F4C901019690931B0180933C
:101DD0001A01805C934021F410921B0110921A01A9
:101DE00080911201909113010196909313018093B9
:101DF0001201E0911801F0911901EE0FFF1FED594A
:101E0000FE4F1182108280910C0190910D019093F0
:101E100001018093000114C0215030403093010132
:101E2000209300010DC0283231054105510541F4D0
:101E30001092E0351092E1351092E2351092E335C0
:101E40008091DE09813039F1813030F08230D1F17A
:101E5000833009F076C056C08091DA099091DB0991
:101E6000FC0174E0EE0FFF1F7A95E1F7E81BF90B18
:101E7000ED51F64F809146019091470196958795D7
:101E8000969587958083809146018295880F880F6B
:101E9000807C818356C08091DA099091DB09FC0136
:101EA00054E0EE0FFF1F5A95E1F7E81BF90BED51D7
:101EB000F64F909147018381892B8383809146015E
:101EC00084833FC08091DA099091DB09FC0144E0F2
:101ED000EE0FFF1F4A95E1F7E81BF90BED51F64FA6
:101EE000809146019091470136E0969587953A9505
:101EF000E1F72781282B278380914601880F880FDF
:101F000080871FC08091DA099091DB09FC0124E0F1
:101F1000EE0FFF1F2A95E1F7E81BF90BED51F64F85
:101F2000809146019091470104E0969587950A9526
:101F3000E1F72385282B2387809146018295807FB6
:101F400084878091DE09813049F1813038F0823018
:101F500009F443C0833009F076C056C08091DA0995
:101F60009091DB09FC0114E0EE0FFF1F1A95E1F7D9
:101F7000E81BF90BED51F64F809148019091490112
:101F8000B4E096958795BA95E1F72181282B2183B6
:101F9000809148018295807F828355C08091DA09C3
:101FA0009091DB09FC01A4E0EE0FFF1FAA95E1F779
:101FB000E81BF90BED51F64F8091480190914901D2
:101FC000969587959695879585838091480182950A
:101FD000880F880F807C868336C08091DA099091C3
:101FE000DB09FC0164E0EE0FFF1F6A95E1F7E81BD7
:101FF000F90BED51F64F909149018085892B80872F
:102000008091480181871FC08091DA099091DB0996
:10201000FC0154E0EE0FFF1F5A95E1F7E81BF90BA6
:10202000ED51F64F809148019091490146E0969517
:1020300087954A95E1F72485282B248780914801CC
:10204000880F880F85878091DE09813049F18130C2
:1020500038F0823009F444C0833009F076C05FC0A4
:102060008091DA099091DB09FC0134E0EE0FFF1F4B
:102070003A95E1F7E81BF90BED51F64F80914A01D3
:1020800090914B0126E0969587952A95E1F722815C
:10209000282B228380914A01880F880F838355C0A3
:1020A0008091DA099091DB09FC0104E0EE0FFF1F3B
:1020B0000A95E1F7E81BF90BED51F64F80914A01C3
:1020C00090914B0114E0969587951A95E1F726813A
:1020D000282B268380914A018295807F878335C093
:1020E0008091DA099091DB09FC01B4E0EE0FFF1F4B
:1020F000BA95E1F7E81BF90BED51F64F80914A01D3
:1021000090914B01969587959695879582878091BA
:102110004A018295880F880F807C838716C0809142
:10212000DA099091DB09FC0174E0EE0FFF1F7A954C
:10213000E1F7E81BF90BED51F64F90914B018585C6
:10214000892B858780914A0186878091DE098F5F80
:102150008093DE09843010F01092DE09FE0164E005
:10216000EE0FFF1F6A95E1F7C815D90509F08BCC72
:10217000EC1BFD0BED51F64F80818093E3098181CB
:102180008093E40982818093E50983818093E60945
:1021900084818093E70985818093E8098681809313
:1021A000E90987818093EA0980858093EB0981851D
:1021B0008093EC0982858093ED0983858093EE09F5
:1021C00084858093EF0985858093F00986858093C7
:1021D000F1091092200110921F011092DB09109258
:1021E000DA09109222011092210189C2F20131977D
:1021F000F1F7019690932201809321010E94191416
:1022000080911E01882309F47AC210921E0180E099
:102210000E94801E909347018093460181E00E94B6
:10222000801E909349018093480182E00E94801EA5
:1022300090934B0180934A01E090E035F090E135B6
:102240000091E2351091E33580914601909147016C
:1022500060E070E00E949F005C01809148019091D5
:10226000490161E070E00E949F006C0180914A0189
:1022700090914B0162E070E00E949F00CA0CDB1C51
:10228000C80ED91EB60180E090E06E0D7F1D801F44
:10229000911F6093E0357093E1358093E235909320
:1022A000E3352091530130915401409155015091F3
:1022B0005601293231054105510508F485C02091A8
:1022C0000001309101012115310509F076C028E1A6
:1022D00030E040E050E00E94E823C901DA01E091DB
:1022E0001801F0911901803020E0920721E0A20747
:1022F00020E0B20738F0EE0FFF1FED59FE4F71825C
:10230000608206C0EE0FFF1FED59FE4F9183808360
:102310001092E0351092E1351092E2351092E335DB
:102320008091180190911901019690931901809361
:102330001801805C934021F4109219011092180149
:102340008091100190911101019690931101809359
:102350001001209118013091190180911A0190917A
:102360001B0128173907B1F4C901019690931B018D
:1023700080931A01805C934021F410921B0110920B
:102380001A0180911201909113010196909313010B
:1023900080931201E0911801F0911901EE0FFF1FD7
:1023A000ED59FE4F1182108280910C0190910D0128
:1023B000909301018093000114C02150304030936C
:1023C0000101209300010DC028323105410551055E
:1023D00041F41092E0351092E1351092E2351092FE
:1023E000E3358091DE09813039F1813030F082307F
:1023F000D1F1833009F076C056C08091DA0990910E
:10240000DB09FC0124E0EE0FFF1F2A95E1F7E81B32
:10241000F90BED51F64F8091460190914701969549
:102420008795969587958083809146018295880F40
:10243000880F807C818356C08091DA099091DB09F6
:10244000FC0114E0EE0FFF1F1A95E1F7E81BF90BF2
:10245000ED51F64F909147018381892B83838091C1
:10246000460184833FC08091DA099091DB09FC0129
:10247000B4E0EE0FFF1FBA95E1F7E81BF90BED5141
:10248000F64F8091460190914701A6E09695879579
:10249000AA95E1F72781282B278380914601880F91
:1024A000880F80871FC08091DA099091DB09FC01B9
:1024B00074E0EE0FFF1F7A95E1F7E81BF90BED5181
:1024C000F64F809146019091470164E0969587957B
:1024D0006A95E1F72385282B238780914601829511
:1024E000807F84878091DE09813049F1813038F026
:1024F000823009F443C0833009F076C056C0809121
:10250000DA099091DB09FC0154E0EE0FFF1F5A95A8
:10251000E1F7E81BF90BED51F64F809148019091DE
:10252000490144E0969587954A95E1F72181282B4A
:102530002183809148018295807F828355C080915C
:10254000DA099091DB09FC0134E0EE0FFF1F3A95A8
:10255000E1F7E81BF90BED51F64F8091480190919E
:102560004901969587959695879585838091480131
:102570008295880F880F807C868336C08091DA0927
:102580009091DB09FC0104E0EE0FFF1F0A95E1F7D3
:10259000E81BF90BED51F64F909149018085892B8D
:1025A00080878091480181871FC08091DA099091CE
:1025B000DB09FC0114E0EE0FFF1F1A95E1F7E81BA1
:1025C000F90BED51F64F8091480190914901B6E029
:1025D00096958795BA95E1F72485282B24878091D5
:1025E0004801880F880F85878091DE09813049F185
:1025F000813038F0823009F444C0833009F076C06D
:102600005FC08091DA099091DB09FC01A4E0EE0F34
:10261000FF1FAA95E1F7E81BF90BED51F64F8091EA
:102620004A0190914B0176E0969587957A95E1F76E
:102630002281282B228380914A01880F880F83836F
:1026400055C08091DA099091DB09FC0164E0EE0F3E
:10265000FF1F6A95E1F7E81BF90BED51F64F8091EA
:102660004A0190914B0154E0969587955A95E1F770
:102670002681282B268380914A018295807F87833B
:1026800035C08091DA099091DB09FC0144E0EE0F3E
:10269000FF1F4A95E1F7E81BF90BED51F64F8091CA
:1026A0004A0190914B0196958795969587958287DB
:1026B00080914A018295880F880F807C838716C09D
:1026C0008091DA099091DB09FC0124E0EE0FFF1FF5
:1026D0002A95E1F7E81BF90BED51F64F90914B016C
:1026E0008585892B858780914A0186878091DE09BF
:1026F0008F5F8093DE09843010F01092DE098091A4
:1027000021019091220121E08039920708F46ECDD9
:1027100080915201882319F40E94332202C00E9442
:102720003E2210923B0110922A01109229010E9430
:10273000F4220E94101E80916400816080936400E6
:102740008091DE09882369F480912801882349F467
:102750008091DA099091DB0901969093DB098093CF
:10276000DA098091DA099091DB098E5E924021F4BA
:102770001092DB091092DA0910922801F89483B7BD
:10278000817F83BF83B7816083BF85B7806685BF44
:102790008F7D85BF7894889583B78E7F83BF0C9497
:1027A00045032091060130E040E050E064E87EE11E
:1027B00080E090E00E940A24922F909581E02130E1
:1027C000380748F010925001832F8F5F80930701E4
:1027D00090935101089590935001109207018FEF4B
:1027E00080935101089521E030E002C0220F331F91
:1027F0008A95E2F780914F01822B80934F010895D3
:1028000021E030E002C0220F331F8A95E2F72095C5
:1028100080914F01822380934F01089520914F01B1
:1028200030E002C0359527958A95E2F7822F8170B6
:102830000895EF92FF920F931F93DF93CF930F9220
:10284000CDB7DEB790913B01992329F080913C01EF
:10285000981708F042C0CE0101960E946B2288238F
:10286000E1F180913B01E82FF0E0EF5FF94C9981B5
:1028700090838F5F80933B01892F82958695877027
:10288000853059F5892F8F718093FA35E82FF0E064
:10289000EC31F10588F4EA5BFF4FEE0FFF1F059066
:1028A000F491E02D099482E005C081E003C085E049
:1028B00001C08AE080933C0181E080933B0110924B
:1028C0003E0110923D0110923F018FEF9FEF9093D8
:1028D0000501809304011092400120913B012223C5
:1028E00009F4FEC480913D0190913E0101969093C0
:1028F0003E0180933D0160913C01261709F0F0C430
:102900008091FA35E82FF0E0EC31F10508F0D0C401
:10291000EE59FF4FEE0FFF1F0590F491E02D099443
:10292000209153013091540140915501509156012D
:102930008091570190915801A0915901B0915A018D
:1029400079018A01E81AF90A0A0B1B0BD801C701A1
:10295000895E9340A040B04008F48AC0209357019C
:10296000309358014093590150935A0140911201FC
:1029700050911301CA010A96909315018093140196
:1029800020911001309111012817390708F470C007
:102990008417950709F46CC0281B390B3093170175
:1029A00020931601809118019091190182179307C5
:1029B00010F480549C4F821B930B90931B018093C7
:1029C0001A01809114019091150190931301809345
:1029D00012010E94032380E090E020E23EE4F9012E
:1029E0003197F1F7019680359105C9F70E940B23C5
:1029F00080914C0190914D01019690934D018093EF
:102A00004C010297A8F10E94032332C020910336A3
:102A1000822F829586958695817060910236660F29
:102A2000682B6093500190910436892F829586958A
:102A30008370220F220F282B2093070180910536E7
:102A400082958770990F990F990F982B9093510148
:102A500083E090E00E94332484E090E060910701DD
:102A60000E94332485E090E0609151010E9433245C
:102A700080913B0180933F011BC481E08093410121
:102A800002C01092410160933F0112C410924301B1
:102A900010924201F8CF87E00E94801E909345017A
:102AA0008093440120EC209301369C0113E036957D
:102AB00027951A95E1F72093023687708295807FDB
:102AC0008093033680913B0180933F0183E0EEC306
:102AD00083EC80930136809108011CC187E00E943D
:102AE000801E9C014091EF355091F03548175907F1
:102AF00038F484E690E090934501809344018DC0C2
:102B00006091FD357091FE3568177907A0F4261B9A
:102B1000370B461B570B84E190E0BC01269FC00198
:102B2000279F900D369F900D1124BA010E94D42347
:102B3000605B7F4F19C04091F7355091F8354817C9
:102B40005907B8F4241B350B641B750B84E190E026
:102B50007C012E9DC0012F9D900D3E9D900D112456
:102B60000E94D423645C7F4F7093450160934401BD
:102B700054C06091F5357091F63568177907A0F467
:102B8000261B370B461B570B84E190E08C01209FDE
:102B9000C001219F900D309F900D1124BA010E9419
:102BA000D423685D7F4FE0CFE091EB35F091EC35B9
:102BB000E817F90798F42E1B3F0B6E1B7F0B84E17F
:102BC00090E0AC01249FC001259F900D349F900D93
:102BD00011240E94D4236C5E7F4FC6CF4091FB35F9
:102BE0005091FC3548175907A0F4841B950B9C01A4
:102BF000B3E0220F331FBA95E1F7E41BF50B880F02
:102C0000991F820F931FBF010E94D423665F7F4FDD
:102C1000ABCF109245011092440181EC80930136B4
:102C2000809144018F778093023680913B0180939D
:102C30003F0108C387EC809301368091F9350DC0C0
:102C4000609102366F776093F93580E290E00ECFA5
:102C500085EC80930136809106018F77EFC282EC7C
:102C600080930136209153013091540140915501D8
:102C700050915601DA01C90179E1B695A79597956A
:102C800087957A95D1F780930236DA01C90102E17E
:102C9000B695A795979587950A95D1F78F778093E5
:102CA0000336DA01C9011BE0B695A795979587957C
:102CB0001A95D1F78F7780930436B4E056954795EF
:102CC00037952795BA95D1F72F77209305368091C0
:102CD00053018F70880F880F880F8093063660939A
:102CE0003F0186E0E3C2809102368F778093060130
:102CF0000E94D11382E090E0609106010E9433248B
:102D000083E090E060915001A5CE88EC809301367D
:102D10008091520187708295807F90C260910236C7
:102D2000629567706093520186E090E09FCE80913B
:102D300002368295877080935201A5CEF999B8C268
:102D400087E00E94801E8855924008F4B1C26091CD
:102D5000033670E060777070A4E076956795AA9569
:102D6000E1F78091023690E08F779070F3E0880F62
:102D7000991FFA95E1F7682B792B7093E8356093EA
:102D8000E73584E190E00E9441246091043670E0D0
:102D90006E777070769567958091033690E08F70AE
:102DA000907056E0880F991F5A95E1F7682B792BA0
:102DB0007093EA356093E93586E190E00E94412402
:102DC0006091053670E06F777070660F771F660F41
:102DD000771F8091043690E081709070982F88273B
:102DE000990F682B792B8091063690E08076907051
:102DF00025E0969587952A95E1F7682B792B7093B6
:102E000000366093FF3588E190E00E944124609194
:102E1000073670E06C777070769567957695679554
:102E20008091063690E08F71907005E0880F991FB1
:102E30000A95E1F7682B792B7093EE356093ED35A9
:102E40008AE190E00E9441246091083670E0660FAC
:102E5000771F70708091073690E083709070982F84
:102E60008827682B792B8091093690E080749070C8
:102E7000A6E096958795AA95E1F7682B792B709334
:102E8000F4356093F3358CE190E00E944124809109
:102E9000093690E0BC0168777070F3E0769567952D
:102EA000FA95E1F78F739070E4E0880F991FEA9527
:102EB000E1F7682B792B7093F2356093F1358EE151
:102EC00090E0B0C184EC809301368091E735909119
:102ED000E83573E0969587957A95E1F78F7780933B
:102EE00002362091E735229520778091E93590913F
:102EF000EA3556E0969587955A95E1F78F70822BC3
:102F0000809303369091E935990F9E778091003632
:102F100086958170892B809304368091FF3590913E
:102F2000003696958795969587958F778093053689
:102F30002091FF352295220F20768091ED359091DA
:102F4000EE3535E0969587953A95E1F78F71822BAE
:102F5000809306369091ED35990F990F9C7780916B
:102F6000F4358370892B809307368091F3359091E7
:102F7000F435969587958F77809308362091F335B1
:102F80002295220F220F20748091F1359091F23515
:102F900004E0969587950A95E1F78F73822B8093CD
:102FA00009368091F13571C089EC809301368091AA
:102FB000EF359091F03513E0969587951A95E1F7E6
:102FC0008F77809302362091EF352295207780917C
:102FD000FD359091FE35B6E096958795BA95E1F767
:102FE0008F70822B809303369091FD35990F9E77D9
:102FF0008091F83586958170892B80930436809175
:10300000F7359091F83596958795969587958F77B2
:10301000809305362091F7352295220F20768091F6
:10302000F5359091F635F5E096958795FA95E1F7A7
:103030008F71822B809306369091F535990F990FF9
:103040009C778091EC358370892B80930736809133
:10305000EB359091EC35969587958F778093083670
:103060002091EB352295220F220F20748091FB35A1
:103070009091FC3574E0969587957A95E1F78F737A
:10308000822B809309368091FB35880F880F880F3B
:10309000887780930A3660933F018AE007C1F999E7
:1030A00007C187E00E94801E8855924008F400C145
:1030B0006091033670E06077707054E076956795A4
:1030C0005A95E1F78091023690E08F77907043E057
:1030D000880F991F4A95E1F7682B792B7093F0358B
:1030E0006093EF3588E090E00E94412460910436BF
:1030F00070E06E777070769567958091033690E0FA
:103100008F70907026E0880F991F2A95E1F7682B41
:10311000792B7093FE356093FD358AE090E00E9434
:1031200041246091053670E06F777070660F771FED
:10313000660F771F8091043690E081709070982F11
:103140008827990F682B792B8091063690E080763E
:10315000907015E0969587951A95E1F7682B792B75
:103160007093F8356093F7358CE090E00E9441242D
:103170006091073670E06C777070769567957695FC
:1031800067958091063690E08F719070A5E0880F6A
:10319000991FAA95E1F7682B792B7093F635609308
:1031A000F5358EE090E00E9441246091083670E091
:1031B000660F771F70708091073690E08370907073
:1031C000982F8827682B792B8091093690E080749E
:1031D000907056E0969587955A95E1F7682B792B74
:1031E0007093EC356093EB3580E190E00E944124D0
:1031F0008091093690E0BC016877707043E0769565
:1032000067954A95E1F78F73907034E0880F991FA6
:103210003A95E1F7682B792B7093FC356093FB3579
:1032200082E190E00E94412423CC8AEC8093013615
:1032300083E004C08BEC8093013689E080930236F2
:1032400060933F0182E032C08EEC80930136809122
:103250005001282F26952093023690E081709070BF
:1032600026E0880F991F2A95E1F720910701422F48
:1032700046954695482B4093033630E023703070D6
:1032800085E0220F331F8A95E1F790915101892F34
:10329000869586958695822B8093043697709295B5
:1032A000907F9093053660933F0185E080934001C5
:1032B00090913F0180913B01981759F500E010E093
:1032C00008C0F801EF5FF94C80810E947B220F5FFC
:1032D0001F4F8091400190E00817190794F307C031
:1032E00080913D0190913E018F3F910590F01092A9
:1032F0003C0110923B0110923E0110923D01109250
:103300003F018FEF9FEF909305018093040110928E
:1033100040010F90CF91DF911F910F91FF90EF909F
:10332000089588EC80930B368091520187708295C6
:10333000807F80930C3688EC0E947B2280910C3633
:103340000E947B22089585EC80930B3680910601C4
:103350008F7780930C3685EC0E947B2280910C360F
:103360000E947B2208958BEC80930B3683E0809340
:103370000C368BEC0E947B2280910C360E947B22C3
:10338000089520ED20930B369C01220F232F221F3E
:10339000330B31952F7720930C368F7780930D3632
:1033A00080ED0E947B2280910C360E947B228091CE
:1033B0000D360E947B2208952FEC20930B369C0142
:1033C000220F232F221F330B31952F7720930C369A
:1033D0008F7780930D368FEC0E947B2280910C3684
:1033E0000E947B2280910D360E947B220895CF920D
:1033F000DF92EF92FF920F931F93CF93DF93009191
:10340000120110911301209118013091190180913E
:103410001A0190911B018217930710F4790106C0DD
:10342000F0ECEF2EF3E0FF2EE20EF31EE81AF90A9D
:1034300080910C0190910D012091000130910101CA
:10344000821B930B0E94C119809110019091110170
:103450000E94DC19C0911A01D0911B01DD24EDEC12
:10346000CE2E57C0FE01EE0FFF1FED59FE4F2081FB
:103470003181C0920B36812F869580930C36C8011E
:1034800096958795969587958F7780930D36802FA3
:1034900083708295880F807E932F9695969596954A
:1034A000892B80930E36C90154E0969587955A95DD
:1034B000E1F78F7780930F362F70220F220F209322
:1034C00010368DEC0E947B2280910C360E947B226C
:1034D00080910D360E947B2280910E360E947B22C5
:1034E00080910F360E947B22809110360E947B22B1
:1034F000219683E0C03CD80711F4C0E0D0E08CE313
:10350000E816F10420F4D3948AE0D81651F00F5F46
:103510001F4F8091180190911901C817D90709F020
:10352000A1CFDF91CF911F910F91FF90EF90DF908E
:10353000CF9008952CEC20930B369C01220F232F63
:10354000221F330B31952F7720930C368F77809382
:103550000D368CEC0E947B2280910C360E947B22DF
:1035600080910D360E947B220895FF920F931F9346
:10357000DF93CF930F92CDB7DEB7082FF42E869549
:10358000806E80930B3669830E947B2210E001706D
:103590001070B6E0000F111FBA95E1F799819F7383
:1035A000902B90930C36892F0E947B22FF0CF09277
:1035B0000D368F2D0E947B220F90CF91DF911F91AE
:1035C0000F91FF900895CF92DF92EF92FF920F93A9
:1035D0001F938C017B016A01812F83708068809327
:1035E0000B360E947B22C801969587958F77809332
:1035F0000C360E947B22C70124E0969587952A9578
:10360000E1F78F730295000F000F0074802B8093F9
:103610000D360E947B22C601880F892F881F990BC7
:1036200091958770EE0CEE0CEE0C98E7E9228E294E
:1036300080930E360E947B228FE7C822C0920F36FD
:103640008C2D0E947B221F910F91FF90EF90DF90B5
:10365000CF90089580914101882339F580914201EE
:1036600090914301019690934301809342018A5ABD
:103670009A4030F00E94472210924301109242017A
:1036800082E00E94801E909347018093460181E072
:103690000E94801E909349018093480180E00E941F
:1036A000801E90934B0180934A01089580914101BF
:1036B000882329F5809142019091430101969093CE
:1036C0004301809342018A5A9A4030F00E94472277
:1036D000109243011092420180914601909147015E
:1036E0008050944060F01092470110924601109271
:1036F00049011092480110924B0110924A0108951D
:10370000EF92FF920F931F93CF93DF930E941C1FA2
:1037100086E00E949C228AE08093E63587E00E9442
:10372000801E8C0142E08C3B940718F5C0E0D0E08D
:1037300040E1E42E47E2F42E0E94032380E090E073
:10374000F7013197F1F70196883C9105C9F70E947E
:103750000B2380E090E0F7013197F1F70196883C68
:103760009105C9F72196C330D10531F7053611050A
:1037700050F080E090E00E94252480934E01853235
:1037800009F0B4C00FC00E94032380E090E020E164
:1037900037E2F9013197F1F7019643E0883E94074B
:1037A000C1F7C2C10D52114008F490C082E090E010
:1037B0000E9425248093060181E090E00E94252448
:1037C00080934F0186E090E00E942524809352016F
:1037D00087E090E00E9425248093080183E090E038
:1037E0000E9425248093500184E090E00E942524CB
:1037F0008093070185E090E00E9425248093510189
:1038000088E090E00E942D249093F0358093EF356E
:103810008AE090E00E942D249093FE358093FD3540
:103820008CE090E00E942D249093F8358093F7353A
:103830008EE090E00E942D249093F6358093F5352C
:1038400080E190E00E942D249093EC358093EB353D
:1038500082E190E00E942D249093FC358093FB350B
:1038600084E190E00E942D249093E8358093E73521
:1038700086E190E00E942D249093EA358093E9350B
:1038800088E190E00E942D24909300368093FF35CC
:103890008AE190E00E942D249093EE358093ED35DF
:1038A0008CE190E00E942D249093F4358093F335C1
:1038B0008EE190E00E942D249093F2358093F135B3
:1038C00080E290E00E9425248093F9350E94EC224A
:1038D00080E090E020E137E2F9013197F1F70196BD
:1038E000883C9105C9F70E94F422F1C088E28093D8
:1038F0000601109252010D52114008F4C2C082E03C
:1039000090E068E20E9433240E94D11383E090E0AB
:10391000609150010E94332484E090E0609107019F
:103920000E94332485E090E0609151010E9433248D
:1039300086E090E0609152010E94332481E090E0A3
:1039400060E00E94332487E090E0609108010E94CB
:10395000332488E090E065ED72E00E9441248AE023
:1039600090E068EA72E00E9441248CE090E060E818
:1039700072E00E9441248EE090E068E572E00E94CF
:10398000412480E190E060E372E00E94412482E102
:1039900090E06CE172E00E94412485ED92E090930A
:1039A000F0358093EF3588EA92E09093FE3580936E
:1039B000FD3580E892E09093F8358093F73588E5FF
:1039C00092E09093F6358093F53580E392E0909302
:1039D000EC358093EB358CE192E09093FC3580934D
:1039E000FB3584E190E064EF71E00E94412486E1C0
:1039F00090E065EF71E00E94412488E190E066EF7D
:103A000071E00E9441248AE190E067EF71E00E943A
:103A100041248CE190E068EF71E00E9441248EE146
:103A200090E069EF71E00E94412484EF91E090936F
:103A3000E8358093E73585EF91E09093EA35809300
:103A4000E93586EF91E0909300368093FF3587EF5C
:103A500091E09093EE358093ED3588EF91E090936F
:103A6000F4358093F33589EF91E09093F2358093AC
:103A7000F1358FE78093F93580E290E06FE70E949F
:103A8000332485E280934E0180E090E065E20E945D
:103A90003324C0E0D0E000E117E20E94EC2280E095
:103AA00090E0F8013197F1F70196883C9105C9F74C
:103AB0000E94F42280E090E0F8013197F1F701963E
:103AC000883C9105C9F72196C330D10531F7809123
:103AD0005201823091F0833028F4882341F0813004
:103AE00041F409C0833059F0843019F40AC08EE7DC
:103AF00009C080E007C080E505C088E203C08EE110
:103B000001C084E120910601821798F40E940323EA
:103B100080E090E020E137E2F9013197F1F701967A
:103B200043E0883E9407C1F70E940B230E941423B0
:103B300023C06091F93570E080E090E030E040E033
:103B400050E00E94B5232CE330E040E050E00E94BA
:103B5000B52360935F01709360018093610190933E
:103B6000620160935B0170935C0180935D019093AF
:103B70005E0186E00E94FB1EDF91CF911F910F91A5
:103B8000FF90EF900895882321F480917A00887F38
:103B900036C0813049F480917A008A7F80937A0020
:103BA00080917A0082602BC0823049F480917A0043
:103BB0008B7F80937A0080917A00836020C083306D
:103BC00049F480917A008C7F80937A0080917A000A
:103BD000846015C0843049F480917A008D7F809391
:103BE0007A0080917A0085600AC0853059F480910E
:103BF0007A008E7F80937A0080917A00866080932D
:103C00007A000895863029F480917A008760809345
:103C10007A000895EAE7F0E0808180688083089563
:103C2000EAE7F0E080818F7780830895882321F48C
:103C300080917C008E7F05C0813071F480917C0082
:103C4000816080937C0080917C008D7F80937C00DC
:103C500080917C008B7F2BC0823021F480917C008E
:103C60008E7F05C0833049F480917C008160809311
:103C70007C0080917C008260E9CF843049F480919F
:103C80007C008E7F80937C0080917C008D7F0AC0B9
:103C90008630D1F480917C008E7F80937C0080916F
:103CA0007C00826080937C0080917C0084608093A3
:103CB0007C0080917C00877F80937C0080917C00D9
:103CC0008F7E80937C0008958730C9F480917C00BA
:103CD000816080937C0080917C00826080937C0076
:103CE00080917C00846080937C0080917C00877F41
:103CF00080937C0080917C008F7E80937C0008956F
:103D00000E94161E80917A00806180937A008091D3
:103D10007A00806480937A0080917A0086FDFCCFDF
:103D20002091780040917900942F80E030E0282B9A
:103D3000392BC90108959093C5008093C400662370
:103D400019F0613029F402C088E003C080E101C0AD
:103D500088E18093C10086E08093C200089590932B
:103D6000CD008093CC00662319F0613029F402C0A5
:103D700088E003C080E101C088E18093C90086E04B
:103D80008093CA0008958FB7F89495B7906895BF4F
:103D900095B7906895BF8FBF08958230B1F083309A
:103DA00028F4882351F0813001F50BC08430A9F04C
:103DB000843078F08530C9F414C08091B1008160FE
:103DC00017C08091B100826013C08091B100836000
:103DD0000FC08091B10084600BC08091B1008560FC
:103DE00007C08091B100866003C08091B1008760F8
:103DF0008093B10008950E94CD1E1092B200E0E7BA
:103E0000F0E0808181608083789408951092700042
:103E10001092B1000895109270001092B100F894C1
:103E200028E088E190E00FB6F894A89580936000B0
:103E30000FBE20936000FFCF14BE88E10FB6F89448
:103E400080936000109260000FBE089540E054E23D
:103E500020E137E26DE08091C00085FFFCCF8091CA
:103E6000C0008F7D8093C0005093C600C9010197A8
:103E7000F1F78091C00085FFFCCF8091C0008F7D5D
:103E80008093C0005093C600C9010197F1F780915B
:103E9000C00085FFFCCF8091C0008F7D8093C00063
:103EA0005093C600C9010197F1F78091C00085FFCA
:103EB000FCCF8091C0008F7D8093C0006093C600CE
:103EC0008091C00085FFFCCF8091C0008F7D8093E2
:103ED000C0006093C6008091C00087FD04C080913F
:103EE000C00087FF25C08091C600833409F580910A
:103EF000C00085FFFCCF8091C0008F7D8093C00003
:103F00008DE08093C60020E030E09DE08091C0000D
:103F100085FFFCCF8091C0008F7D8093C00090937F
:103F2000C6002F5F3F4F2A30310581F781E00895A9
:103F30004F5F4F3F09F08FCF80E0089540E05DE292
:103F400020E137E26DE08091C00085FFFCCF8091D9
:103F5000C0008F7D8093C0005093C600C9010197B7
:103F6000F1F78091C00085FFFCCF8091C0008F7D6C
:103F70008093C0005093C600C9010197F1F780916A
:103F8000C00085FFFCCF8091C0008F7D8093C00072
:103F90005093C600C9010197F1F78091C00085FFD9
:103FA000FCCF8091C0008F7D8093C0006093C600DD
:103FB0008091C00085FFFCCF8091C0008F7D8093F1
:103FC000C0006093C6004F5F4F3F69F08091C00012
:103FD00087FD06C08091C00087FD02C081E0089582
:103FE0008091C600B0CF80E008959F92AF92BF92BB
:103FF000CF92DF92EF92FF920F931F93482F50E0E2
:10400000FDE060E177E2B3E5BB2EA5E5AA2EECE288
:104010009E2E03E3E8E339E3F32E26E3E22E14E3D6
:10402000A2E3B1E395E3C92E87E3D82E20E030E088
:104030008091C00087FD04C08091C00087FF02C04E
:104040008091C6002F5F3F4F2436310589F780915C
:10405000C00085FFFCCF8091C0008F7D8093C000A1
:10406000F093C600CB010197F1F78091C00085FF66
:10407000FCCF8091C0008F7D8093C000F093C6007C
:104080008091C00085FFFCCF8091C0008F7D809320
:10409000C000B092C600CB010197F1F78091C0003B
:1040A00085FFFCCF8091C0008F7D8093C000A092DF
:1040B000C600CB010197F1F78091C00085FFFCCFCE
:1040C0008091C0008F7D8093C0009092C600CB018C
:1040D0000197F1F74C3009F47DC04D3068F4413060
:1040E00009F4C3C0413008F4D7C0433009F4A6C076
:1040F000483009F0E8C08BC04333A9F1443338F4A9
:10410000403109F457C0493109F0DDC03CC04736A1
:10411000D1F04F3C09F0D7C08091C00085FFFCCFA3
:104120008091C0008F7D8093C000A093C6008091D5
:10413000C00085FFFCCF8091C0008F7D8093C000C0
:104140001093C600D6C08091C00085FFFCCF80913F
:10415000C0008F7D8093C0001093C6008091C00086
:1041600085FFFCCFBFC08091C00085FFFCCF809150
:10417000C0008F7D8093C000F092C6008091C00087
:1041800085FFFCCF98C08091C00085FFFCCF809157
:10419000C0008F7D8093C000B093C6008091C000A6
:1041A00085FFFCCF8091C0008F7D8093C000F0928E
:1041B000C6009FC08091C00085FFFCCF8091C000E9
:1041C0008F7D8093C000A093C6008091C00085FFC2
:1041D000FCCF88C08091C00085FFFCCF8091C000DB
:1041E0008F7D8093C0000093C600CB010197F1F74B
:1041F0008091C00085FFFCCF8091C0008F7D8093AF
:10420000C000E093C600CB010197F1F772C0809126
:10421000C00085FFFCCF8091C0008F7D8093C000DF
:10422000C092C6008091C00085FFFCCF8091C00085
:104230008F7D8093C000D092C6005BC08091C0008B
:1042400085FFFCCF8091C0008F7D8093C000B0932C
:10425000C6008091C00085FFFCCF8091C0008F7D9B
:104260008093C000B093C60044C08091C00085FF19
:10427000FCCF8091C0008F7D8093C000A093C600CA
:104280008091C00085FFFCCF8091C0008F7D80931E
:10429000C0000093C6002DC08091C00085FFFCCFF8
:1042A0008091C0008F7D8093C0001093C6008091E4
:1042B000C00085FFFCCF8091C0008F7D8093C0003F
:1042C000E092C60016C08091C00085FFFCCF8091AF
:1042D000C0008F7D8093C0000093C6008091C00015
:1042E00085FFFCCF8091C0008F7D8093C000E0935C
:1042F000C6008091C00085FFFCCF8091C0008F7DFB
:104300008093C000F093C600CB010197F1F7809134
:10431000C00085FFFCCF8091C0008F7D8093C000DE
:10432000F093C600CB010197F1F78091C00087FDA3
:1043300004C08091C00087FF06C08091C600813410
:1043400011F481E005C05F5F5F3F09F06FCE80E050
:104350001F910F91FF90EF90DF90CF90BF90AF90A3
:104360009F90089530E020E06DE040E157E2E7E4FF
:1043700075E58091C00085FFFCCF8091C0008F7DE6
:104380008093C0006093C600CA010197F1F7809145
:10439000C00085FFFCCF8091C0008F7D8093C0005E
:1043A0006093C6008091C00085FFFCCF8091C00063
:1043B0008F7D8093C000E093C600CA010197F1F79A
:1043C0008091C00085FFFCCF8091C0008F7D8093DD
:1043D000C0007093C600CA010197F1F78091C00038
:1043E00085FFFCCF8091C0008F7D8093C0006093DB
:1043F000C600CA010197F1F78091C00085FFFCCF8C
:104400008091C0008F7D8093C0006093C600CA0178
:104410000197F1F73F5F3F3F21F18091C00087FD99
:1044200014C08091C00087FD10C0243389F025336B
:1044300028F4213389F0223399F405C0253371F033
:10444000293371F407C02FEC0CC02091C60091CF26
:1044500027E607C023E305C023E003C028E001C02E
:104460002CE0822F0895519A529A5A9A249A2C98A5
:104470008091E43581608093E43508955198529895
:1044800024988091E4358E7F8093E43508950E94CE
:104490003E2220E040E157E2CA010197F1F72F5F89
:1044A0002F3FD1F70E94332208958091E435817027
:1044B000089580B182958170089580B18295869526
:1044C00086958170089502C08091C6008091C000D9
:1044D00087FDFACF0895FC018091C00087FD06C0DA
:1044E0008091C00087FD02C080E008958091C600E1
:1044F000808381E00895982F8091C00085FFFCCFD4
:104500008091C0008F7D8093C0009093C600089575
:10451000882311F428980895813011F080E00895DF
:10452000289A81E00895209A239A2B9A8091E43565
:1045300082608093E4350895809166001092E4359E
:104540000E94C31E089809980A980B980D980E9817
:104550000F98209821982A9823982498259826988F
:104560002798389839983A983B983C983D983E98C7
:104570003F985098519852985398549855985698F7
:1045800057980E9433220E94932280E00E94882242
:104590008CE090E062E00E949B1EECE7F0E08081FE
:1045A0008064808385E00E94C31DEAE7F0E080819B
:1045B00080688083089580E00E9488222098239A52
:1045C0002B988091E4358D7F8093E4350895809118
:1045D000E435869581700895539A5B9A8091E4350D
:1045E00084608093E4350895539A5B985398809142
:1045F000E4358B7F8093E43508958091E43586958A
:104600008695817008953B9A439A8091E43588603D
:104610008093E43508953B9A43983B988091E43524
:10462000877F8093E4350895F8940E943E220E948B
:10463000DB220E94F4220E940B2311B814B817B891
:104640001AB812B815B818B81BB8109270001092AA
:10465000B10088E10FB6F89480936000109260007A
:104660000FBEEAE7F0E080818F77808385B78061B5
:1046700085BF80B7877F80BF80B7806880BF83B7E2
:10468000816083BF85B7806685BF8F7D85BF789445
:1046900083B7817F846083BF889583B78E7F83BF14
:1046A00008958091E4358695869586958170089564
:1046B00080B1869586958695809581700895362F70
:1046C000382720E080E090E040E853E837FF02C060
:1046D00024273527220F331F019688309105B1F723
:1046E000832F0895EF92FF920F931F93CF93DF9341
:1046F0007B018A01C0E0D0E007C0F701EC0FFD1F8D
:1047000060810E945F232196C017D107B4F3DF9127
:10471000CF911F910F91FF90EF900895CF93DF936A
:10472000DC0120E030E0C1E2D0E115C05C9140E066
:104730002427352780E090E0F901EE0FFF1F37FFB7
:1047400004C09F012C273D2701C09F01019688309E
:10475000910591F71196615070408FEF6F3F780788
:1047600029F7C901DF91CF910895629FD001739F0E
:10477000F001829FE00DF11D649FE00DF11D929FFD
:10478000F00D839FF00D749FF00D659FF00D99273C
:10479000729FB00DE11DF91F639FB00DE11DF91F60
:1047A000BD01CF0111240895AA1BBB1B51E107C015
:1047B000AA1FBB1FA617B70710F0A61BB70B881FB1
:1047C000991F5A95A9F780959095BC01CD01089540
:1047D000A1E21A2EAA1BBB1BFD010DC0AA1FBB1F05
:1047E000EE1FFF1FA217B307E407F50720F0A21B77
:1047F000B30BE40BF50B661F771F881F991F1A94E4
:1048000069F760957095809590959B01AC01BD010D
:10481000CF01089597FB092E05260ED057FD04D031
:10482000D7DF0AD0001C38F450954095309521957B
:104830003F4F4F4F5F4F0895F6F7909580957095D5
:1048400061957F4F8F4F9F4F0895F999FECF92BD8D
:1048500081BDF89A992780B50895A8E1B0E042E0BB
:1048600050E00C944824262FF999FECF1FBA92BD30
:1048700081BD20BD0FB6F894FA9AF99A0FBE019641
:1048800008950E943324272F0C943424DC01CB019B
:10489000FC01F999FECF06C0F2BDE1BDF89A319650
:1048A00000B40D9241505040B8F70895F894FFCFEE
:0A48B00060090100FFFF5A01020039
:00000001FF
