:100000000C943E000C9450000C9450000C94500042
:100010000C9450000C9450000C9450000C94500020
:100020000C9450000C9450000C9450000C94500010
:100030000C9450000C9450000C9450000C94500000
:100040000C9450000C9450000C9450000C945000F0
:100050000C9450000C9450000C9450000C945000E0
:100060000C94A9020C9450000C9450000C94500075
:100070000C9450000C9450000C94500011241FBE9E
:10008000CFEFD8E0DEBFCDBF13E0A0E0B1E001C00C
:100090001D92A93CB107E1F70E94A2000C947103E4
:1000A0000C940000CF93DF93C5E0D1E088810E94DB
:1000B0009C0289810E949C028A810E949C028B8101
:1000C0000E949C028C810E949C028D810E949C0255
:1000D0008E810E949C02279682E0C93AD80731F7A8
:1000E000DF91CF910895DF93CF93CDB7DEB72797F8
:1000F0000FB6F894DEBF0FBECDBF29833A834B8382
:100100005C836D837E838F83822F0E949C028A8111
:100110000E949C028B810E949C028C810E949C0206
:100120008D810E949C028E810E949C028F810E9480
:100130009C0227960FB6F894DEBF0FBECDBFCF91BD
:10014000DF9108958F929F92AF92BF92CF92DF92EC
:10015000EF92FF920F93DF93CF93CDB7DEB72E9739
:100160000FB6F894DEBF0FBECDBF1092B80210924A
:10017000C3021092C202809181008460809381004A
:1001800010928500109284000E94B30221E0E22EBA
:10019000F12C4E010894811C911C98E0A92EB12CE1
:1001A000AC0EBD1E80E2C82E8EE4D82E0E946701E0
:1001B000882319F00E94840202C00E9486020E94D5
:1001C00063018823F9F0F0920101E092000180912F
:1001D000020190910301892B41F4F0920301E09216
:1001E00002011092C3021092C20280918400909189
:1001F000850082519A4718F00E94800213C00E9425
:10020000820210C00E94820280910001909101013F
:10021000019721F41092C3021092C20210920101C0
:100220001092000181E00E9450029093B3028093EB
:10023000B20282E00E9450029093B5028093B40211
:1002400083E00E9450029093B7028093B60210920E
:10025000C4032091C2023091C3026091B002709138
:10026000B1028FE090E0432F50E0307000E00E9438
:100270002803288739874A875B876C877D878E8725
:10028000D401F50187E001900D928150E1F72981B9
:100290003A814B815C816D817E818F810E947300E8
:1002A0008091C2029091C30201969093C302809301
:1002B000C202C6010197F1F779CF5598549850982A
:1002C000519A5A9A089589B182958170089589B199
:1002D00082958695817008952C9A08952C9808959A
:1002E0005A985A9A08959093C5008093C40088E064
:1002F0008093C10086E08093C20008959093CD0062
:100300008093CC0088E18093C90086E08093CA0086
:100310000895EBE7F0E08081887F8083EAE7F0E0F2
:100320008081806280830895EAE7F0E080818F7D9C
:1003300080830895882321F480917A00887F36C0D5
:10034000813049F480917A008A7F80937A0080918D
:100350007A0082602BC0823049F480917A008B7FD2
:1003600080937A0080917A00836020C0833049F4C2
:1003700080917A008C7F80937A0080917A008460EB
:1003800015C0843049F480917A008D7F80937A0083
:1003900080917A0085600AC0853059F480917A0096
:1003A0008E7F80937A0080917A00866080937A00B5
:1003B0000895863029F480917A00876080937A00CE
:1003C0000895ECE7F0E08081806480830895EAE797
:1003D000F0E0808180688083808188608083789469
:1003E0000895EAE7F0E080818F7780838081877FBE
:1003F00080830895EAE7F0E08081806180838081D6
:1004000080648083089580917A00807408958823A1
:1004100021F480917C008E7F05C0813049F4809169
:100420007C00816080937C0080917C008D7F0AC07D
:100430008230D1F480917C008E7F80937C0080910B
:100440007C00826080937C0080917C008B7F809315
:100450007C0080917C00877F80937C0080917C0071
:100460008F7E80937C0008958330C9F480917C0056
:10047000816080937C0080917C00826080937C000E
:1004800080917C008B7F80937C0080917C00877FB3
:1004900080937C0080917C008F7E80937C00089507
:1004A0000E94070280917A00806180937A00809197
:1004B0007A00806480937A0080917A0086FDFCCF78
:1004C0002091780040917900942F80E030E0282B33
:1004D000392BC90108950B980A980998ECE7F0E0C8
:1004E00080818064808382E00E949A01EAE7F0E0E4
:1004F000808180688083808188608083789408957B
:10050000419A089541980895429A0895429808950D
:1005100085E083BF08958FB7F89495B7906895BF2D
:1005200095B7906895BF8FBF08958091C80087FFE9
:10053000FCCF8091CE000895982F8091C00085FF58
:10054000FCCF8091C0008F7D8093C0009093C60047
:1005500008951F920F920FB60F9211240F900FBEA5
:100560000F901F9018959FB7F89485B7806885BF46
:1005700085B7806885BF9FBF1092C5008CE08093CF
:10058000C40088E08093C10086E08093C2000E948E
:100590005D010E94F2020E946B020895882311F40B
:1005A000289803C0813019F4289A29980CC0823009
:1005B00019F4299A289807C0833019F020E030E018
:1005C00004C0289A299A21E030E0C90108952B9AA5
:1005D00008952B98089585B1869586958695809582
:1005E00081700895209A219A239A0B980A98099865
:1005F000229808980C980D9880E00E94CE022B9AC1
:10060000089520E030E048ED822F98E087FF03C096
:10061000880F842701C0880F9150C1F7F901EC536E
:10062000FD4F80832F5F3F4F81E02030380761F717
:100630000895DC01E0E090E007C08D91E827F0E04C
:10064000EC53FD4FE0819F5F9617B8F38E2F08950E
:100650000F931F93DF93CF93CDB7DEB727970FB6D6
:10066000F894DEBF0FBECDBFFA01D901302F0A2F9B
:100670000295007F43E0B695A7954A95E1F7AF77DD
:100680001E2F1F77EE0FEF2FEE1FFF0BF195E77078
:10069000962F990F990F990F9877E92B432F429531
:1006A000440F440F407C94E0769567959A95E1F766
:1006B0006F73462B3695880F880F880F8268282F16
:1006C0005E2F612F7A2F802F807790E027960FB6CC
:1006D000F894DEBF0FBECDBFCF91DF911F910F9178
:0606E0000895F894FFCF1D
:00000001FF
