:100000000C945C000C9479000C9479000C947900A9
:100010000C9479000C9479000C9479000C9479007C
:100020000C9479000C9479000C9479000C94B30032
:100030000C9479000C9479000C9479000C9479005C
:100040000C9479000C9479000C9479000C9479004C
:100050000C9479000C9479000C9479000C9479003C
:100060000C9479000C9479000C9479000C9479002C
:100070000C9479000C9479000C9479001801180103
:100080001F011F011A011F0118011A0118011C018B
:100090001F011F0118011A011F011F011F011F016C
:1000A00018011A0118011A0118011F011F01180176
:1000B0001A0118011801180111241FBECFEFD8E052
:1000C000DEBFCDBF11E0A0E0B1E0E6E4FCE102C09C
:1000D00005900D92A430B107D9F712E0A4E0B1E089
:1000E00001C01D92A334B107E1F70E949D040C9456
:1000F000210E0C9400009C01F999FECF32BD21BD68
:10010000F89A80B508959C01F999FECF1FBA32BDC7
:1001100021BD60BD0FB6F894FA9AF99A0FBE089502
:10012000DF93CF9300D000D00F92CDB7DEB74983D5
:100130005A836B837C838D83842F0E94040D8A8174
:100140000E94040D8B810E94040D8C810E94040D7D
:100150008D810E94040D0F900F900F900F900F90C3
:10016000CF91DF9108951F920F920FB60F92112435
:100170000F931F932F933F934F935F936F937F93AF
:100180008F939F93AF93BF93EF93FF93DF93CF939F
:10019000CDB7DEB72F97DEBFCDBF8AEA8093B2001E
:1001A00080910B0190910C01892B09F0AEC30E9444
:1001B0006D05882309F46BC31092080110920701A2
:1001C00010920A01109209011092020190911201FD
:1001D000992329F080911301981708F041C080E11C
:1001E00091E00E94F00C8823D9F580911201E82F4C
:1001F000F0E0EB5CFD4F9091100190838F5F809356
:100200001201892F829586958770853049F5892F4F
:100210008F7180931101E82FF0E0EE31F10578F451
:10022000E25CFF4FEE0FFF1F0590F491E02D099463
:1002300081E003C082E001C08AE08093130181E085
:100240008093120110921501109214011092160160
:100250008FEF9FEF909301018093000110921E0198
:1002600010911201112309F479C280911401909127
:10027000150101969093150180931401809113014B
:10028000181709F06BC280911101893109F462C01D
:100290008A3148F4883009F46AC1893009F473C09E
:1002A0008823C9F040C28B3189F08B3188F18C31C1
:1002B00021F08D3109F037C204C081E080930F0135
:1002C00002C010920F01109316012DC21092180156
:1002D00010921701F8CF84E00E94AC0C90931D019E
:1002E00080931C0120EC209335029C0113E036958D
:1002F00027951A95E1F72093360287708295807FC3
:1003000080933702809112018093160183E038C0F8
:1003100084E00E94AC0C8E55914008F404C2F99917
:1003200002C26091360270E068777070B3E0769533
:100330006795BA95E1F770931D0160931C018CE0FD
:1003400090E043E850E00E940C0E809112018093EF
:100350001601E9C18CE090E06BE770E00E94F60DB9
:1003600080931C0190931D0198EC90933502880FA7
:10037000880F880F8877809336021093160182E0E9
:1003800080931E01D0C1F999CEC184E00E94AC0CCB
:100390008E55914008F4C7C18091000190910101F0
:1003A0008430910509F455C08530910530F40097EB
:1003B00061F0029709F0B0C022C08630910509F4BF
:1003C00064C0089709F0A8C082C08091380290E00C
:1003D0008E779070969587952091370230E02F7038
:1003E0003070F6E0220F331FFA95E1F7822B932B42
:1003F00090931D0180931C0182E090E025C0209124
:10040000390230E02F773070220F331F220F331F55
:100410008091380290E081709070982F8827990F12
:10042000282B392B80913A0290E08076907065E01D
:10043000969587956A95E1F7282B392B30931D0106
:1004400020931C0184E090E09093010180930001CF
:1004500081C080913B0290E08C7790709695879553
:100460009695879520913A0230E02F71307045E0E3
:10047000220F331F4A95E1F7822B932B90931D0196
:1004800080931C0186E090E0DFCF20913C0230E0B9
:10049000220F331F307080913B0290E08370907088
:1004A000982F8827282B392B80913D0290E080746B
:1004B000907016E0969587951A95E1F7282B392BC1
:1004C00030931D0120931C0188E090E0BDCF209166
:1004D0003E0230E028773070B3E036952795BA9524
:1004E000E1F780913D0290E08F739070A4E0880F57
:1004F000991FAA95E1F7282B392B30931D012093E2
:100500001C018AE090E090930101809300018091AA
:100510001201809316011EC02091370230E020772F
:100520003070F4E036952795FA95E1F78091360220
:1005300090E08F779070E3E0880F991FEA95E1F7DC
:10054000282B392B30931D0120931C01109201019F
:100550001092000160911C0170911D0180910001B9
:100560009091010143E850E00E940C0EDCC0F99923
:10057000DAC084E00E94AC0C8E55914008F4D3C0E0
:1005800080910001909101018430910509F446C0E9
:100590008530910530F4009781F0029709F0B0C0E2
:1005A00021C08830910509F470C08A30910509F4A2
:1005B00088C0069709F0A4C04FC080911C0190919B
:1005C0001D0173E0969587957A95E1F78F77809373
:1005D000360280911C01829580778093370282E0F9
:1005E00090E017C080911C0190911D0166E09695E6
:1005F00087956A95E1F78F7020913702822B80935F
:10060000370280911C01880F8E778093380284E036
:1006100090E0909301018093000179C080911D01C9
:100620008695817090913802892B80933802809151
:100630001C0190911D0196958795969587958F77CA
:100640008093390280911C018295880F8076809377
:100650003A0286E090E0DDCF80911C0190911D016F
:1006600045E0969587954A95E1F78F7120913A027A
:10067000822B80933A0280911C01880F880F8C771F
:1006800080933B0288E090E0C4CF80911D0183708D
:1006900090913B02892B80933B0280911C019091A9
:1006A0001D01969587958F7780933C0280911C0160
:1006B0008295880F880F807480933D028AE090E0D5
:1006C000A8CF80911C0190911D0124E096958795FB
:1006D0002A95E1F78F7320913D02822B80933D0292
:1006E00080911C01880F880F880F887780933E02C5
:1006F00080911201809316018AE080931E0107C049
:1007000084EC8093350210920101109200018091D7
:100710000001909101016BE770E00E94F60D90934B
:100720001D0180931C019091160180911201981770
:1007300071F510922F010BC0F0E0EB5CFD4F808152
:100740000E94040D80912F018F5F80932F01E09113
:100750002F0180911E01E81778F307C080911401E2
:10076000909115018F3F910590F010921301109216
:1007700012011092150110921401109216018FEFC0
:100780009FEF909301018093000110921E018091D0
:100790000F01882309F0B9C08091170190911801C9
:1007A000019690931801809317018A5A9A4098F005
:1007B0000E940F0A80E090E020E137E2F9013197D2
:1007C000F1F7019684369105C9F70E94040A109248
:1007D00018011092170181E00E94AC0C9093270140
:1007E0008093260182E00E94AC0C909329018093B3
:1007F000280183E00E94AC0CBC0190932B018093F4
:100800002A018091220140912801509129012091D3
:100810002601309127018E01055F1F4F8F3FB1F4F4
:1008200080E00E94B80D2B873C874D875E876F87DD
:10083000DE011196F80185E001900D928150E1F7FB
:1008400049815A816B817C818D8115C080E00E9435
:10085000B80D2B873C874D875E876F87DE01169624
:10086000F80185E001900D928150E1F74E815F81A2
:10087000688579858A850E94900080911F019091FA
:10088000200101969093200180931F013EC0109299
:100890000F0180910201882391F40E940F0A80E0E9
:1008A00090E020E137E2F9013197F1F701968436C3
:1008B0009105C9F70E94040A81E0809302018091AA
:1008C0000701909108010196909308018093070118
:1008D0008B35910568F01092080110920701809104
:1008E000090190910A01019690930A0180930901F0
:1008F0008091090190910A0181519E4030F081E080
:1009000090E090930C0180930B012F96DEBFCDBF3A
:10091000CF91DF91FF91EF91BF91AF919F918F9117
:100920007F916F915F914F913F912F911F910F9107
:100930000F900FBE0F901F9018950F931F93CF939A
:10094000DF9314BE88E10FB6F89480936000109294
:1009500060000FBE86E00E94550A8CE090E06BE7D5
:1009600070E00E94F60D8330910519F483E390E066
:1009700005C08430910539F489E190E090931D0120
:1009800080931C011DC08530910519F480E190E031
:10099000F5CF8630910519F48CE090E0EFCF079702
:1009A00019F488E090E0EACF8CE090E090931D018C
:1009B00080931C0166E070E043E850E00E940C0E5A
:1009C00080911C0190911D010E94320D0E94DD0C4E
:1009D00010920601109205010E9478050E94750D83
:1009E00000E117E2C1E0D0E041C0C8010197F1F792
:1009F0000E94110D882321F4D0930C01C0930B01A8
:100A000080910501909106010196909306018093D3
:100A100005010E946D05882391F00E94E10C8091F0
:100A20000501909106018130910519F40E94DB0CBB
:100A30001DC08230910599F40E94DD0C17C0809191
:100A40000501909106018130910519F40E94DF0C97
:100A50000DC08230910519F40E94E10C07C0805D41
:100A6000974020F0109206011092050180910B0131
:100A700090910C01892B09F4B8CF0E94320B14BE5F
:100A800088E10FB6F89480936000109260000FBE6A
:100A9000F894109270000E94E10C0E94DD0C0E94FC
:100AA000770D83B7816083BF83B7817F866083BF03
:100AB00088950E94DF0C0E94DB0C80E090E0DF91C3
:100AC000CF911F910F910895559854985098519A2D
:100AD000529A5A9A249A1C98089589B182958170E5
:100AE000089589B182958695817008951C9A08951C
:100AF0001C9808951C9A80E197E228EC30E0F901F7
:100B00003197F1F70197D9F71C980895882321F4BC
:100B100080917A00887F36C0813049F480917A00D4
:100B20008A7F80937A0080917A0082602BC0823025
:100B300049F480917A008B7F80937A0080917A00CB
:100B4000836020C0833049F480917A008C7F809349
:100B50007A0080917A00846015C0843049F48091D5
:100B60007A008D7F80937A0080917A0085600AC038
:100B7000853059F480917A008E7F80937A0080913D
:100B80007A00866080937A000895863029F48091F7
:100B90007A00876080937A000895EAE7F0E0808128
:100BA000806880830895EAE7F0E080818F77808312
:100BB0000895882321F480917C008E7F05C08130C8
:100BC00071F480917C00816080937C0080917C0036
:100BD0008D7F80937C0080917C008B7F2BC0823046
:100BE00021F480917C008E7F05C0833049F4809190
:100BF0007C00816080937C0080917C008260E9CFE2
:100C0000843049F480917C008E7F80937C008091B9
:100C10007C008D7F0AC08630D1F480917C008E7F6D
:100C200080937C0080917C00826080937C00809126
:100C30007C00846080937C0080917C00877F80931F
:100C40007C0080917C008F7E80937C0008958730AB
:100C5000C9F480917C00816080937C0080917C004D
:100C6000826080937C0080917C00846080937C0013
:100C700080917C00877F80937C0080917C008F7EB8
:100C800080937C0008950E94D90580917A0080614C
:100C900080937A0080917A00806480937A008091BA
:100CA0007A0086FDFCCF2091780040917900942F46
:100CB00080E030E0282B392BC90108959093C500BE
:100CC0008093C400662319F0613029F402C088E0E3
:100CD00003C080E101C088E18093C10086E0809379
:100CE000C20008959093CD008093CC00662319F044
:100CF000613029F402C088E003C080E101C088E1CE
:100D00008093C90086E08093CA0008958FB7F89455
:100D100095B7906895BF95B7906895BF8FBF0895B8
:100D20008230B1F0833028F4882351F0813001F50E
:100D30000BC08430A9F0843078F08530C9F414C039
:100D40008091B100816017C08091B100826013C0B2
:100D50008091B10083600FC08091B10084600BC0AE
:100D60008091B100856007C08091B100866003C0AA
:100D70008091B10087608093B10008950E94900631
:100D80001092B200E0E7F0E0808181608083789487
:100D90000895109270001092B1000895F89428E020
:100DA00088E190E00FB6F894A895809360000FBE9C
:100DB00020936000FFCF14BE88E10FB6F8948093B3
:100DC0006000109260000FBE089540E054E220E100
:100DD00037E26DE08091C00085FFFCCF8091C000BC
:100DE0008F7D8093C0005093C600C9010197F1F731
:100DF0008091C00085FFFCCF8091C0008F7D8093E3
:100E0000C0005093C600C9010197F1F78091C0005E
:100E100085FFFCCF8091C0008F7D8093C0005093F0
:100E2000C600C9010197F1F78091C00085FFFCCF92
:100E30008091C0008F7D8093C0006093C600809138
:100E4000C00085FFFCCF8091C0008F7D8093C000E3
:100E50006093C6008091C00087FD04C08091C000EF
:100E600087FF25C08091C600833409F58091C000BA
:100E700085FFFCCF8091C0008F7D8093C0008DE006
:100E80008093C60020E030E09DE08091C00085FFA7
:100E9000FCCF8091C0008F7D8093C0009093C600EE
:100EA0002F5F3F4F2A30310581F781E008954F5F72
:100EB0004F3F09F08FCF80E0089540E05DE220E1F0
:100EC00037E26DE08091C00085FFFCCF8091C000CB
:100ED0008F7D8093C0005093C600C9010197F1F740
:100EE0008091C00085FFFCCF8091C0008F7D8093F2
:100EF000C0005093C600C9010197F1F78091C0006E
:100F000085FFFCCF8091C0008F7D8093C0005093FF
:100F1000C600C9010197F1F78091C00085FFFCCFA1
:100F20008091C0008F7D8093C0006093C600809147
:100F3000C00085FFFCCF8091C0008F7D8093C000F2
:100F40006093C6004F5F4F3F69F08091C00087FDFE
:100F500006C08091C00087FD02C081E008958091A5
:100F6000C600B0CF80E0089551985298249880E14F
:100F700097E20197F1F7519A529A5A9A249A2C982B
:100F80008091230181608093230108959F92AF9205
:100F9000BF92CF92DF92EF92FF920F931F93482F51
:100FA00050E0FDE060E177E2B3E5BB2EA5E5AA2EB7
:100FB000ECE29E2E03E3E8E339E3F32E26E3E22E90
:100FC00014E3A2E3B1E395E3C92E87E3D82E20E032
:100FD00030E08091C00087FD04C08091C00087FF91
:100FE00002C08091C6002F5F3F4F2436310589F73C
:100FF0008091C00085FFFCCF8091C0008F7D8093E1
:10100000C000F093C600CB010197F1F78091C000BA
:1010100085FFFCCF8091C0008F7D8093C000F0934E
:10102000C6008091C00085FFFCCF8091C0008F7DFD
:101030008093C000B092C600CB010197F1F7809178
:10104000C00085FFFCCF8091C0008F7D8093C000E1
:10105000A092C600CB010197F1F78091C00085FFF7
:10106000FCCF8091C0008F7D8093C0009092C6001D
:10107000CB010197F1F74C3009F47DC04D3068F495
:10108000413009F4C3C0413008F4D7C0433009F4FB
:10109000A6C0483009F0E8C08BC04333A9F14433FF
:1010A00038F4403109F457C0493109F0DDC03CC083
:1010B0004736D1F04F3C09F0D7C08091C00085FF82
:1010C000FCCF8091C0008F7D8093C000A093C600AC
:1010D0008091C00085FFFCCF8091C0008F7D809300
:1010E000C0001093C600D6C08091C00085FFFCCF21
:1010F0008091C0008F7D8093C0001093C6008091C6
:10110000C00085FFFCCFBFC08091C00085FFFCCF31
:101110008091C0008F7D8093C000F092C6008091C6
:10112000C00085FFFCCF98C08091C00085FFFCCF38
:101130008091C0008F7D8093C000B093C6008091E5
:10114000C00085FFFCCF8091C0008F7D8093C000E0
:10115000F092C6009FC08091C00085FFFCCF8091B7
:10116000C0008F7D8093C000A093C6008091C00016
:1011700085FFFCCF88C08091C00085FFFCCF8091A7
:10118000C0008F7D8093C0000093C600CB01019703
:10119000F1F78091C00085FFFCCF8091C0008F7D6A
:1011A0008093C000E093C600CB010197F1F772C0B5
:1011B0008091C00085FFFCCF8091C0008F7D80931F
:1011C000C000C092C6008091C00085FFFCCF809116
:1011D000C0008F7D8093C000D092C6005BC080911C
:1011E000C00085FFFCCF8091C0008F7D8093C00040
:1011F000B093C6008091C00085FFFCCF8091C000F5
:101200008F7D8093C000B093C60044C08091C00021
:1012100085FFFCCF8091C0008F7D8093C000A0939C
:10122000C6008091C00085FFFCCF8091C0008F7DFB
:101230008093C0000093C6002DC08091C00085FF40
:10124000FCCF8091C0008F7D8093C0001093C600BA
:101250008091C00085FFFCCF8091C0008F7D80937E
:10126000C000E092C60016C08091C00085FFFCCF90
:101270008091C0008F7D8093C0000093C600809154
:10128000C00085FFFCCF8091C0008F7D8093C0009F
:10129000E093C6008091C00085FFFCCF8091C00024
:1012A0008F7D8093C000F093C600CB010197F1F7CA
:1012B0008091C00085FFFCCF8091C0008F7D80931E
:1012C000C000F093C600CB010197F1F78091C000F8
:1012D00087FD04C08091C00087FF06C08091C600D2
:1012E000813411F481E005C05F5F5F3F09F06FCE8C
:1012F00080E01F910F91FF90EF90DF90CF90BF9013
:10130000AF909F90089530E020E06DE040E157E21B
:10131000E7E475E58091C00085FFFCCF8091C000B7
:101320008F7D8093C0006093C600CA010197F1F7DA
:101330008091C00085FFFCCF8091C0008F7D80939D
:10134000C0006093C6008091C00085FFFCCF8091F3
:10135000C0008F7D8093C000E093C600CA01019752
:10136000F1F78091C00085FFFCCF8091C0008F7D98
:101370008093C0007093C600CA010197F1F7809175
:10138000C00085FFFCCF8091C0008F7D8093C0009E
:101390006093C600CA010197F1F78091C00085FFF4
:1013A000FCCF8091C0008F7D8093C0006093C60009
:1013B000CA010197F1F73F5F3F3F21F18091C000E3
:1013C00087FD14C08091C00087FD10C0243389F0D0
:1013D000253328F4213389F0223399F405C02533CD
:1013E00071F0293371F407C02FEC0CC02091C600B6
:1013F00091CF27E607C023E305C023E003C028E020
:1014000001C02CE0822F0895519A529A5A9A249A38
:101410002C98809123018160809323010895519835
:1014200052982498809123018E7F80932301089500
:10143000809123018170089589B18295817008950A
:1014400089B18295869581700895FC018091C000D4
:1014500087FD06C08091C00087FD02C080E008952E
:101460008091C600808381E00895982F8091C0000C
:1014700085FFFCCF8091C0008F7D8093C00090934A
:10148000C6000895882311F4289805C0813011F012
:10149000823019F4289A29980895833011F080E059
:1014A0000895289A299A83E00895CF92DF92EF92C7
:1014B000FF920F931F93CF93DF93C82ED0906600B7
:1014C0003A9A429A9FB7F89485B7806885BF85B7E6
:1014D000806885BF9FBF089809980A980B980C9858
:1014E0000D980E980F982098219822982A98239862
:1014F0002498259826982798389839983B983C98AE
:101500003D983E983F9850985198529853985498C7
:10151000559856985798519A529A5A9A249A2C98B4
:10152000209A219A239A2B9A83E08093230182E0C8
:101530000E94420A1092C5008CE08093C40088E1AA
:101540008093C10086E08093C2000E94E506882354
:10155000B1F03A9A42983A9880912301877F80931C
:1015600023010E9483098C3009F041C03A9A4298C5
:101570003A9880912301877F8093230138C010E53A
:1015800083E0E82E08E1F02E06E010936600C0E04C
:10159000D0E01092C500E092C400F092C100009328
:1015A000C2000E94E5068823C9F08CE00E94C607AD
:1015B0008823A1F00E94B4071092C5008CE08093AC
:1015C000C400F092C1000093C2003A9A42983A983F
:1015D00080912301877F8093230104C02196CA3024
:1015E000D105B9F61F5F1F3F81F6D09266001092B9
:1015F000C5008CE08093C40088E18093C10086E040
:101600008093C20080917C00806480937C0085E0A0
:101610000E94860580917A00806880937A008C2DE4
:101620000E94BE06DF91CF911F910F91FF90EF9026
:10163000DF90CF900895209A219A239A2B9A809137
:101640002301826080932301089580E00E94420A72
:1016500020982198239A2B98809123018D7F809345
:1016600023010895F8945198529824988091230169
:101670008E7F809323010E94250B399A41983998D7
:101680003A9A42983A9880912301837F809323016C
:1016900011B814B817B81AB812B815B818B81BB8DA
:1016A000109270001092B10088E10FB6F894809308
:1016B0006000109260000FBEEAE7F0E080818F7753
:1016C000808385B7806185BF80B7877F80BF80B703
:1016D000806880BFE4E6F0E080818D6A808383B714
:1016E000816083BF85B7806685BF8F7D85BF789415
:1016F00083B7817F846083BF889583B78E7F83BFE4
:10170000089580912301869581700895399A419AB0
:10171000809123018460809323010895399A419830
:101720003998809123018B7F8093230108958091C4
:10173000230186958695817008953A9A429A809100
:10174000230188608093230108953A9A42983A9839
:1017500080912301877F8093230108958091230145
:10176000869586958695817008959093C50080939F
:10177000C40088E18093C10086E08093C200089590
:101780009093CD008093CC0088E18093C90086E0DF
:101790008093CA000895EBE7F0E08081887F808322
:1017A000EAE7F0E08081806280830895EAE7F0E074
:1017B00080818F7D80830895882321F480917A0031
:1017C000887F36C0813049F480917A008A7F809387
:1017D0007A0080917A0082602BC0823049F4809137
:1017E0007A008B7F80937A0080917A00836020C09A
:1017F000833049F480917A008C7F80937A008091C5
:101800007A00846015C0843049F480917A008D7F1D
:1018100080937A0080917A0085600AC0853059F4FF
:1018200080917A008E7F80937A0080917A00866022
:1018300080937A000895863029F480917A00876039
:1018400080937A000895ECE7F0E0808180648083E3
:101850000895EAE7F0E08081806880830895EAE7F0
:10186000F0E080818F7780830895EAE7F0E080815F
:1018700080618083808180648083089580917A0074
:1018800080740895882321F480917C008E7F05C0A8
:10189000813071F480917C00816080937C00809124
:1018A0007C008D7F80937C0080917C008B7F2BC09F
:1018B000823021F480917C008E7F05C0833049F412
:1018C00080917C00816080937C0080917C008260AC
:1018D000E9CF843049F480917C008E7F80937C0036
:1018E00080917C008D7F0AC08630D1F480917C008D
:1018F0008E7F80937C0080917C00826080937C004E
:1019000080917C00846080937C0080917C00877F44
:1019100080937C0080917C008F7E80937C00089572
:101920008730C9F480917C00816080937C00809135
:101930007C00826080937C0080917C008460809336
:101940007C0080917C00877F80937C0080917C006C
:101950008F7E80937C0008950E94420C80917A00D3
:10196000806180937A0080917A00806480937A000D
:1019700080917A0086FDFCCF20917800409179001B
:10198000942F80E030E0282B392BC90108950B9863
:101990000A9809980E98ECE7F0E0808180648083D3
:1019A00085E00E94DC0BEAE7F0E0808180688083BC
:1019B000399A3A9A0895419A089541980895429A19
:1019C00008954298089585E083BF08958FB7F894ED
:1019D00095B7906895BF95B7906895BF8FBF0895EC
:1019E000FC018091C00087FD0AC080ED97E001975F
:1019F000F1F78091C00087FD02C081E008958091D9
:101A0000C600808380E00895982F8091C00085FFF4
:101A1000FCCF8091C0008F7D8093C0009093C60062
:101A2000089580B1829586958170089583B7817FEE
:101A3000846083BF83B7816083BF83B7816083BFC6
:101A4000889583B78E7F83BF0895F89428E088E156
:101A500090E00FB6F894A895809360000FBE209395
:101A60006000FFCF3FB7F89425B7206825BF25B7A2
:101A7000206825BF3FBF9093C5008093C40088E1D4
:101A80008093C10086E08093C2000E9464050E949A
:101A9000800D0E94C70C0D98059A83B7876083BF9D
:101AA000E1EBF0E08081876080838AE98093B20077
:101AB000E0E7F0E080818160808378940895882356
:101AC00011F4289803C0813019F4289A29980895B0
:101AD000823019F4299A28980895833011F080E013
:101AE0000895289A299A83E008952B9A08952B98AF
:101AF000089585B18695869586958095817008951F
:101B0000209A219A239A0B980A9809982298089863
:101B10000C980D9882E00E945F0D809334022B9AFE
:101B2000089520E030E048ED822F98E087FF03C061
:101B3000880F842701C0880F9150C1F7F901EE5C2E
:101B4000FE4F80832F5F3F4F81E02030380761F7E1
:101B50000895DC01E0E090E007C08D91E827F0E017
:101B6000EE5CFE4FE0819F5F9617B8F38E2F0895CD
:101B70001F93DF93CF9300D000D00F92CDB7DEB785
:101B8000F901122F1F77EE0FEF2FEE1FFF0BF195CC
:101B9000E770942F990F990F990F9877E92B24E00C
:101BA000569547952A95E1F74F73962F9295990F81
:101BB000990F9074492BDB01B695A795AF77877085
:101BC000880F880F8068972F9370892B282F3A2FC2
:101BD0005E2F612F70E080E090E00F900F900F90EB
:101BE0000F900F90CF91DF911F910895DF92EF92A8
:101BF000FF920F931F937B018C01FB010995D82E57
:101C0000C8010196F7010995982F8D2D1F910F910D
:101C1000FF90EF90DF900895DF92EF92FF920F9385
:101C20001F93D72E7A018C01FA010995C8010196FC
:101C30006D2DF70109951F910F91FF90EF90DF90A7
:061C40000895F894FFCFA7
:041C4600FFFF01009B
:00000001FF
