:100000000C9484000C94A3000C94A3000C94A30003
:100010000C94A3000C94A3000C94A3000C94A300D4
:100020000C94A3000C94A3000C94A3000C94DE0782
:100030000C94A3000C94A3000C94A3000C94A300B4
:100040000C94A3000C94A3000C94A3000C94A300A4
:100050000C94A3000C94A3000C94A3000C94A30094
:100060000C94A3000C94A3000C94A3000C94A30084
:100070000C94A3000C94A3000C94A3000C94A30074
:100080000C94A3000C94A3000C94A300931193115F
:10009000931193119311951193119B119311951134
:1000A000931195119311951193119311931193112C
:1000B0009311951193119B11931193119311991110
:1000C000951197119511931193117D12AB126C1329
:1000D0002D179A12A012E1141C146613B0133317D3
:1000E000411758135E13301778126F127512DC1314
:1000F000E5135115C4158B16901695162212F4139C
:10010000D111C9162317EE1311241FBECFEFD0E46F
:10011000DEBFCDBF11E0A0E0B1E0E2E5F1E300E039
:100120000BBF02C007900D92AC30B107D9F718E3AE
:10013000ACE0B1E001C01D92A33AB107E1F70E9423
:100140008E040C94A7180C940000362F382720E05A
:1001500088E090E040E853E837FF02C024273527C5
:10016000220F331F0197C1F7832F0895EF92FF925B
:100170000F931F93CF93DF937A01062F172FC0E0C1
:10018000D0E006C0F80161918F010E94A500219680
:10019000CE15DF05BCF3DF91CF911F910F91FF903A
:1001A000EF900895CF93DF93FC0140E050E0C1E26F
:1001B000D0E112C0319120E04227532788E090E03F
:1001C000DA01AA0FBB1F57FF04C0AD014C275D2702
:1001D00001C0AD010197A1F7615070408FEF6F3FF3
:1001E000780741F7CA01DF91CF910895EF92FF920E
:1001F0000F931F93CF93DF93EC018B017A018091D2
:100200002501882309F475C0109271388091690C1A
:1002100090916A0C8C179D0740F421E0209371386F
:100220009E01281B390BC90102C08C1B9D0B9093AA
:10023000660C8093650C80916D0C90916E0C80170C
:10024000910750F420917138226020937138980101
:10025000281B390BC90102C0801B910B90936C0CB9
:1002600080936B0C80916338909164388E159F0554
:1002700050F4209171382460209371389701281B25
:10028000390BC90102C08E199F099093623880937F
:1002900061388091650C9091660C8032910518F55B
:1002A000E0916B0CF0916C0CE032F105E0F42091E0
:1002B00061383091623820323105A8F440917138AC
:1002C000542F51705295550F507E642F6270629575
:1002D000607F6E2B4470440F440F440F422B852BDC
:1002E0000E947D100CC0CE01B801A7010E94301001
:1002F00006C0CE010E94301081E080932501D0938A
:100300006A0CC093690C10936E0C00936D0CF09204
:100310006438E0926338DF91CF911F910F91FF9085
:10032000EF9008950F931F93CF93DF939C01FB01F0
:1003300060910601C62FD0E08CE291E0E89FD001E9
:10034000E99FB00DF89FB00D1124AF51B74F40E0B9
:1003500050E080E090E00DC00D911C911197800F4E
:10036000911F4F5F5F4F12960D911C9113970D9344
:100370001D934C175D0784F370E00E94251886E9F1
:1003800090E0E89FD001E99FB00DF89FB00D1124D7
:10039000AC0FBD1FAA0FBB1FAF51B74F11963C93B7
:1003A0002E936217730718F4261B370B04C0CB017A
:1003B000821B930B9C01C901DF91CF911F910F917B
:1003C0000895CF92DF92EF92FF920F931F93CF93F6
:1003D000DF9310922601809123019091240124E063
:1003E0008030920721F41092240110922301809111
:1003F00023019091240190934701809346019093AB
:1004000045018093440190934301809342019C01F4
:100410002F5F3F4F3093240120932301E0906C38ED
:10042000F0906D3800916E3810916F3860E070E098
:100430000E9492016C01809144019091450161E01C
:1004400070E00E949201EC01809146019091470179
:1004500062E070E00E949201CC0DDD1DC80FD91F33
:10046000BE0180E090E06E0D7F1D801F911F6093A4
:100470006C3870936D3880936E3890936F382091FC
:100480004F01309150014091510150915201E09043
:100490000601FF2400E010E0E216F306040715074A
:1004A00008F087C02091670C3091680C2115310548
:1004B00009F078C0209100013091010140E050E046
:1004C0000E9439186091020170910301CB01A0E0F4
:1004D000B0E0E0911F01F091200182179307A4077B
:1004E000B50738F4EE0FFF1FE05AFE4F71836083AB
:1004F00006C0EE0FFF1FE05AFE4F3183208310929B
:100500006C3810926D3810926E3810926F3880915E
:100510001F019091200101969093200180931F016B
:1005200023E0803C920721F41092200110921F01D9
:100530008091170190911801019690931801809372
:100540001701E0911F01F09120018091210190910C
:100550002201E817F907B9F4CF010196909322011F
:100560008093210123E0803C920721F41092220124
:10057000109221018091190190911A010196909396
:100580001A0180931901EE0FFF1FE05AFE4F1182EE
:10059000108280911501909116019093680C8093C0
:1005A000670C14C0215030403093680C2093670CC6
:1005B0000DC0283231054105510541F410926C38C7
:1005C00010926D3810926E3810926F382091100191
:1005D000213031F1213030F02230C9F1233009F0DF
:1005E00074C054C040910E0150910F01809142019E
:1005F00090914301FA0174E0EE0FFF1F7A95E1F745
:10060000E41BF50BE159F34FAC0156954795569510
:10061000479540838295880F880F807C818360C0D6
:1006200080910E0190910F01309142014091430160
:10063000FC0154E0EE0FFF1F5A95E1F7E81BF90BA0
:10064000E159F34F8381842B8383348368C04091C5
:100650000E0150910F018091420190914301FA01E6
:1006600034E0EE0FFF1F3A95E1F7E41BF50BE1597B
:10067000F34FAC0196E0569547959A95E1F737818F
:10068000342B3783880F880F808767C040910E0115
:1006900050910F018091420190914301FA0104E0D1
:1006A000EE0FFF1F0A95E1F7E41BF50BE159F34F3D
:1006B000AC0114E0569547951A95E1F73385342B34
:1006C00033878295807F84875FC0213041F121305C
:1006D00038F0223009F441C0233009F074C054C00E
:1006E00040910E0150910F0180914401909145017C
:1006F000FA01B4E0EE0FFF1FBA95E1F7E41BF50B2A
:10070000E159F34FAC01A4E056954795AA95E1F75E
:100710003181342B31838295807F82835FC0409109
:100720000E0150910F018091440190914501FA0111
:1007300074E0EE0FFF1F7A95E1F7E41BF50BE1592A
:10074000F34FAC015695479556954795458382954D
:10075000880F880F807C868360C080910E01909105
:100760000F013091440140914501FC0154E0EE0F2E
:10077000FF1F5A95E1F7E81BF90BE159F34F80850C
:10078000842B8087318768C040910E0150910F0102
:100790008091440190914501FA0134E0EE0FFF1F72
:1007A0003A95E1F7E41BF50BE159F34FAC0196E004
:1007B000569547959A95E1F73485342B3487880F01
:1007C000880F858767C0213041F1213038F0223011
:1007D00009F442C0233009F073C05CC040910E019F
:1007E00050910F018091460190914701FA0104E078
:1007F000EE0FFF1F0A95E1F7E41BF50BE159F34FEC
:10080000AC0116E0569547951A95E1F73281342BE5
:100810003283880F880F838353C040910E0150911B
:100820000F018091460190914701FA01B4E0EE0F6B
:10083000FF1FBA95E1F7E41BF50BE159F34FAC014B
:10084000A4E056954795AA95E1F73681342B368377
:100850008295807F878334C040910E0150910F01B3
:100860008091460190914701FA0174E0EE0FFF1F5D
:100870007A95E1F7E41BF50BE159F34FAC0156957E
:1008800047955695479542878295880F880F807CBB
:10089000838716C080910E0190910F01309146011F
:1008A00040914701FC0154E0EE0FFF1F5A95E1F71C
:1008B000E81BF90BE159F34F8585842B8587368733
:1008C0002F5F20931001243000F1109210018091CD
:1008D0000E0190910F01019690930F0180930E01EC
:1008E00022E08E3E920720F010920F0110920E012E
:1008F00080910C0190910D0122E08D3E920728F429
:10090000019690930D0180930C01DF91CF911F917F
:100910000F91FF90EF90DF90CF9008951F93CF93AA
:10092000DF930E94B00D882369F411C0EFE0F7E275
:100930003197F1F700C0000021503040B9F701971E
:1009400019F405C08AE090E028EC30E0EFCF0E9477
:10095000D30D909106018CE3989FC00111249093D0
:10096000680C8093670C9093160180931501809119
:10097000640081608093640080916400846080934F
:1009800064008091640080628093640080916400C0
:100990008860809364008091640080688093640024
:1009A00012E080912601882309F4FBC28091640043
:1009B0008E7F809364000E94B9090E94E1018091BA
:1009C0004E01882309F029C180911001813051F036
:1009D000813008F4BFC0823009F444C0833009F08C
:1009E000FCC07BC080910E0190910F01FC0174E06E
:1009F000EE0FFF1F7A95E1F7E81BF90BE159F34F72
:100A00002181822F829586958695837090E0408122
:100A100050E0440F551F440F551F842B952B909386
:100A2000430180934201828130E02F73307054E0A3
:100A3000220F331F5A95E1F7482F42954F7050E02F
:100A4000242B352B309345012093440190E08F7087
:100A5000907046E0880F991F4A95E1F7238126950B
:100A60002695B4C080910E0190910F01FC0134E0F5
:100A7000EE0FFF1F3A95E1F7E81BF90BE159F34F31
:100A8000838190E083709070982F8827248130E0D4
:100A9000822B932B90934301809342018681282FD0
:100AA000229526952695237030E0458150E0440F2D
:100AB000551F440F551F242B352B30934501209390
:100AC000440190E08F739070A4E0880F991FAA955D
:100AD000E1F7278122952F7079C080910E019091C6
:100AE0000F01FC0174E0EE0FFF1F7A95E1F7E81BA0
:100AF000F90BE159F34F4085242F2695269530E0D8
:100B0000878190E08F70907066E0880F991F6A95DA
:100B1000E1F7282B392B3093430120934201842F96
:100B200090E083709070982F8827218530E0822B89
:100B3000932B9093450180934401838582958695FC
:100B40008695837090E0228530E0220F331F220FBC
:100B5000331F3DC080910E0190910F01FC01B4E064
:100B6000EE0FFF1FBA95E1F7E81BF90BE159F34FC0
:100B70008485482F42954F7050E0238530E02F73D5
:100B80003070A4E0220F331FAA95E1F7422B532BBC
:100B90005093430140934201458590E08F709070DF
:100BA00076E0880F991F7A95E1F7242F26952695F0
:100BB00030E0822B932B9093450180934401842F46
:100BC00090E083709070982F8827268530E0822BE4
:100BD000932B909347018093460180912E018130A1
:100BE00021F40E94521110932E01609144017091E2
:100BF00045014091460150914701809142019091F9
:100C000043010E94301087E00E942F0A90936A38B7
:100C1000809369380E946411BBC1809129018823A7
:100C200009F4B0C180913201882311F40E944B0D68
:100C300080914E01882309F4B4CE8FE097E20197AA
:100C4000F1F700C000000E946411C4E6D0E08FEF0D
:100C50000E941B0B80912601882311F00E94E10164
:100C60002197A9F787E00E942F0A90936A38809312
:100C700069380E9420110E948A1720910E0130913C
:100C80000F01309314012093130180910C01909176
:100C90000D01E2E08D3E9E0731F42F5F3F4F309310
:100CA0001201209311010E94AB1010920D011092BD
:100CB0000C0125C1FC0154E0EE0FFF1F5A95E1F72E
:100CC000E81BF90BE159F34F6181862F82958695D8
:100CD0008695837090E0208130E0220F331F220F31
:100CE000331F822B932B90934301809342014281C7
:100CF00070E06F737070B4E0660F771FBA95E1F71C
:100D0000242F22952F7030E0622B732B70934501B6
:100D10006093440150E04F705070A6E0440F551F9F
:100D2000AA95E1F723812695269530E0422B532B97
:100D300050934701409346010E94F60080911101B3
:100D400090911201FC0174E0EE0FFF1F7A95E1F71C
:100D5000E81BF90BE159F34F838190E083709070A9
:100D6000982F8827248130E0822B932B9093430186
:100D7000809342014681642F629566956695637003
:100D800070E0258130E0220F331F220F331F622BCA
:100D9000732B709345016093440150E04F73507082
:100DA00034E0440F551F3A95E1F7278122952F70C3
:100DB00030E0422B532B50934701409346010E9451
:100DC000F6008091110190911201FC0124E0EE0FD8
:100DD000FF1F2A95E1F7E81BF90BE159F34F6085F6
:100DE000862F8695869590E0278130E02F703070B1
:100DF000B6E0220F331FBA95E1F7822B932B909325
:100E000043018093420170E063707070762F662713
:100E1000218530E0622B732B709345016093440170
:100E20004385429546954695437050E0228530E0D3
:100E3000220F331F220F331F422B532B5093470196
:100E4000409346010E94F600809111019091120199
:100E5000FC0154E0EE0FFF1F5A95E1F7E81BF90B78
:100E6000E159F34F6485862F82958F7090E023853A
:100E700030E02F73307044E0220F331F4A95E1F7C2
:100E8000822B932B9093430180934201458570E020
:100E90006F70707036E0660F771F3A95E1F7242F78
:100EA0002695269530E0622B732B70934501609355
:100EB000440150E043705070542F4427268530E0A1
:100EC000422B532B50934701409346010E94F6005A
:100ED00080911101909112010196909312018093DB
:100EE0001101F2E08E3E9F0721F410921201109240
:100EF000110180912601882311F00E94E101809167
:100F00001101909112012091130130911401821767
:100F1000930709F0CFCE0E943C1110922801109245
:100F2000270113C0EFE0F7E23197F1F700C00000AE
:100F3000019690932801809327010E94641180916B
:100F40002601882311F00E94E101809127019091F0
:100F50002801F1E080399F0728F380914E01882312
:100F600039F480913201882319F40E94D30A02C017
:100F70000E94DE0A1092370110922B0110922A0172
:100F80000E94530D80912601882311F00E94E101F7
:100F90000E94BF0980916400816080936400109278
:100FA0002901F89483B7817F83BF83B7816083BFB2
:100FB0007894889583B78E7F83BFF3CC1F920F926E
:100FC0000FB60F920BB60F9211241F932F933F93DE
:100FD0004F935F936F937F938F939F93AF93BF9341
:100FE000EF93FF930E94B00D20912F01882309F405
:100FF00043C080913001909131010196909331016D
:1010000080933001222309F059C1309106012CE36D
:10101000329F900111242817390708F04FC1109210
:10102000200110921F0110922201109221011092B2
:1010300018011092170110921A01109219010E94C2
:10104000DE0A81E080932F0180913201813009F026
:1010500035C10E94D30A109232010E94620D88ECC1
:1010600090E0EFE1FEE43197F1F700C00000019756
:10107000C1F70E946A0D22C1109231011092300115
:10108000222321F00E94D30A10922F01809129017E
:10109000882321F580913201882301F580916538FC
:1010A00090916638019690936638809365383091B8
:1010B000060125E0329F900111248217930719F44D
:1010C0000E944B0D0BC0265F3F4F8217930731F4F0
:1010D0000E94530D109266381092653880912D0150
:1010E000882389F48091070180932D0180914C0120
:1010F0008093B20011E01093260180914E01882365
:1011000009F052C00FC0813019F480914D0102C026
:1011100080914C018093B20080912D018150809389
:101120002D01CCC080914F0190915001A0915101AF
:10113000B09152010196A11DB11D80934F01909372
:101140005001A0935101B09352010E94F90A8823E3
:1011500029F410922E0110922501B0C080912E0129
:10116000882311F410932E0180915B0190915C0112
:10117000A0915D01B0915E0120915701309158011D
:101180004091590150915A01281739074A075B07C6
:1011900041F08093570190935801A0935901B09367
:1011A0005A010E9464118AC0823009F087C0809180
:1011B0008538882399F08091570190915801A0912A
:1011C0005901B0915A010197A109B10980935701C2
:1011D00090935801A0935901B0935A0180914F0107
:1011E00090915001A0915101B09152010196A11D21
:1011F000B11D80934F0190935001A0935101B09382
:1012000052010E94F90A882399F5109225018091D4
:101210002A0190912B01309106012DE2329F90011D
:1012200011248217930730F4019690932B01809339
:101230002A0144C08217930709F040C00E94030BA3
:1012400080913201882311F40E94D30A9091060103
:101250008DE2989FC0011124019690932B018093F9
:101260002A018FE19EE40197F1F700C0000026C03B
:10127000809185388823E9F080915B0190915C0131
:10128000A0915D01B0915E0120915701309158010C
:101290004091590150915A01281739074A075B07B5
:1012A00041F08093570190935801A0935901B09356
:1012B0005A010E94641181E080932901FF91EF910E
:1012C000BF91AF919F918F917F916F915F914F915E
:1012D0003F912F911F910F900BBE0F900FBE0F905B
:1012E0001F901895882321F480917A00887F36C05A
:1012F000813049F480917A008A7F80937A008091CE
:101300007A0082602BC0823049F480917A008B7F12
:1013100080937A0080917A00836020C0833049F402
:1013200080917A008C7F80937A0080917A0084602B
:1013300015C0843049F480917A008D7F80937A00C3
:1013400080917A0085600AC0853059F480917A00D6
:101350008E7F80937A0080917A00866080937A00F5
:101360000895863029F480917A00876080937A000E
:101370000895EAE7F0E08081806880830895EAE7D5
:10138000F0E080818F7780830895882321F4809115
:101390007C008E7F05C0813071F480917C0081607B
:1013A00080937C0080917C008D7F80937C00809175
:1013B0007C008B7F2BC0823021F480917C008E7F5B
:1013C00005C0833049F480917C00816080937C006B
:1013D00080917C008260E9CF843049F480917C0068
:1013E0008E7F80937C0080917C008D7F0AC0863048
:1013F000D1F480917C008E7F80937C0080917C0072
:10140000826080937C0080917C00846080937C006B
:1014100080917C00877F80937C0080917C008F7E10
:1014200080937C0008958730C9F480917C008160AE
:1014300080937C0080917C00826080937C0080910E
:101440007C00846080937C0080917C00877F809307
:101450007C0080917C008F7E80937C0008950E94A8
:10146000C50980917A00806180937A0080917A002A
:10147000806480937A0080917A0086FDFCCF209171
:10148000780030917900932F80E030E0282B392BC1
:10149000C90108959093C5008093C400662319F094
:1014A000613029F402C088E003C080E101C088E116
:1014B0008093C10086E08093C20008959093CD0090
:1014C0008093CC00662319F0613029F402C088E0D3
:1014D00003C080E101C088E18093C90086E0809369
:1014E000CA0008959FB7F89485B7806885BF85B70F
:1014F000806885BF9FBF08958230B1F0833028F4A3
:10150000882351F0813001F50BC08430A9F084307C
:1015100078F08530C9F414C08091B100816017C0A3
:101520008091B100826013C08091B10083600FC0D0
:101530008091B10084600BC08091B100856007C0CC
:101540008091B100866003C08091B1008760809374
:10155000B10008950E947C0A1092B200E0E7F0E02A
:101560008081816080837894089510927000109239
:10157000B10008950E94B50AF89428E088E190E04F
:101580000FB6F894A895809360000FBE209360007A
:10159000FFCF14BE88E10FB6F894809360001092DC
:1015A00060000FBE0895519A529A5A9A249A2C9824
:1015B0008091703881608093703808955198529866
:1015C0002498809170388E7F8093703808950E949F
:1015D000DE0A8FEFEFE0F7E23197F1F700C000008D
:1015E0008150C1F70E94D30A0895809170388170AC
:1015F000089580B182958170089580B18295869515
:1016000086958170089502C08091C6008091C000C7
:1016100087FDFACF08952091C00027FD04C02091D6
:10162000C00027FF06C02091C600FC01208381E096
:10163000089580E008959091C00095FFFCCF9091AF
:10164000C0009F7D9093C0008093C6000895FF92D4
:101650000F931F93DF93CF930F92CDB7DEB719820D
:10166000FF248E010F5F1F4F8DE00E941B0B8FE048
:1016700097E20197F1F700C000008DE00E941B0B7C
:1016800087E40E941B0B8FE097E20197F1F700C0FF
:10169000000085E50E941B0B8FE097E20197F1F7B0
:1016A00000C000008DE00E941B0B8FE097E20197C5
:1016B000F1F700C000008DE00E941B0B8FE097E265
:1016C0000197F1F700C00000F3949F2D9F3F91F028
:1016D000C8010E940B0B882339F614C08FEC09C097
:1016E00087E607C083E305C083E003C088E001C04C
:1016F0008CE0898389810F90CF91DF911F910F91A9
:10170000FF9008958981843359F3853328F4813318
:1017100059F3823369F7E2CF853341F3893341F7D7
:10172000E1CFCF92DF92EF92FF920F931F93DF935F
:10173000CF930F92CDB7DEB7D82E1982CC247E017D
:101740000894E11CF11C04E610E0C7010E940B0B99
:1017500001501040D1F78DE00E941B0B8FE097E203
:101760000197F1F700C000008DE00E941B0B83E59C
:101770000E941B0B8FE097E20197F1F700C0000079
:1017800085E50E941B0B8FE097E20197F1F700C0FF
:1017900000008CE20E941B0B8FE097E20197F1F7AB
:1017A00000C000009D2D9C3069F19D3060F49130A7
:1017B00009F445C0913008F447C09330D9F198300E
:1017C00009F047C032C08D2D833399F0843328F45B
:1017D0008031B1F08931E9F50EC09D2D973639F091
:1017E0009F3CB9F582E30E941B0B84E336C084E37F
:1017F00031C089E32AC081E30E941B0B89E32DC01D
:1018000082E328C083E30E941B0B8FE097E20197DD
:10181000F1F700C0000088E30E941B0B8FE097E205
:101820000197F1F700C000001AC085E30E941B0B6E
:1018300087E313C081E30E941B0B81E30EC082E3A8
:101840000E941B0B83E309C084E30E941B0B86E309
:1018500004C083E30E941B0B88E30E941B0B8DE0F6
:101860000E941B0B8FE097E20197F1F700C0000088
:101870008DE00E941B0B8FE097E20197F1F700C00B
:101880000000C7010E940B0B882319F08981813465
:1018900039F0C3949C2D9F3F09F055CF80E001C0E3
:1018A00081E00F90CF91DF911F910F91FF90EF900A
:1018B000DF90CF900895FF920F931F93DF93CF9304
:1018C0000F92CDB7DEB71982FF248E010F5F1F4F35
:1018D0008DE20E941B0B8FE097E20197F1F700C0A9
:1018E00000008DE20E941B0B8FE097E20197F1F759
:1018F00000C000008DE20E941B0B8FE097E2019771
:10190000F1F700C000008DE00E941B0B8DE00E94EB
:101910001B0BF3949F2D9F3F39F0C8010E940B0BC6
:101920008823B1F681E001C080E00F90CF91DF9174
:101930001F910F91FF9008950F931F93DF93CF9303
:1019400000D0CDB7DEB7198220E08E010F5F1F4FA8
:1019500084E22A830E941B0B8FE097E20197F1F744
:1019600000C0000084E20E941B0B8FE097E2019709
:10197000F1F700C0000084E20E941B0B8FE097E2A9
:101980000197F1F700C000008DE00E941B0B8DE075
:101990000E941B0BC8010E940B0B2A81882381F037
:1019A0008981833469F48DE00E941B0B0AE010E00A
:1019B0008DE00E941B0B01501040D1F781E004C064
:1019C0002F5F2F3F29F680E00F900F90CF91DF918E
:1019D0001F910F910895882311F42898089581305C
:1019E00011F4289A089580E00895209A239A2B9A5A
:1019F000809170388260809370380895809166007D
:101A0000109270380E94720A089809980A980B98E8
:101A10000D980E980F98209821982A98239824982A
:101A2000259826982798389839983A983B983C9862
:101A30003D983E983F985098519852985398549892
:101A40005598569857980E94D30A0E94F50C80E04A
:101A50000E94EB0C8CE090E062E00E944A0AECE706
:101A6000F0E080818064808385E00E9472090E949A
:101A7000B909089580E00E94EB0C2098239A2B98D6
:101A8000809170388D7F8093703808958091703880
:101A9000869581700895539A5B9A8091703884601E
:101AA000809370380895539A5B985398809170385A
:101AB0008B7F8093703808958091703886958695D5
:101AC000817008953B9A439A809170388860809322
:101AD000703808953B9A43983B9880917038877F7F
:101AE0008093703808950E94DE0A0E94530D0E9470
:101AF0006A0D11B814B817B81AB812B815B818B8D2
:101B00001BB80E94B50A88E10FB6F8948093600074
:101B1000109260000FBE0E94BF0985B7806185BF2B
:101B200080B7877F80BF80B7806880BF83B78160C0
:101B300083BF789483B7817F846083BF889583B7A0
:101B40008E7F83BF089586E00E94FE0C0E94730D75
:101B50000895809170388695869586958170089550
:101B600090B181E093FD80E008952091060130E07E
:101B700040E050E064E87EE180E090E00E945B1885
:101B8000822F809591E02130390728F010924C0186
:101B90003093070105C080934C01109207018FEF2D
:101BA00080934D0108950F931F93CF93DF930E946D
:101BB000C90A86E00E94FE0C8AE08093723887E0B2
:101BC0000E942F0AEC0182E0CC3BD80700F503E02D
:101BD00010E00E94620D88EC90E0AFE0B7E2119750
:101BE000F1F700C000000197C1F70E946A0D88EC70
:101BF00090E0EFE0F7E23197F1F700C000000197C5
:101C0000C1F70150104029F7C536D10550F080E0EA
:101C100090E00E94761880934A01853209F0B3C0A3
:101C20001AC00E94620D88EE93E0AFE0B7E2119710
:101C3000F1F700C000000197C1F70E946A0D8FEF15
:101C400094E3ACE081509040A040E1F700C0000078
:101C50000E94730DDAC191E0CD32D90708F4B0C10A
:101C600082E090E00E9476188093060187E090E081
:101C70000E94761880934E0183E090E00E947618CF
:101C800080934C0184E090E00E94761880930701D5
:101C900085E090E00E94761880934D0189E090E005
:101CA0000E947E1890937C3880937B388BE090E084
:101CB0000E947E1890938B3880938A388DE090E054
:101CC0000E947E1890938438809383388FE090E050
:101CD0000E947E18909382388093813881E190E051
:101CE0000E947E18909378388093773883E190E053
:101CF0000E947E18909388388093873885E190E021
:101D00000E947E18909374388093733887E190E036
:101D10000E947E18909376388093753889E190E020
:101D20000E947E1890938E3880938D388BE190E0DE
:101D30000E947E1890937A38809379388DE190E0F4
:101D40000E947E189093803880937F388FE190E0D6
:101D50000E947E1890937E3880937D3881E290E0D7
:101D60000E947618809385380E944B0D88EC90E095
:101D7000AFE1BEE41197F1F700C000000197C1F791
:101D80000E94530D1DC108E20093060110924E01FE
:101D90000E94B50D80914E01823081F0833028F48D
:101DA000882341F0813091F407C0833051F08430B2
:101DB00069F409C08EE708C080E506C000935F01A2
:101DC00005C08EE101C084E180935F0180915F01D5
:101DD00090910601891710F48093060180910B0100
:101DE00090910601981710F480930601B1E0CD326E
:101DF000DB0708F4C1C082E090E0609106010E9418
:101E0000841883E090E060914C010E94841884E083
:101E100090E0609107010E94841885E090E0609155
:101E20004D010E94841887E090E060914E010E946D
:101E3000841881E090E060E00E94841888E090E0DF
:101E4000609108010E94841889E090E065ED72E0DD
:101E50000E9492188BE090E068EA72E00E9492186B
:101E60008DE090E060E872E00E9492188FE090E0D0
:101E700068E572E00E94921881E190E060E372E010
:101E80000E94921883E190E06CE172E00E94921847
:101E900085ED92E090937C3880937B3888EA92E0DD
:101EA00090938B3880938A3880E892E090938438BE
:101EB0008093833888E592E09093823880938138CC
:101EC00080E392E090937838809377388CE192E0C9
:101ED000909388388093873885E190E064EF71E0D3
:101EE0000E94921887E190E065EF71E00E949218DD
:101EF00089E190E066EF71E00E9492188BE190E03A
:101F000067EF71E00E9492188DE190E068EF71E058
:101F10000E9492188FE190E069EF71E00E949218A0
:101F200084EF91E0909374388093733885EF91E05B
:101F3000909376388093753886EF91E090938E3841
:101F400080938D3887EF91E090937A388093793839
:101F500088EF91E09093803880937F3889EF91E00B
:101F600090937E3880937D388FE78093853881E227
:101F700090E06FE70E94841885E280934A0180E038
:101F800090E065E20E948418C3E0D0E00E944B0D0F
:101F900088EC90E0EFE0F7E23197F1F700C0000045
:101FA0000197C1F70E94530D88EC90E0AFE0B7E2D3
:101FB0001197F1F700C000000197C1F7219731F7A1
:101FC0006091853870E080E090E02091060130E07B
:101FD00040E050E00E9406182CE330E040E050E082
:101FE0000E94061860935B0170935C0180935D0111
:101FF00090935E016093570170935801809359014B
:1020000090935A0186E00E94AA0ADF91CF911F9116
:102010000F91089521E030E002C0220F331F8A950E
:10202000E2F780914B01822B80934B01089521E0D0
:1020300030E002C0220F331F8A95E2F7209580918D
:102040004B01822380934B01089520914B0130E096
:1020500002C0359527958A95E2F7822F8170089501
:10206000CF92DF92EF92FF920F931F93CF93DF9364
:10207000EC018B017A016C018D2D83708068809357
:1020800099380E941B0BCE01969587958F77809388
:102090009A380E941B0BC80134E0969587953A95B3
:1020A000E1F78F739E012295220F220F207C922F41
:1020B0009074892B80939B380E941B0BC701880F5B
:1020C000892F881F990B91958770000F000F000FC3
:1020D0000877802B80939C380E941B0B8E2D8F7766
:1020E00080939D380E941B0BDF91CF911F910F9120
:1020F000FF90EF90DF90CF9008951F93DF93CF93E1
:1021000000D0CDB7DEB7182F8695806E80939938B2
:102110004A8369830E941B0B212F30E021703070AD
:1021200056E0220F331F5A95E1F76981862F8F738E
:10213000822B80939A380E941B0B4A81842F880F30
:102140008E7780939B380E941B0B0F900F90CF913E
:10215000DF911F910895CF93DF932CEC2093993852
:10216000292F269520939A389C01369527953695E8
:1021700027952F7720939B3883708295880F807ED8
:1021800080939C38C9E9D8E389910E941B0B88E3AE
:10219000CD39D807C9F7DF91CF9108952FEC20935F
:1021A00099389C01220F232F221F330B31952F7753
:1021B00020939A388F7780939B388FEC0E941B0B6B
:1021C00080919A380E941B0B80919B380E941B0BB8
:1021D000089520ED209399389C01220F232F221F70
:1021E000330B31952F7720939A388F7780939B38D4
:1021F00080ED0E941B0B80919A380E941B0B8091EE
:102200009B380E941B0B08958BEC8093993886E0D5
:1022100080939A388BEC0E941B0B80919A380E9415
:102220001B0B08958AEC8093993883E080939A3849
:102230008AEC0E941B0B80919A380E941B0B089518
:1022400020EC209399389C01F3E036952795FA9578
:10225000E1F720939A3887708295807F80939B382E
:1022600080EC0E941B0B80919A380E941B0B80917E
:102270009B380E941B0B089582ED809399380E9431
:102280001B0B089585EC80939938809106018F7718
:1022900080939A3885EC0E941B0B80919A380E949B
:1022A0001B0B089588EC8093993880914E018770BC
:1022B0008295807F80939A3888EC0E941B0B8091D6
:1022C0009A380E941B0B0895EF92FF920F931F9371
:1022D000DF93CF930F92CDB7DEB7CE0101960E9468
:1022E0000B0B8823E1F180913701E981A82FB0E041
:1022F000A157B74CEC938F5F809337018E2F829557
:1023000086958770853059F5EF71E0938638F0E057
:10231000EF31F10598F4EA5BFF4FEE0FFF1F0590D8
:10232000F491E02D099481E007C082E005C084E0CB
:1023300003C085E001C08AE08093380181E080938A
:10234000370110923A011092390110923B018FEF40
:102350009FEF909305018093040110923C016091DE
:102360003701662309F4B5C58091390190913A018E
:10237000019690933A018093390180913801681752
:1023800009F0A7C5E0918638F0E0EF31F10508F0DB
:1023900085C5EB59FF4FEE0FFF1F0590F491E02D1F
:1023A00009948091903890E08F7790709695982F4F
:1023B0008827979587952091913830E02F77307056
:1023C000822B932B880F991F880F991F2091923889
:1023D00022952695277030E023703070822B932B46
:1023E000019690931C0180931B012091170130915D
:1023F00018012817390708F475C040911901509148
:102400001A01FC01E41BF50B73E0E03CF70708F050
:1024100069C08417950709F465C090931A018093E9
:102420001901281B390B30931E0120931D01809147
:102430001F0190912001821B930B909322018093A6
:10244000210150C020919138622F62956695669562
:10245000617080919038880F682B60934C01909147
:102460009238892F829586958370220F220F822BB6
:10247000809307018091933882958770990F990F07
:10248000990F892B80934D0183E090E00E9484187E
:1024900084E090E0609107010E94841885E090E05C
:1024A00060914D010E9484188091370180933B0117
:1024B0000E94620D8FEF94E3ACE081509040A04009
:1024C000E1F700C000000E946A0D8FEF94E3ACE0DA
:1024D00081509040A040E1F700C00000DFC481E0DF
:1024E00080933D0160933B01D9C410923D01FACF26
:1024F00010923F0110923E01F5CF87E00E942F0A13
:10250000909341018093400120EC209399389C01E5
:1025100013E0369527951A95E1F720939A3887703E
:102520008295807F80939B388091370180933B0117
:1025300083E0A4C483EC809399388091080141C161
:10254000609190386695669566956770609308010E
:1025500088E090E09DC487E00E942F0A60917B385C
:1025600070917C386817790738F484E690E090938E
:102570004101809340018FC040918A3850918B383F
:102580004817590798F4FC01E41BF50B24E130E0EF
:10259000E29FC001E39F900DF29F900D1124641BF8
:1025A000750B0E942518605B7F4F1AC020918338FD
:1025B0003091843828173907C0F4FC01E21BF30B73
:1025C00064E170E0E69FC001E79F900DF69F900DDB
:1025D0001124BA01621B730B0E942518645C7F4FA3
:1025E000709341016093400156C0409181385091F1
:1025F000823848175907A0F4FC01E41BF50B64E18D
:1026000070E0E69FC001E79F900DF69F900D1124AA
:10261000B901641B750B0E942518685D7F4FE0CFE0
:10262000209177383091783828173907A0F4FC01C9
:10263000E21BF30B64E170E0E69FC001E79F900DA1
:10264000F69F900D1124BA01621B730B0E9425188E
:102650006C5E7F4FC5CF40918738509188384817BE
:102660005907A8F4BC01641B750BCB01880F991F97
:10267000A3E0660F771FAA95E1F7860F971FB901B0
:10268000641B750B0E942518665F7F4FA9CF1092BF
:1026900041011092400181EC809399388091400172
:1026A0008F7780939A388091370180933B01E5C3FF
:1026B00087EC8093993880918538DAC3609190389F
:1026C0006F776093853881E290E0E2C385EC809378
:1026D000993880910601CCC382EC8093993880911F
:1026E0004F0190915001A0915101B09152019C0174
:1026F000AD01F9E15695479537952795FA95D1F7AC
:1027000020939A389C01AD01E2E1569547953795A3
:102710002795EA95D1F72F7720939B389C01AD013F
:102720007BE056954795379527957A95D1F72F7782
:1027300020939C389C01AD0104E056954795379550
:1027400027950A95D1F72F7720939D388F70880FA2
:10275000880F880F80939E3860933B0186E08EC37C
:10276000809190388F778093060190915F01981740
:1027700010F49093060180910B0190910601981737
:1027800010F4809306010E94B50D82E090E0609104
:1027900006010E94841883E090E060914C010E9441
:1027A000841884E090E0609107010E94841885E01D
:1027B00090E060914D016CC381ED809399388091D8
:1027C0008C3887708295807F54C360919038629571
:1027D000677060938C3886E090E05AC388EC8093F1
:1027E000993880914E01EDCF609190386295677075
:1027F00060934E0187E090E00E94841880914E0122
:10280000823091F0833030F4882351F0813009F028
:1028100041C308C0833051F0843009F03BC308C085
:102820008EE707C080E505C088E203C08EE101C0E5
:1028300084E180935F012EC3F99930C387E00E9441
:102840002F0AA2E088359A0708F428C360919138CE
:1028500070E06077707014E0769567951A95E1F7EF
:102860008091903890E08F779070B3E0880F991F37
:10287000BA95E1F7682B792B7093743860937338AD
:1028800085E190E00E9492186091923870E06E7736
:102890007070769567958091913890E08F70907008
:1028A000F6E0880F991FFA95E1F7682B792B709362
:1028B00076386093753887E190E00E9492186091B5
:1028C000933870E06F777070660F771F660F771F11
:1028D0008091923890E081709070982F8827990F9E
:1028E000682B792B8091943890E08076907045E049
:1028F000969587954A95E1F7682B792B70938E38DA
:1029000060938D3889E190E00E949218609195382B
:1029100070E06C7770707695679576956795809185
:10292000943890E08F71907025E0880F991F2A9558
:10293000E1F7682B792B70937A38609379388BE1C3
:1029400090E00E9492186091963870E0660F771FB1
:1029500070708091953890E083709070982F8827E0
:10296000682B792B8091973890E080749070B6E056
:1029700096958795BA95E1F7682B792B70938038F7
:1029800060937F388DE190E00E9492188091973893
:1029900090E0BC0168777070A3E076956795AA9582
:1029A000E1F78F739070F4E0880F991FFA95E1F7C3
:1029B000682B792B70937E3860937D388FE190E09F
:1029C000A7C184EC809399388091733890917438C2
:1029D0009C01E3E036952795EA95E1F72F77209360
:1029E0009A382091753830917638A90176E056955D
:1029F00047957A95E1F74F7082958077482B409301
:102A00009B3880918D3890918E38492F4695417032
:102A1000220F2E77422B40939C389C0136952795A8
:102A2000369527952F7720939D38209179383091CE
:102A30007A38A90135E0569547953A95E1F74F71F7
:102A40008295880F8076482B40939E3880917F38FE
:102A500090918038492F4370220F220F2C77422B00
:102A600040939F389C01369527952F772093A03867
:102A700020917D3830917E38A90104E05695479524
:102A80000A95E1F74F738295880F880F8074482B61
:102A90004093A138220F220F220F28772093A238CB
:102AA0006FC089EC8093993880917B3890917C3805
:102AB0009C0113E0369527951A95E1F72F7720931F
:102AC0009A3820918A3830918B38A901B6E0569512
:102AD0004795BA95E1F74F7082958077482B4093E0
:102AE0009B388091833890918438492F4695417066
:102AF000220F2E77422B40939C389C0136952795C8
:102B0000369527952F7720939D38209181383091E5
:102B10008238A901F5E056954795FA95E1F74F718E
:102B20008295880F8076482B40939E388091773825
:102B300090917838492F4370220F220F2C77422B27
:102B400040939F389C01369527952F772093A03886
:102B50002091873830918838A90174E056954795BF
:102B60007A95E1F74F738295880F880F8074482B10
:102B70004093A138220F220F220F287720939838F4
:102B800060933B018AE07AC1F99988C187E00E948D
:102B90002F0AB2E088359B0708F480C16091913814
:102BA00070E06077707054E0769567955A95E1F71C
:102BB0008091903890E08F77907043E0880F991F54
:102BC0004A95E1F7682B792B70937C3860937B38BA
:102BD00089E090E00E9492186091923870E06E77E0
:102BE0007070769567958091913890E08F709070B5
:102BF00026E0880F991F2A95E1F7682B792B7093AF
:102C00008B3860938A388BE090E00E949218609134
:102C1000933870E06F777070660F771F660F771FBD
:102C20008091923890E081709070982F8827990F4A
:102C3000682B792B8091943890E080769070B5E085
:102C400096958795BA95E1F7682B792B7093843820
:102C5000609383388DE090E00E94921860919538DF
:102C600070E06C7770707695679576956795809132
:102C7000943890E08F719070F5E0880F991FFA9565
:102C8000E1F7682B792B70938238609381388FE05D
:102C900090E00E9492186091963870E0660F771F5E
:102CA00070708091953890E083709070982F88278D
:102CB000682B792B8091973890E08074907046E073
:102CC000969587954A95E1F7682B792B709378381C
:102CD0006093773881E190E00E9492188091973854
:102CE00090E0BC016877707033E0769567953A950F
:102CF000E1F78F73907024E0880F991F2A95E1F710
:102D0000682B792B709388386093873883E190E043
:102D10000E949218BFC08AEC8093993883E0A9C0C2
:102D20008BEC8093993886E0A4C08EEC8093993820
:102D300020914C01822F869580939A3880910701CB
:102D400030E02170307006E0220F331F0A95E1F762
:102D5000982F96959695922B90939B3830914D0194
:102D600090E08370907015E0880F991F1A95E1F735
:102D7000232F269526952695282B20939C38832F44
:102D800087708295807F80939D3860933B0185E0BA
:102D900075C020919038822F90E080749070B6E0DA
:102DA00095958795BA95E1F780930A012F73209343
:102DB0000901009709F500E010E018C00E94620DBB
:102DC0008FEF94E3ACE081509040A040E1F700C069
:102DD00000000E946A0D8FEF94E3ACE081509040B8
:102DE000A040E1F700C000000F5F1F4F8091090174
:102DF00090E00817190714F380910A01813009F057
:102E000049C000E010E018C00E944B0D8FEF94E322
:102E1000ACE081509040A040E1F700C000000E946B
:102E2000530D8FEF94E3ACE081509040A040E1F768
:102E300000C000000F5F1F4F8091090190E008174C
:102E4000190714F327C081E0809332010E94DE0A43
:102E50000E94530D0E946A0D1DC00E94E70A1AC00D
:102E60000E94D30D17C086EC8093993880918938E1
:102E70008F7780939A3860933B0182E080933C0186
:102E80000DC0609190386F776093893882E290E04E
:102E90000E9484188091370180933B0190913B01FF
:102EA00080913701981771F5A9E9EA2EA8E3FA2E67
:102EB00000E010E007C0D7018D917D010E941B0B3F
:102EC0000F5F1F4F80913C0190E0081719079CF39A
:102ED00007C08091390190913A018F3F910590F0A0
:102EE000109238011092370110923A011092390174
:102EF00010923B018FEF9FEF9093050180930401A7
:102F000010923C010F90CF91DF911F910F91FF9094
:102F1000EF900895DF92EF92FF920F931F93CF935C
:102F2000DF930091190110911A0180911501909180
:102F300016012091670C3091680C821B930B0E9444
:102F4000E91080911701909118010E94CE10C09154
:102F50002101D09122017DECD72E46C0FE01EE0F5B
:102F6000FF1FE05AFE4F80819181D0929938212F26
:102F7000269520939A38980136952795369527956A
:102F80002F7720939B38202F23702295220F207EAD
:102F9000392F369536953695232B20939C389C01F6
:102FA00044E0369527954A95E1F72F7720939D3891
:102FB0008F70880F880F80939E3839E9E32E38E3AD
:102FC000F32EF70181917F010E941B0BFFE9EF16A1
:102FD000F8E3FF06B1F7219683E0C03CD80711F46F
:102FE000C0E0D0E00F5F1F4F80911F019091200142
:102FF000C817D90709F0B2CF0E946411DF91CF91B1
:103000001F910F91FF90EF90DF900895629FD00184
:10301000739FF001829FE00DF11D649FE00DF11D93
:10302000929FF00D839FF00D749FF00D659FF00D42
:103030009927729FB00DE11DF91F639FB00DE11D2F
:10304000F91FBD01CF0111240895AA1BBB1B51E13B
:1030500007C0AA1FBB1FA617B70710F0A61BB70B08
:10306000881F991F5A95A9F780959095BC01CD01AD
:103070000895A1E21A2EAA1BBB1BFD010DC0AA1FB9
:10308000BB1FEE1FFF1FA217B307E407F50720F0D1
:10309000A21BB30BE40BF50B661F771F881F991F4C
:1030A0001A9469F760957095809590959B01AC0195
:1030B000BD01CF01089597FB092E05260ED057FDBF
:1030C00004D0D7DF0AD0001C38F4509540953095D5
:1030D00021953F4F4F4F5F4F0895F6F7909580959C
:1030E000709561957F4F8F4F9F4F0895F999FECF4F
:1030F00092BD81BDF89A992780B50895A8E1B0E006
:1031000042E050E00C949918262FF999FECF1FBA8F
:1031100092BD81BD20BD0FB6F894FA9AF99A0FBE00
:10312000019608950E948418272F0C948518DC01BD
:10313000CB01FC01F999FECF06C0F2BDE1BDF89AC2
:10314000319600B40D9241505040B8F70895F8946C
:02315000FFCFAF
:0C3152001800FFFFFFFF2801023F0205EC
:00000001FF
